{
  "_format": "hh-sol-artifact-1",
  "contractName": "Vault",
  "sourceName": "contracts/Vault.sol",
  "abi": [
    {
      "inputs": [],
      "stateMutability": "nonpayable",
      "type": "constructor"
    },
    {
      "inputs": [],
      "name": "EnforcedPause",
      "type": "error"
    },
    {
      "inputs": [],
      "name": "ExpectedPause",
      "type": "error"
    },
    {
      "inputs": [
        {
          "internalType": "address",
          "name": "owner",
          "type": "address"
        }
      ],
      "name": "OwnableInvalidOwner",
      "type": "error"
    },
    {
      "inputs": [
        {
          "internalType": "address",
          "name": "account",
          "type": "address"
        }
      ],
      "name": "OwnableUnauthorizedAccount",
      "type": "error"
    },
    {
      "inputs": [],
      "name": "ReentrancyGuardReentrantCall",
      "type": "error"
    },
    {
      "anonymous": false,
      "inputs": [
        {
          "indexed": true,
          "internalType": "address",
          "name": "previousOwner",
          "type": "address"
        },
        {
          "indexed": true,
          "internalType": "address",
          "name": "newOwner",
          "type": "address"
        }
      ],
      "name": "OwnershipTransferred",
      "type": "event"
    },
    {
      "anonymous": false,
      "inputs": [
        {
          "indexed": false,
          "internalType": "address",
          "name": "account",
          "type": "address"
        }
      ],
      "name": "Paused",
      "type": "event"
    },
    {
      "anonymous": false,
      "inputs": [
        {
          "indexed": false,
          "internalType": "address",
          "name": "account",
          "type": "address"
        }
      ],
      "name": "Unpaused",
      "type": "event"
    },
    {
      "inputs": [
        {
          "internalType": "contract IERC20",
          "name": "_token",
          "type": "address"
        },
        {
          "internalType": "uint256",
          "name": "_valor",
          "type": "uint256"
        }
      ],
      "name": "depositaNoCofre",
      "outputs": [
        {
          "internalType": "bool",
          "name": "status",
          "type": "bool"
        }
      ],
      "stateMutability": "nonpayable",
      "type": "function"
    },
    {
      "inputs": [],
      "name": "getDescricao",
      "outputs": [
        {
          "internalType": "string",
          "name": "d",
          "type": "string"
        }
      ],
      "stateMutability": "view",
      "type": "function"
    },
    {
      "inputs": [],
      "name": "getLoanERC20Denomination",
      "outputs": [
        {
          "internalType": "contract IERC20",
          "name": "",
          "type": "address"
        }
      ],
      "stateMutability": "view",
      "type": "function"
    },
    {
      "inputs": [],
      "name": "getPrazoVencimnento",
      "outputs": [
        {
          "components": [
            {
              "internalType": "uint256",
              "name": "ano",
              "type": "uint256"
            },
            {
              "internalType": "uint256",
              "name": "mes",
              "type": "uint256"
            },
            {
              "internalType": "uint256",
              "name": "dia",
              "type": "uint256"
            },
            {
              "internalType": "uint256",
              "name": "hora",
              "type": "uint256"
            },
            {
              "internalType": "uint256",
              "name": "minuto",
              "type": "uint256"
            },
            {
              "internalType": "uint256",
              "name": "segundo",
              "type": "uint256"
            }
          ],
          "internalType": "struct Vault.DateTime",
          "name": "p",
          "type": "tuple"
        }
      ],
      "stateMutability": "view",
      "type": "function"
    },
    {
      "inputs": [],
      "name": "getTokenAceito",
      "outputs": [
        {
          "internalType": "contract IERC20",
          "name": "t",
          "type": "address"
        }
      ],
      "stateMutability": "view",
      "type": "function"
    },
    {
      "inputs": [],
      "name": "getValorTotalDepositado",
      "outputs": [
        {
          "internalType": "uint256",
          "name": "v",
          "type": "uint256"
        }
      ],
      "stateMutability": "view",
      "type": "function"
    },
    {
      "inputs": [],
      "name": "isVencido",
      "outputs": [
        {
          "internalType": "bool",
          "name": "b",
          "type": "bool"
        }
      ],
      "stateMutability": "view",
      "type": "function"
    },
    {
      "inputs": [],
      "name": "owner",
      "outputs": [
        {
          "internalType": "address",
          "name": "",
          "type": "address"
        }
      ],
      "stateMutability": "view",
      "type": "function"
    },
    {
      "inputs": [],
      "name": "paused",
      "outputs": [
        {
          "internalType": "bool",
          "name": "",
          "type": "bool"
        }
      ],
      "stateMutability": "view",
      "type": "function"
    },
    {
      "inputs": [],
      "name": "renounceOwnership",
      "outputs": [],
      "stateMutability": "nonpayable",
      "type": "function"
    },
    {
      "inputs": [
        {
          "internalType": "uint256",
          "name": "_ano",
          "type": "uint256"
        },
        {
          "internalType": "uint256",
          "name": "_mes",
          "type": "uint256"
        },
        {
          "internalType": "uint256",
          "name": "_dia",
          "type": "uint256"
        },
        {
          "internalType": "uint256",
          "name": "_hora",
          "type": "uint256"
        },
        {
          "internalType": "uint256",
          "name": "_minuto",
          "type": "uint256"
        },
        {
          "internalType": "uint256",
          "name": "_segundo",
          "type": "uint256"
        }
      ],
      "name": "setDataHoraVencimento",
      "outputs": [],
      "stateMutability": "nonpayable",
      "type": "function"
    },
    {
      "inputs": [
        {
          "internalType": "uint256",
          "name": "_ano",
          "type": "uint256"
        },
        {
          "internalType": "uint256",
          "name": "_mes",
          "type": "uint256"
        },
        {
          "internalType": "uint256",
          "name": "_dia",
          "type": "uint256"
        }
      ],
      "name": "setDataVencimento",
      "outputs": [],
      "stateMutability": "nonpayable",
      "type": "function"
    },
    {
      "inputs": [
        {
          "internalType": "string",
          "name": "_d",
          "type": "string"
        }
      ],
      "name": "setDescricao",
      "outputs": [],
      "stateMutability": "nonpayable",
      "type": "function"
    },
    {
      "inputs": [
        {
          "internalType": "contract IERC20",
          "name": "_a",
          "type": "address"
        }
      ],
      "name": "setTokenAceito",
      "outputs": [],
      "stateMutability": "nonpayable",
      "type": "function"
    },
    {
      "inputs": [
        {
          "internalType": "address",
          "name": "newOwner",
          "type": "address"
        }
      ],
      "name": "transferOwnership",
      "outputs": [],
      "stateMutability": "nonpayable",
      "type": "function"
    }
  ],
  "bytecode": "0x60806040526000600b556000600c5534801561001a57600080fd5b50338061004157604051631e4fbdf760e01b81526000600482015260240160405180910390fd5b61004a81610065565b506000805460ff60a01b1916905560018055426002556100b5565b600080546001600160a01b038381166001600160a01b0319831681178455604051919092169283917f8be0079c531659141344cd1fd0a4f28419497f9722a3daafe3b4186f6b6457e09190a35050565b611516806100c46000396000f3fe608060405234801561001057600080fd5b50600436106100f55760003560e01c80638da5cb5b11610097578063ed32109511610066578063ed32109514610214578063ef51a49314610227578063f2fde38b1461023a578063f37ec3a11461024d57600080fd5b80638da5cb5b146101df578063a5e130c0146101a5578063b01ddf85146101f0578063d9dd55331461020157600080fd5b80636767d67a116100d35780636767d67a1461018a578063715018a61461019d57806381f97e5f146101a55780638279ac7c146101ca57600080fd5b8063191113d7146100fa5780631df84ff71461010f5780635c975abb1461016c575b600080fd5b61010d61010836600461104c565b610255565b005b6101176102c8565b6040516101639190600060c082019050825182526020830151602083015260408301516040830152606083015160608301526080830151608083015260a083015160a083015292915050565b60405180910390f35b600054600160a01b900460ff165b6040519015158152602001610163565b61010d61019836600461108f565b61033e565b61010d6103a3565b600a546001600160a01b03165b6040516001600160a01b039091168152602001610163565b6101d26103b7565b60405161016391906110bb565b6000546001600160a01b03166101b2565b600b54604051908152602001610163565b61010d61020f366004611120565b610449565b61017a6102223660046111e6565b610459565b61010d610235366004611212565b610977565b61010d610248366004611212565b6109a1565b61017a6109df565b610263868686868686610a23565b6102ab5760405162461bcd60e51b8152602060048201526014602482015273646174612f686f726120696e76616c696461732160601b60448201526064015b60405180910390fd5b600395909555600493909355600591909155600655600755600855565b6103016040518060c001604052806000815260200160008152602001600081526020016000815260200160008152602001600081525090565b506040805160c08101825260035481526004546020820152600554918101919091526006546060820152600754608082015260085460a082015290565b610349838383610a64565b6103865760405162461bcd60e51b815260206004820152600e60248201526d6461746120696e76616c6964612160901b60448201526064016102a2565b600392909255600455600555600060068190556007819055600855565b6103ab610abb565b6103b56000610ae8565b565b6060600980546103c69061122f565b80601f01602080910402602001604051908101604052809291908181526020018280546103f29061122f565b801561043f5780601f106104145761010080835404028352916020019161043f565b820191906000526020600020905b81548152906001019060200180831161042257829003601f168201915b5050505050905090565b600961045582826112ba565b5050565b600033610464610fec565b6001600160a01b0380861680835260208301869052600a54909116146104bd5760405162461bcd60e51b815260206004820152600e60248201526d746f6b656e20696e76616c69646f60901b60448201526064016102a2565b600081602001511161051f5760405162461bcd60e51b815260206004820152602560248201527f7175616e746964616465206465706f73697461646120696e666572696f722061604482015264207a65726f60d81b60648201526084016102a2565b8051602082015160405163095ea7b360e01b815230600482015260248101919091526001600160a01b039091169063095ea7b3906044016020604051808303816000875af1158015610575573d6000803e3d6000fd5b505050506040513d601f19601f82011682018060405250810190610599919061137a565b6105e55760405162461bcd60e51b815260206004820152601760248201527f7175616e746964616465206e616f206170726f7661646100000000000000000060448201526064016102a2565b80516040516370a0823160e01b81523060048201526000916001600160a01b0316906370a0823190602401602060405180830381865afa15801561062d573d6000803e3d6000fd5b505050506040513d601f19601f82011682018060405250810190610651919061139c565b825160208401516040516323b872dd60e01b81526001600160a01b038781166004830152306024830152604482019290925292935016906323b872dd906064016020604051808303816000875af11580156106b0573d6000803e3d6000fd5b505050506040513d601f19601f820116820180604052508101906106d4919061137a565b6107175760405162461bcd60e51b81526020600482015260146024820152735472616e73666572656e6369612066616c686f7560601b60448201526064016102a2565b81516040516370a0823160e01b81523060048201526000916001600160a01b0316906370a0823190602401602060405180830381865afa15801561075f573d6000803e3d6000fd5b505050506040513d601f19601f82011682018060405250810190610783919061139c565b905082602001518261079591906113cb565b81146107f35760405162461bcd60e51b815260206004820152602760248201527f53616c646f2066696e616c206e616f20636f72726573706f6e646520616f20656044820152667370657261646f60c81b60648201526084016102a2565b60008060008060008061080542610b38565b9550955095509550955095508589604001516000018181525050848960400151602001818152505083896040015160400181815250508289604001516060018181525050818960400151608001818152505080896040015160a001818152505088600e60008c6001600160a01b03166001600160a01b0316815260200190815260200160002060008201518160000160006101000a8154816001600160a01b0302191690836001600160a01b0316021790555060208201518160010155604082015181600201600082015181600001556020820151816001015560408201518160020155606082015181600301556080820151816004015560a08201518160050155505090505061091e89600001518a60200151610bac565b6109625760405162461bcd60e51b81526020600482015260156024820152746465706f7369746f206d616c20737563656469646f60581b60448201526064016102a2565b60019a50505050505050505050505b92915050565b61097f610abb565b600a80546001600160a01b0319166001600160a01b0392909216919091179055565b6109a9610abb565b6001600160a01b0381166109d357604051631e4fbdf760e01b8152600060048201526024016102a2565b6109dc81610ae8565b50565b60035460045460055460065460075460085460009542958795610a09959294919390929190610c1d565b9050808210610a19576001610a1c565b60005b9250505090565b6000610a30878787610a64565b15610a5a57601884108015610a455750603c83105b8015610a515750603c82105b15610a5a575060015b9695505050505050565b60006107b28410158015610a785750600083115b8015610a855750600c8311155b15610ab4576000610a968585610c79565b9050600083118015610aa85750808311155b15610ab257600191505b505b9392505050565b6000546001600160a01b031633146103b55760405163118cdaa760e01b81523360048201526024016102a2565b600080546001600160a01b038381166001600160a01b0319831681178455604051919092169283917f8be0079c531659141344cd1fd0a4f28419497f9722a3daafe3b4186f6b6457e09190a35050565b60008080808080610b54610b4f62015180896113f4565b610cff565b919750955093506000610b6a6201518089611408565b9050610b78610e10826113f4565b9350610b86610e1082611408565b9050610b93603c826113f4565b9250610ba0603c82611408565b91505091939550919395565b600a546000906001600160a01b03848116911614610bfd5760405162461bcd60e51b815260206004820152600e60248201526d746f6b656e20696e76616c69646f60901b60448201526064016102a2565b81600b6000828254610c0f91906113cb565b909155506001949350505050565b600081610c2b603c8561141c565b610c37610e108761141c565b62015180610c468b8b8b610e73565b610c50919061141c565b610c5a91906113cb565b610c6491906113cb565b610c6e91906113cb565b979650505050505050565b60008160011480610c8a5750816003145b80610c955750816005145b80610ca05750816007145b80610cab5750816008145b80610cb6575081600a145b80610cc1575081600c145b15610cce5750601f610971565b81600214610cde5750601e610971565b610ce783610fb0565b610cf257601c610cf5565b601d5b60ff169392505050565b60008080838162253d8c610d168362010bd9611433565b610d209190611433565b9050600062023ab1610d3383600461145b565b610d3d919061148b565b90506004610d4e8262023ab161145b565b610d59906003611433565b610d63919061148b565b610d6d90836114b9565b9150600062164b09610d80846001611433565b610d8c90610fa061145b565b610d96919061148b565b90506004610da6826105b561145b565b610db0919061148b565b610dba90846114b9565b610dc590601f611433565b9250600061098f610dd785605061145b565b610de1919061148b565b905060006050610df38361098f61145b565b610dfd919061148b565b610e0790866114b9565b9050610e14600b8361148b565b9450610e2185600c61145b565b610e2c836002611433565b610e3691906114b9565b91508483610e456031876114b9565b610e5090606461145b565b610e5a9190611433565b610e649190611433565b9a919950975095505050505050565b60006107b2841015610e8457600080fd5b838383600062253d8c60046064600c610e9e600e886114b9565b610ea8919061148b565b610eb488611324611433565b610ebe9190611433565b610ec8919061148b565b610ed390600361145b565b610edd919061148b565b600c80610eeb600e886114b9565b610ef5919061148b565b610f0090600c61145b565b610f0b6002886114b9565b610f1591906114b9565b610f219061016f61145b565b610f2b919061148b565b6004600c610f3a600e896114b9565b610f44919061148b565b610f50896112c0611433565b610f5a9190611433565b610f66906105b561145b565b610f70919061148b565b610f7c617d4b876114b9565b610f869190611433565b610f909190611433565b610f9a91906114b9565b610fa491906114b9565b98975050505050505050565b6000610fbd600483611408565b158015610fd35750610fd0606483611408565b15155b806109715750610fe561019083611408565b1592915050565b604051806060016040528060006001600160a01b03168152602001600081526020016110476040518060c001604052806000815260200160008152602001600081526020016000815260200160008152602001600081525090565b905290565b60008060008060008060c0878903121561106557600080fd5b505084359660208601359650604086013595606081013595506080810135945060a0013592509050565b6000806000606084860312156110a457600080fd5b505081359360208301359350604090920135919050565b60006020808352835180602085015260005b818110156110e9578581018301518582016040015282016110cd565b506000604082860101526040601f19601f8301168501019250505092915050565b634e487b7160e01b600052604160045260246000fd5b60006020828403121561113257600080fd5b813567ffffffffffffffff8082111561114a57600080fd5b818401915084601f83011261115e57600080fd5b8135818111156111705761117061110a565b604051601f8201601f19908116603f011681019083821181831017156111985761119861110a565b816040528281528760208487010111156111b157600080fd5b826020860160208301376000928101602001929092525095945050505050565b6001600160a01b03811681146109dc57600080fd5b600080604083850312156111f957600080fd5b8235611204816111d1565b946020939093013593505050565b60006020828403121561122457600080fd5b8135610ab4816111d1565b600181811c9082168061124357607f821691505b60208210810361126357634e487b7160e01b600052602260045260246000fd5b50919050565b601f8211156112b5576000816000526020600020601f850160051c810160208610156112925750805b601f850160051c820191505b818110156112b15782815560010161129e565b5050505b505050565b815167ffffffffffffffff8111156112d4576112d461110a565b6112e8816112e2845461122f565b84611269565b602080601f83116001811461131d57600084156113055750858301515b600019600386901b1c1916600185901b1785556112b1565b600085815260208120601f198616915b8281101561134c5788860151825594840194600190910190840161132d565b508582101561136a5787850151600019600388901b60f8161c191681555b5050505050600190811b01905550565b60006020828403121561138c57600080fd5b81518015158114610ab457600080fd5b6000602082840312156113ae57600080fd5b5051919050565b634e487b7160e01b600052601160045260246000fd5b80820180821115610971576109716113b5565b634e487b7160e01b600052601260045260246000fd5b600082611403576114036113de565b500490565b600082611417576114176113de565b500690565b8082028115828204841417610971576109716113b5565b8082018281126000831280158216821582161715611453576114536113b5565b505092915050565b80820260008212600160ff1b84141615611477576114776113b5565b8181058314821517610971576109716113b5565b60008261149a5761149a6113de565b600160ff1b8214600019841416156114b4576114b46113b5565b500590565b81810360008312801583831316838312821617156114d9576114d96113b5565b509291505056fea26469706673582212205ed57e8ff830d16a573f4c60859ad28be12280756ce4442464ff3653efa8ce1264736f6c63430008180033",
  "linkReferences": {},
  "deployedLinkReferences": {}
}