{
  "_format": "hh-sol-artifact-1",
  "contractName": "Vault",
  "sourceName": "contracts/Vault.sol",
  "abi": [
    {
      "inputs": [],
      "stateMutability": "nonpayable",
      "type": "constructor"
    },
    {
      "inputs": [
        {
          "internalType": "address",
          "name": "target",
          "type": "address"
        }
      ],
      "name": "AddressEmptyCode",
      "type": "error"
    },
    {
      "inputs": [
        {
          "internalType": "address",
          "name": "account",
          "type": "address"
        }
      ],
      "name": "AddressInsufficientBalance",
      "type": "error"
    },
    {
      "inputs": [],
      "name": "EnforcedPause",
      "type": "error"
    },
    {
      "inputs": [],
      "name": "ExpectedPause",
      "type": "error"
    },
    {
      "inputs": [],
      "name": "FailedInnerCall",
      "type": "error"
    },
    {
      "inputs": [
        {
          "internalType": "address",
          "name": "owner",
          "type": "address"
        }
      ],
      "name": "OwnableInvalidOwner",
      "type": "error"
    },
    {
      "inputs": [
        {
          "internalType": "address",
          "name": "account",
          "type": "address"
        }
      ],
      "name": "OwnableUnauthorizedAccount",
      "type": "error"
    },
    {
      "inputs": [],
      "name": "ReentrancyGuardReentrantCall",
      "type": "error"
    },
    {
      "inputs": [
        {
          "internalType": "address",
          "name": "token",
          "type": "address"
        }
      ],
      "name": "SafeERC20FailedOperation",
      "type": "error"
    },
    {
      "anonymous": false,
      "inputs": [
        {
          "indexed": true,
          "internalType": "address",
          "name": "previousOwner",
          "type": "address"
        },
        {
          "indexed": true,
          "internalType": "address",
          "name": "newOwner",
          "type": "address"
        }
      ],
      "name": "OwnershipTransferred",
      "type": "event"
    },
    {
      "anonymous": false,
      "inputs": [
        {
          "indexed": false,
          "internalType": "address",
          "name": "account",
          "type": "address"
        }
      ],
      "name": "Paused",
      "type": "event"
    },
    {
      "anonymous": false,
      "inputs": [
        {
          "indexed": false,
          "internalType": "address",
          "name": "account",
          "type": "address"
        }
      ],
      "name": "Unpaused",
      "type": "event"
    },
    {
      "inputs": [
        {
          "internalType": "contract NoPregoNFT",
          "name": "_nft",
          "type": "address"
        },
        {
          "internalType": "uint256",
          "name": "_tokenid",
          "type": "uint256"
        }
      ],
      "name": "depositaColateral",
      "outputs": [
        {
          "internalType": "bool",
          "name": "b",
          "type": "bool"
        }
      ],
      "stateMutability": "nonpayable",
      "type": "function"
    },
    {
      "inputs": [
        {
          "internalType": "contract IERC20",
          "name": "_token",
          "type": "address"
        },
        {
          "internalType": "uint256",
          "name": "_valor",
          "type": "uint256"
        }
      ],
      "name": "depositaNoCofre",
      "outputs": [
        {
          "internalType": "bool",
          "name": "status",
          "type": "bool"
        }
      ],
      "stateMutability": "nonpayable",
      "type": "function"
    },
    {
      "inputs": [
        {
          "internalType": "address",
          "name": "_tomador",
          "type": "address"
        }
      ],
      "name": "getColaterais",
      "outputs": [
        {
          "internalType": "uint256[]",
          "name": "nfts",
          "type": "uint256[]"
        }
      ],
      "stateMutability": "view",
      "type": "function"
    },
    {
      "inputs": [],
      "name": "getDescricao",
      "outputs": [
        {
          "internalType": "string",
          "name": "d",
          "type": "string"
        }
      ],
      "stateMutability": "view",
      "type": "function"
    },
    {
      "inputs": [
        {
          "internalType": "address",
          "name": "_tomador",
          "type": "address"
        }
      ],
      "name": "getGarantias",
      "outputs": [
        {
          "internalType": "uint256",
          "name": "g",
          "type": "uint256"
        }
      ],
      "stateMutability": "view",
      "type": "function"
    },
    {
      "inputs": [],
      "name": "getLoanERC20Denomination",
      "outputs": [
        {
          "internalType": "contract IERC20",
          "name": "",
          "type": "address"
        }
      ],
      "stateMutability": "view",
      "type": "function"
    },
    {
      "inputs": [],
      "name": "getPrazoVencimnento",
      "outputs": [
        {
          "components": [
            {
              "internalType": "uint256",
              "name": "ano",
              "type": "uint256"
            },
            {
              "internalType": "uint256",
              "name": "mes",
              "type": "uint256"
            },
            {
              "internalType": "uint256",
              "name": "dia",
              "type": "uint256"
            },
            {
              "internalType": "uint256",
              "name": "hora",
              "type": "uint256"
            },
            {
              "internalType": "uint256",
              "name": "minuto",
              "type": "uint256"
            },
            {
              "internalType": "uint256",
              "name": "segundo",
              "type": "uint256"
            }
          ],
          "internalType": "struct Vault.DateTime",
          "name": "p",
          "type": "tuple"
        }
      ],
      "stateMutability": "view",
      "type": "function"
    },
    {
      "inputs": [],
      "name": "getTokenAceito",
      "outputs": [
        {
          "internalType": "contract IERC20",
          "name": "t",
          "type": "address"
        }
      ],
      "stateMutability": "view",
      "type": "function"
    },
    {
      "inputs": [],
      "name": "getValorTotalDepositado",
      "outputs": [
        {
          "internalType": "uint256",
          "name": "v",
          "type": "uint256"
        }
      ],
      "stateMutability": "view",
      "type": "function"
    },
    {
      "inputs": [],
      "name": "isVencido",
      "outputs": [
        {
          "internalType": "bool",
          "name": "b",
          "type": "bool"
        }
      ],
      "stateMutability": "view",
      "type": "function"
    },
    {
      "inputs": [
        {
          "internalType": "address",
          "name": "",
          "type": "address"
        },
        {
          "internalType": "address",
          "name": "",
          "type": "address"
        },
        {
          "internalType": "uint256[]",
          "name": "",
          "type": "uint256[]"
        },
        {
          "internalType": "uint256[]",
          "name": "",
          "type": "uint256[]"
        },
        {
          "internalType": "bytes",
          "name": "",
          "type": "bytes"
        }
      ],
      "name": "onERC1155BatchReceived",
      "outputs": [
        {
          "internalType": "bytes4",
          "name": "",
          "type": "bytes4"
        }
      ],
      "stateMutability": "nonpayable",
      "type": "function"
    },
    {
      "inputs": [
        {
          "internalType": "address",
          "name": "",
          "type": "address"
        },
        {
          "internalType": "address",
          "name": "",
          "type": "address"
        },
        {
          "internalType": "uint256",
          "name": "",
          "type": "uint256"
        },
        {
          "internalType": "uint256",
          "name": "",
          "type": "uint256"
        },
        {
          "internalType": "bytes",
          "name": "",
          "type": "bytes"
        }
      ],
      "name": "onERC1155Received",
      "outputs": [
        {
          "internalType": "bytes4",
          "name": "",
          "type": "bytes4"
        }
      ],
      "stateMutability": "nonpayable",
      "type": "function"
    },
    {
      "inputs": [],
      "name": "owner",
      "outputs": [
        {
          "internalType": "address",
          "name": "",
          "type": "address"
        }
      ],
      "stateMutability": "view",
      "type": "function"
    },
    {
      "inputs": [],
      "name": "paused",
      "outputs": [
        {
          "internalType": "bool",
          "name": "",
          "type": "bool"
        }
      ],
      "stateMutability": "view",
      "type": "function"
    },
    {
      "inputs": [],
      "name": "renounceOwnership",
      "outputs": [],
      "stateMutability": "nonpayable",
      "type": "function"
    },
    {
      "inputs": [
        {
          "internalType": "uint256",
          "name": "_ano",
          "type": "uint256"
        },
        {
          "internalType": "uint256",
          "name": "_mes",
          "type": "uint256"
        },
        {
          "internalType": "uint256",
          "name": "_dia",
          "type": "uint256"
        },
        {
          "internalType": "uint256",
          "name": "_hora",
          "type": "uint256"
        },
        {
          "internalType": "uint256",
          "name": "_minuto",
          "type": "uint256"
        },
        {
          "internalType": "uint256",
          "name": "_segundo",
          "type": "uint256"
        }
      ],
      "name": "setDataHoraVencimento",
      "outputs": [],
      "stateMutability": "nonpayable",
      "type": "function"
    },
    {
      "inputs": [
        {
          "internalType": "uint256",
          "name": "_ano",
          "type": "uint256"
        },
        {
          "internalType": "uint256",
          "name": "_mes",
          "type": "uint256"
        },
        {
          "internalType": "uint256",
          "name": "_dia",
          "type": "uint256"
        }
      ],
      "name": "setDataVencimento",
      "outputs": [],
      "stateMutability": "nonpayable",
      "type": "function"
    },
    {
      "inputs": [
        {
          "internalType": "string",
          "name": "_d",
          "type": "string"
        }
      ],
      "name": "setDescricao",
      "outputs": [],
      "stateMutability": "nonpayable",
      "type": "function"
    },
    {
      "inputs": [
        {
          "internalType": "contract IERC20",
          "name": "_a",
          "type": "address"
        }
      ],
      "name": "setTokenAceito",
      "outputs": [],
      "stateMutability": "nonpayable",
      "type": "function"
    },
    {
      "inputs": [
        {
          "internalType": "bytes4",
          "name": "_interfaceId",
          "type": "bytes4"
        }
      ],
      "name": "supportsInterface",
      "outputs": [
        {
          "internalType": "bool",
          "name": "",
          "type": "bool"
        }
      ],
      "stateMutability": "view",
      "type": "function"
    },
    {
      "inputs": [
        {
          "internalType": "address",
          "name": "newOwner",
          "type": "address"
        }
      ],
      "name": "transferOwnership",
      "outputs": [],
      "stateMutability": "nonpayable",
      "type": "function"
    }
  ],
  "bytecode": "0x6080604052600a80546001600160a01b0319167394a9d9ac8a22534e3faca9f4e7f2e2cf85d5e4c81790556000600b819055600c553480156200004157600080fd5b5033806200006a57604051631e4fbdf760e01b8152600060048201526024015b60405180910390fd5b6200007581620000ac565b506000805460ff60a01b1916905560018055620000a67394a9d9ac8a22534e3faca9f4e7f2e2cf85d5e4c8620000fc565b62000159565b600080546001600160a01b038381166001600160a01b0319831681178455604051919092169283917f8be0079c531659141344cd1fd0a4f28419497f9722a3daafe3b4186f6b6457e09190a35050565b6200010662000128565b600a80546001600160a01b0319166001600160a01b0392909216919091179055565b6000546001600160a01b03163314620001575760405163118cdaa760e01b815233600482015260240162000061565b565b611ab480620001696000396000f3fe608060405234801561001057600080fd5b50600436106101375760003560e01c8063a5e130c0116100b8578063ef51a4931161007c578063ef51a493146102cb578063f23a6e61146102de578063f2fde38b146102f1578063f301dda914610304578063f37ec3a114610324578063fda68c911461032c57600080fd5b8063a5e130c01461020d578063b01ddf8514610258578063bc197c811461026a578063d9dd5533146102a5578063ed321095146102b857600080fd5b80636767d67a116100ff5780636767d67a146101f2578063715018a61461020557806381f97e5f1461020d5780638279ac7c146102325780638da5cb5b1461024757600080fd5b806301ffc9a71461013c578063191113d7146101645780631df84ff714610179578063368d2037146101cd5780635c975abb146101e0575b600080fd5b61014f61014a366004611390565b610355565b60405190151581526020015b60405180910390f35b6101776101723660046113ba565b61038c565b005b610181610407565b60405161015b9190600060c082019050825182526020830151602083015260408301516040830152606083015160608301526080830151608083015260a083015160a083015292915050565b61014f6101db366004611412565b61047d565b600054600160a01b900460ff1661014f565b61017761020036600461143e565b6105ac565b610177610619565b600a546001600160a01b03165b6040516001600160a01b03909116815260200161015b565b61023a61062d565b60405161015b919061148e565b6000546001600160a01b031661021a565b600b545b60405190815260200161015b565b61028c61027836600461154f565b63bc197c8160e01b98975050505050505050565b6040516001600160e01b0319909116815260200161015b565b6101776102b3366004611624565b6106bf565b61014f6102c6366004611412565b6106d7565b6101776102d93660046116d5565b610a7d565b61028c6102ec3660046116f2565b610aa7565b6101776102ff3660046116d5565b610aba565b6103176103123660046116d5565b610af8565b60405161015b919061176e565b61014f610b64565b61025c61033a3660046116d5565b6001600160a01b031660009081526010602052604090205490565b60006001600160e01b03198216630271189760e51b148061038657506001600160e01b031982166301ffc9a760e01b145b92915050565b610394610ba8565b6103a2868686868686610bd5565b6103ea5760405162461bcd60e51b8152602060048201526014602482015273646174612f686f726120696e76616c696461732160601b60448201526064015b60405180910390fd5b600395909555600493909355600591909155600655600755600855565b6104406040518060c001604052806000815260200160008152602001600081526020016000815260200160008152602001600081525090565b506040805160c08101825260035481526004546020820152600554918101919091526006546060820152600754608082015260085460a082015290565b336000818152600f6020908152604080832080546001810182559084529183209091018490555163d70faf6160e01b8152600481018490529091906001600160a01b0385169063d70faf6190602401602060405180830381865afa1580156104e9573d6000803e3d6000fd5b505050506040513d601f19601f8201168201806040525081019061050d91906117b2565b6001600160a01b038216600090815260106020526040812080549091906105359084906117e1565b90915550506040516317d5759960e31b81526001600160a01b0382811660048301523060248301526044820185905285169063beabacc890606401600060405180830381600087803b15801561058a57600080fd5b505af115801561059e573d6000803e3d6000fd5b506001979650505050505050565b6105b4610ba8565b6105bf838383610c15565b6105fc5760405162461bcd60e51b815260206004820152600e60248201526d6461746120696e76616c6964612160901b60448201526064016103e1565b600392909255600455600555600060068190556007819055600855565b610621610ba8565b61062b6000610c6c565b565b60606009805461063c906117f4565b80601f0160208091040260200160405190810160405280929190818152602001828054610668906117f4565b80156106b55780601f1061068a576101008083540402835291602001916106b5565b820191906000526020600020905b81548152906001019060200180831161069857829003601f168201915b5050505050905090565b6106c7610ba8565b60096106d3828261187e565b5050565b6000336106e2611330565b6001600160a01b0380861680835260208301869052600a549091161461073b5760405162461bcd60e51b815260206004820152600e60248201526d746f6b656e20696e76616c69646f60901b60448201526064016103e1565b600081602001511161079d5760405162461bcd60e51b815260206004820152602560248201527f7175616e746964616465206465706f73697461646120696e666572696f722061604482015264207a65726f60d81b60648201526084016103e1565b80516040516370a0823160e01b81523060048201526000916001600160a01b0316906370a0823190602401602060405180830381865afa1580156107e5573d6000803e3d6000fd5b505050506040513d601f19601f8201168201806040525081019061080991906117b2565b905061081f826000015184308560200151610cbc565b81516040516370a0823160e01b81523060048201526000916001600160a01b0316906370a0823190602401602060405180830381865afa158015610867573d6000803e3d6000fd5b505050506040513d601f19601f8201168201806040525081019061088b91906117b2565b905082602001518261089d91906117e1565b81146108fb5760405162461bcd60e51b815260206004820152602760248201527f53616c646f2066696e616c206e616f20636f72726573706f6e646520616f20656044820152667370657261646f60c81b60648201526084016103e1565b60008060008060008061090d42610d1c565b9550955095509550955095508589604001516000018181525050848960400151602001818152505083896040015160400181815250508289604001516060018181525050818960400151608001818152505080896040015160a001818152505088600e60008c6001600160a01b03166001600160a01b0316815260200190815260200160002060008201518160000160006101000a8154816001600160a01b0302191690836001600160a01b0316021790555060208201518160010155604082015181600201600082015181600001556020820151816001015560408201518160020155606082015181600301556080820151816004015560a082015181600501555050905050610a2689600001518a60200151610d90565b610a6a5760405162461bcd60e51b81526020600482015260156024820152746465706f7369746f206d616c20737563656469646f60581b60448201526064016103e1565b5060019c9b505050505050505050505050565b610a85610ba8565b600a80546001600160a01b0319166001600160a01b0392909216919091179055565b63f23a6e6160e01b5b9695505050505050565b610ac2610ba8565b6001600160a01b038116610aec57604051631e4fbdf760e01b8152600060048201526024016103e1565b610af581610c6c565b50565b6001600160a01b0381166000908152600f6020908152604091829020805483518184028101840190945280845260609392830182828015610b5857602002820191906000526020600020905b815481526020019060010190808311610b44575b50505050509050919050565b60035460045460055460065460075460085460009542958795610b8e959294919390929190610e01565b9050808210610b9e576001610ba1565b60005b9250505090565b6000546001600160a01b0316331461062b5760405163118cdaa760e01b81523360048201526024016103e1565b6000610be2878787610c15565b15610ab057601884108015610bf75750603c83105b8015610c035750603c82105b15610ab0575060019695505050505050565b60006107b28410158015610c295750600083115b8015610c365750600c8311155b15610c65576000610c478585610e5d565b9050600083118015610c595750808311155b15610c6357600191505b505b9392505050565b600080546001600160a01b038381166001600160a01b0319831681178455604051919092169283917f8be0079c531659141344cd1fd0a4f28419497f9722a3daafe3b4186f6b6457e09190a35050565b604080516001600160a01b0385811660248301528416604482015260648082018490528251808303909101815260849091019091526020810180516001600160e01b03166323b872dd60e01b179052610d16908590610ee3565b50505050565b60008080808080610d38610d336201518089611954565b610f4b565b919750955093506000610d4e6201518089611968565b9050610d5c610e1082611954565b9350610d6a610e1082611968565b9050610d77603c82611954565b9250610d84603c82611968565b91505091939550919395565b600a546000906001600160a01b03848116911614610de15760405162461bcd60e51b815260206004820152600e60248201526d746f6b656e20696e76616c69646f60901b60448201526064016103e1565b81600b6000828254610df391906117e1565b909155506001949350505050565b600081610e0f603c8561197c565b610e1b610e108761197c565b62015180610e2a8b8b8b6110bf565b610e34919061197c565b610e3e91906117e1565b610e4891906117e1565b610e5291906117e1565b979650505050505050565b60008160011480610e6e5750816003145b80610e795750816005145b80610e845750816007145b80610e8f5750816008145b80610e9a575081600a145b80610ea5575081600c145b15610eb25750601f610386565b81600214610ec25750601e610386565b610ecb836111fc565b610ed657601c610ed9565b601d5b60ff169392505050565b6000610ef86001600160a01b03841683611238565b90508051600014158015610f1d575080806020019051810190610f1b9190611993565b155b15610f4657604051635274afe760e01b81526001600160a01b03841660048201526024016103e1565b505050565b60008080838162253d8c610f628362010bd96119b5565b610f6c91906119b5565b9050600062023ab1610f7f8360046119dd565b610f899190611a0d565b90506004610f9a8262023ab16119dd565b610fa59060036119b5565b610faf9190611a0d565b610fb99083611a3b565b9150600062164b09610fcc8460016119b5565b610fd890610fa06119dd565b610fe29190611a0d565b90506004610ff2826105b56119dd565b610ffc9190611a0d565b6110069084611a3b565b61101190601f6119b5565b9250600061098f6110238560506119dd565b61102d9190611a0d565b90506000605061103f8361098f6119dd565b6110499190611a0d565b6110539086611a3b565b9050611060600b83611a0d565b945061106d85600c6119dd565b6110788360026119b5565b6110829190611a3b565b91508483611091603187611a3b565b61109c9060646119dd565b6110a691906119b5565b6110b091906119b5565b9a919950975095505050505050565b60006107b28410156110d057600080fd5b838383600062253d8c60046064600c6110ea600e88611a3b565b6110f49190611a0d565b611100886113246119b5565b61110a91906119b5565b6111149190611a0d565b61111f9060036119dd565b6111299190611a0d565b600c80611137600e88611a3b565b6111419190611a0d565b61114c90600c6119dd565b611157600288611a3b565b6111619190611a3b565b61116d9061016f6119dd565b6111779190611a0d565b6004600c611186600e89611a3b565b6111909190611a0d565b61119c896112c06119b5565b6111a691906119b5565b6111b2906105b56119dd565b6111bc9190611a0d565b6111c8617d4b87611a3b565b6111d291906119b5565b6111dc91906119b5565b6111e69190611a3b565b6111f09190611a3b565b98975050505050505050565b6000611209600483611968565b15801561121f575061121c606483611968565b15155b80610386575061123161019083611968565b1592915050565b6060610c658383600084600080856001600160a01b0316848660405161125e9190611a62565b60006040518083038185875af1925050503d806000811461129b576040519150601f19603f3d011682016040523d82523d6000602084013e6112a0565b606091505b5091509150610ab08683836060826112c0576112bb82611307565b610c65565b81511580156112d757506001600160a01b0384163b155b1561130057604051639996b31560e01b81526001600160a01b03851660048201526024016103e1565b5080610c65565b8051156113175780518082602001fd5b604051630a12f52160e11b815260040160405180910390fd5b604051806060016040528060006001600160a01b031681526020016000815260200161138b6040518060c001604052806000815260200160008152602001600081526020016000815260200160008152602001600081525090565b905290565b6000602082840312156113a257600080fd5b81356001600160e01b031981168114610c6557600080fd5b60008060008060008060c087890312156113d357600080fd5b505084359660208601359650604086013595606081013595506080810135945060a0013592509050565b6001600160a01b0381168114610af557600080fd5b6000806040838503121561142557600080fd5b8235611430816113fd565b946020939093013593505050565b60008060006060848603121561145357600080fd5b505081359360208301359350604090920135919050565b60005b8381101561148557818101518382015260200161146d565b50506000910152565b60208152600082518060208401526114ad81604085016020870161146a565b601f01601f19169190910160400192915050565b60008083601f8401126114d357600080fd5b50813567ffffffffffffffff8111156114eb57600080fd5b6020830191508360208260051b850101111561150657600080fd5b9250929050565b60008083601f84011261151f57600080fd5b50813567ffffffffffffffff81111561153757600080fd5b60208301915083602082850101111561150657600080fd5b60008060008060008060008060a0898b03121561156b57600080fd5b8835611576816113fd565b97506020890135611586816113fd565b9650604089013567ffffffffffffffff808211156115a357600080fd5b6115af8c838d016114c1565b909850965060608b01359150808211156115c857600080fd5b6115d48c838d016114c1565b909650945060808b01359150808211156115ed57600080fd5b506115fa8b828c0161150d565b999c989b5096995094979396929594505050565b634e487b7160e01b600052604160045260246000fd5b60006020828403121561163657600080fd5b813567ffffffffffffffff8082111561164e57600080fd5b818401915084601f83011261166257600080fd5b8135818111156116745761167461160e565b604051601f8201601f19908116603f0116810190838211818310171561169c5761169c61160e565b816040528281528760208487010111156116b557600080fd5b826020860160208301376000928101602001929092525095945050505050565b6000602082840312156116e757600080fd5b8135610c65816113fd565b60008060008060008060a0878903121561170b57600080fd5b8635611716816113fd565b95506020870135611726816113fd565b94506040870135935060608701359250608087013567ffffffffffffffff81111561175057600080fd5b61175c89828a0161150d565b979a9699509497509295939492505050565b6020808252825182820181905260009190848201906040850190845b818110156117a65783518352928401929184019160010161178a565b50909695505050505050565b6000602082840312156117c457600080fd5b5051919050565b634e487b7160e01b600052601160045260246000fd5b80820180821115610386576103866117cb565b600181811c9082168061180857607f821691505b60208210810361182857634e487b7160e01b600052602260045260246000fd5b50919050565b601f821115610f46576000816000526020600020601f850160051c810160208610156118575750805b601f850160051c820191505b8181101561187657828155600101611863565b505050505050565b815167ffffffffffffffff8111156118985761189861160e565b6118ac816118a684546117f4565b8461182e565b602080601f8311600181146118e157600084156118c95750858301515b600019600386901b1c1916600185901b178555611876565b600085815260208120601f198616915b82811015611910578886015182559484019460019091019084016118f1565b508582101561192e5787850151600019600388901b60f8161c191681555b5050505050600190811b01905550565b634e487b7160e01b600052601260045260246000fd5b6000826119635761196361193e565b500490565b6000826119775761197761193e565b500690565b8082028115828204841417610386576103866117cb565b6000602082840312156119a557600080fd5b81518015158114610c6557600080fd5b80820182811260008312801582168215821617156119d5576119d56117cb565b505092915050565b80820260008212600160ff1b841416156119f9576119f96117cb565b8181058314821517610386576103866117cb565b600082611a1c57611a1c61193e565b600160ff1b821460001984141615611a3657611a366117cb565b500590565b8181036000831280158383131683831282161715611a5b57611a5b6117cb565b5092915050565b60008251611a7481846020870161146a565b919091019291505056fea264697066735822122080ba65ed443c2033699a494b7e2924d17b1340da3e09388516315e9000ad0e2664736f6c63430008180033",
  "linkReferences": {},
  "deployedLinkReferences": {}
}