{
  "_format": "hh-sol-artifact-1",
  "contractName": "Vault",
  "sourceName": "contracts/Vault.sol",
  "abi": [
    {
      "inputs": [],
      "stateMutability": "nonpayable",
      "type": "constructor"
    },
    {
      "inputs": [
        {
          "internalType": "address",
          "name": "target",
          "type": "address"
        }
      ],
      "name": "AddressEmptyCode",
      "type": "error"
    },
    {
      "inputs": [
        {
          "internalType": "address",
          "name": "account",
          "type": "address"
        }
      ],
      "name": "AddressInsufficientBalance",
      "type": "error"
    },
    {
      "inputs": [],
      "name": "EnforcedPause",
      "type": "error"
    },
    {
      "inputs": [],
      "name": "ExpectedPause",
      "type": "error"
    },
    {
      "inputs": [],
      "name": "FailedInnerCall",
      "type": "error"
    },
    {
      "inputs": [
        {
          "internalType": "address",
          "name": "owner",
          "type": "address"
        }
      ],
      "name": "OwnableInvalidOwner",
      "type": "error"
    },
    {
      "inputs": [
        {
          "internalType": "address",
          "name": "account",
          "type": "address"
        }
      ],
      "name": "OwnableUnauthorizedAccount",
      "type": "error"
    },
    {
      "inputs": [],
      "name": "ReentrancyGuardReentrantCall",
      "type": "error"
    },
    {
      "inputs": [
        {
          "internalType": "address",
          "name": "token",
          "type": "address"
        }
      ],
      "name": "SafeERC20FailedOperation",
      "type": "error"
    },
    {
      "anonymous": false,
      "inputs": [
        {
          "indexed": true,
          "internalType": "address",
          "name": "previousOwner",
          "type": "address"
        },
        {
          "indexed": true,
          "internalType": "address",
          "name": "newOwner",
          "type": "address"
        }
      ],
      "name": "OwnershipTransferred",
      "type": "event"
    },
    {
      "anonymous": false,
      "inputs": [
        {
          "indexed": false,
          "internalType": "address",
          "name": "account",
          "type": "address"
        }
      ],
      "name": "Paused",
      "type": "event"
    },
    {
      "anonymous": false,
      "inputs": [
        {
          "indexed": false,
          "internalType": "address",
          "name": "account",
          "type": "address"
        }
      ],
      "name": "Unpaused",
      "type": "event"
    },
    {
      "inputs": [
        {
          "internalType": "uint256",
          "name": "_tokenid",
          "type": "uint256"
        }
      ],
      "name": "depositaColateral",
      "outputs": [
        {
          "internalType": "bool",
          "name": "b",
          "type": "bool"
        }
      ],
      "stateMutability": "nonpayable",
      "type": "function"
    },
    {
      "inputs": [
        {
          "internalType": "contract IERC20",
          "name": "_token",
          "type": "address"
        },
        {
          "internalType": "uint256",
          "name": "_valor",
          "type": "uint256"
        }
      ],
      "name": "depositaNoCofre",
      "outputs": [
        {
          "internalType": "bool",
          "name": "status",
          "type": "bool"
        }
      ],
      "stateMutability": "nonpayable",
      "type": "function"
    },
    {
      "inputs": [
        {
          "internalType": "address",
          "name": "_tomador",
          "type": "address"
        }
      ],
      "name": "getColaterais",
      "outputs": [
        {
          "internalType": "uint256[]",
          "name": "nfts",
          "type": "uint256[]"
        }
      ],
      "stateMutability": "view",
      "type": "function"
    },
    {
      "inputs": [],
      "name": "getDescricao",
      "outputs": [
        {
          "internalType": "string",
          "name": "d",
          "type": "string"
        }
      ],
      "stateMutability": "view",
      "type": "function"
    },
    {
      "inputs": [
        {
          "internalType": "address",
          "name": "_tomador",
          "type": "address"
        }
      ],
      "name": "getGarantias",
      "outputs": [
        {
          "internalType": "uint256",
          "name": "g",
          "type": "uint256"
        }
      ],
      "stateMutability": "view",
      "type": "function"
    },
    {
      "inputs": [],
      "name": "getLoanERC20Denomination",
      "outputs": [
        {
          "internalType": "contract IERC20",
          "name": "",
          "type": "address"
        }
      ],
      "stateMutability": "view",
      "type": "function"
    },
    {
      "inputs": [],
      "name": "getNFTAceito",
      "outputs": [
        {
          "internalType": "contract NoPregoNFT",
          "name": "n",
          "type": "address"
        }
      ],
      "stateMutability": "view",
      "type": "function"
    },
    {
      "inputs": [],
      "name": "getPrazoVencimnento",
      "outputs": [
        {
          "components": [
            {
              "internalType": "uint256",
              "name": "ano",
              "type": "uint256"
            },
            {
              "internalType": "uint256",
              "name": "mes",
              "type": "uint256"
            },
            {
              "internalType": "uint256",
              "name": "dia",
              "type": "uint256"
            },
            {
              "internalType": "uint256",
              "name": "hora",
              "type": "uint256"
            },
            {
              "internalType": "uint256",
              "name": "minuto",
              "type": "uint256"
            },
            {
              "internalType": "uint256",
              "name": "segundo",
              "type": "uint256"
            }
          ],
          "internalType": "struct Vault.DateTime",
          "name": "p",
          "type": "tuple"
        }
      ],
      "stateMutability": "view",
      "type": "function"
    },
    {
      "inputs": [],
      "name": "getTokenAceito",
      "outputs": [
        {
          "internalType": "contract IERC20",
          "name": "t",
          "type": "address"
        }
      ],
      "stateMutability": "view",
      "type": "function"
    },
    {
      "inputs": [],
      "name": "getValorTotalDepositado",
      "outputs": [
        {
          "internalType": "uint256",
          "name": "v",
          "type": "uint256"
        }
      ],
      "stateMutability": "view",
      "type": "function"
    },
    {
      "inputs": [],
      "name": "isVencido",
      "outputs": [
        {
          "internalType": "bool",
          "name": "b",
          "type": "bool"
        }
      ],
      "stateMutability": "view",
      "type": "function"
    },
    {
      "inputs": [
        {
          "internalType": "address",
          "name": "",
          "type": "address"
        },
        {
          "internalType": "address",
          "name": "",
          "type": "address"
        },
        {
          "internalType": "uint256[]",
          "name": "",
          "type": "uint256[]"
        },
        {
          "internalType": "uint256[]",
          "name": "",
          "type": "uint256[]"
        },
        {
          "internalType": "bytes",
          "name": "",
          "type": "bytes"
        }
      ],
      "name": "onERC1155BatchReceived",
      "outputs": [
        {
          "internalType": "bytes4",
          "name": "",
          "type": "bytes4"
        }
      ],
      "stateMutability": "nonpayable",
      "type": "function"
    },
    {
      "inputs": [
        {
          "internalType": "address",
          "name": "",
          "type": "address"
        },
        {
          "internalType": "address",
          "name": "",
          "type": "address"
        },
        {
          "internalType": "uint256",
          "name": "",
          "type": "uint256"
        },
        {
          "internalType": "uint256",
          "name": "",
          "type": "uint256"
        },
        {
          "internalType": "bytes",
          "name": "",
          "type": "bytes"
        }
      ],
      "name": "onERC1155Received",
      "outputs": [
        {
          "internalType": "bytes4",
          "name": "",
          "type": "bytes4"
        }
      ],
      "stateMutability": "nonpayable",
      "type": "function"
    },
    {
      "inputs": [],
      "name": "owner",
      "outputs": [
        {
          "internalType": "address",
          "name": "",
          "type": "address"
        }
      ],
      "stateMutability": "view",
      "type": "function"
    },
    {
      "inputs": [],
      "name": "paused",
      "outputs": [
        {
          "internalType": "bool",
          "name": "",
          "type": "bool"
        }
      ],
      "stateMutability": "view",
      "type": "function"
    },
    {
      "inputs": [],
      "name": "renounceOwnership",
      "outputs": [],
      "stateMutability": "nonpayable",
      "type": "function"
    },
    {
      "inputs": [
        {
          "internalType": "uint256",
          "name": "_ano",
          "type": "uint256"
        },
        {
          "internalType": "uint256",
          "name": "_mes",
          "type": "uint256"
        },
        {
          "internalType": "uint256",
          "name": "_dia",
          "type": "uint256"
        },
        {
          "internalType": "uint256",
          "name": "_hora",
          "type": "uint256"
        },
        {
          "internalType": "uint256",
          "name": "_minuto",
          "type": "uint256"
        },
        {
          "internalType": "uint256",
          "name": "_segundo",
          "type": "uint256"
        }
      ],
      "name": "setDataHoraVencimento",
      "outputs": [],
      "stateMutability": "nonpayable",
      "type": "function"
    },
    {
      "inputs": [
        {
          "internalType": "uint256",
          "name": "_ano",
          "type": "uint256"
        },
        {
          "internalType": "uint256",
          "name": "_mes",
          "type": "uint256"
        },
        {
          "internalType": "uint256",
          "name": "_dia",
          "type": "uint256"
        }
      ],
      "name": "setDataVencimento",
      "outputs": [],
      "stateMutability": "nonpayable",
      "type": "function"
    },
    {
      "inputs": [
        {
          "internalType": "string",
          "name": "_d",
          "type": "string"
        }
      ],
      "name": "setDescricao",
      "outputs": [],
      "stateMutability": "nonpayable",
      "type": "function"
    },
    {
      "inputs": [
        {
          "internalType": "contract NoPregoNFT",
          "name": "_nft",
          "type": "address"
        }
      ],
      "name": "setNFTAceito",
      "outputs": [],
      "stateMutability": "nonpayable",
      "type": "function"
    },
    {
      "inputs": [
        {
          "internalType": "contract IERC20",
          "name": "_a",
          "type": "address"
        }
      ],
      "name": "setTokenAceito",
      "outputs": [],
      "stateMutability": "nonpayable",
      "type": "function"
    },
    {
      "inputs": [
        {
          "internalType": "bytes4",
          "name": "_interfaceId",
          "type": "bytes4"
        }
      ],
      "name": "supportsInterface",
      "outputs": [
        {
          "internalType": "bool",
          "name": "",
          "type": "bool"
        }
      ],
      "stateMutability": "view",
      "type": "function"
    },
    {
      "inputs": [
        {
          "internalType": "contract IERC20",
          "name": "_token",
          "type": "address"
        },
        {
          "internalType": "uint256",
          "name": "_valor",
          "type": "uint256"
        }
      ],
      "name": "tomaEmprestimo",
      "outputs": [
        {
          "internalType": "bool",
          "name": "b",
          "type": "bool"
        }
      ],
      "stateMutability": "nonpayable",
      "type": "function"
    },
    {
      "inputs": [
        {
          "internalType": "address",
          "name": "newOwner",
          "type": "address"
        }
      ],
      "name": "transferOwnership",
      "outputs": [],
      "stateMutability": "nonpayable",
      "type": "function"
    }
  ],
  "bytecode": "0x6080604052600a80546001600160a01b03199081167394a9d9ac8a22534e3faca9f4e7f2e2cf85d5e4c8179091556000600b819055600c556010805490911673de498da263f00dc362ba20be9621d967e719aed71790553480156200006357600080fd5b5033806200008c57604051631e4fbdf760e01b8152600060048201526024015b60405180910390fd5b6200009781620000e4565b506000805460ff60a01b1916905560018055620000c87394a9d9ac8a22534e3faca9f4e7f2e2cf85d5e4c862000134565b600d805461ffff60201b1916651f400000000017905562000191565b600080546001600160a01b038381166001600160a01b0319831681178455604051919092169283917f8be0079c531659141344cd1fd0a4f28419497f9722a3daafe3b4186f6b6457e09190a35050565b6200013e62000160565b600a80546001600160a01b0319166001600160a01b0392909216919091179055565b6000546001600160a01b031633146200018f5760405163118cdaa760e01b815233600482015260240162000083565b565b61206780620001a16000396000f3fe608060405234801561001057600080fd5b50600436106101585760003560e01c8063a5e130c0116100c3578063ef51a4931161007c578063ef51a49314610323578063f23a6e6114610336578063f2fde38b14610349578063f301dda91461035c578063f37ec3a11461037c578063fda68c911461038457600080fd5b8063a5e130c014610266578063b01ddf851461029d578063bc197c81146102af578063c5935253146102ea578063d9dd5533146102fd578063ed3210951461031057600080fd5b80635c975abb116101155780635c975abb146102395780636767d67a1461024b578063715018a61461025e57806381f97e5f146102665780638279ac7c146102775780638da5cb5b1461028c57600080fd5b806301ffc9a71461015d578063191113d7146101855780631df84ff71461019a5780634008018f146101ee57806345bacd5f14610213578063486d01d814610226575b600080fd5b61017061016b366004611862565b6103ad565b60405190151581526020015b60405180910390f35b61019861019336600461188c565b6103e4565b005b6101a261045f565b60405161017c9190600060c082019050825182526020830151602083015260408301516040830152606083015160608301526080830151608083015260a083015160a083015292915050565b6010546001600160a01b03165b6040516001600160a01b03909116815260200161017c565b6101986102213660046118e4565b6104d5565b610170610234366004611901565b6104ff565b600054600160a01b900460ff16610170565b61019861025936600461191a565b610518565b610198610585565b600a546001600160a01b03166101fb565b61027f610599565b60405161017c919061196a565b6000546001600160a01b03166101fb565b600b545b60405190815260200161017c565b6102d16102bd366004611a2b565b63bc197c8160e01b98975050505050505050565b6040516001600160e01b0319909116815260200161017c565b6101706102f8366004611aea565b61062b565b61019861030b366004611b2c565b610a7e565b61017061031e366004611aea565b610a96565b6101986103313660046118e4565b610ddb565b6102d1610344366004611bdd565b610e05565b6101986103573660046118e4565b610e18565b61036f61036a3660046118e4565b610e56565b60405161017c9190611c59565b610170610ec2565b6102a16103923660046118e4565b6001600160a01b031660009081526012602052604090205490565b60006001600160e01b03198216630271189760e51b14806103de57506001600160e01b031982166301ffc9a760e01b145b92915050565b6103ec610f06565b6103fa868686868686610f33565b6104425760405162461bcd60e51b8152602060048201526014602482015273646174612f686f726120696e76616c696461732160601b60448201526064015b60405180910390fd5b600395909555600493909355600591909155600655600755600855565b6104986040518060c001604052806000815260200160008152602001600081526020016000815260200160008152602001600081525090565b506040805160c08101825260035481526004546020820152600554918101919091526006546060820152600754608082015260085460a082015290565b6104dd610f06565b601080546001600160a01b0319166001600160a01b0392909216919091179055565b6010546000906103de906001600160a01b031683610f73565b610520610f06565b61052b8383836110a2565b6105685760405162461bcd60e51b815260206004820152600e60248201526d6461746120696e76616c6964612160901b6044820152606401610439565b600392909255600455600555600060068190556007819055600855565b61058d610f06565b61059760006110f9565b565b6060600980546105a890611c9d565b80601f01602080910402602001604051908101604052809291908181526020018280546105d490611c9d565b80156106215780601f106105f657610100808354040283529160200191610621565b820191906000526020600020905b81548152906001019060200180831161060457829003601f168201915b5050505050905090565b60003361063661180d565b6001600160a01b038516815260208101849052610651610ec2565b156106aa5760405162461bcd60e51b8152602060048201526024808201527f7072617a6f2064652076656e63696d656e746f20646f20636f6672652076656e6044820152636369646f60e01b6064820152608401610439565b600a5481516001600160a01b039081169116146106d95760405162461bcd60e51b815260040161043990611cd7565b600081602001511161073b5760405162461bcd60e51b815260206004820152602560248201527f7175616e74696461646520656d707265737461646120696e666572696f722061604482015264207a65726f60d81b6064820152608401610439565b6001600160a01b038216600090815260126020908152604090912054908201518110156107aa5760405162461bcd60e51b815260206004820152601760248201527f676172616e7469617320696e737566696369656e7465730000000000000000006044820152606401610439565b600b548260200151600c546107bf9190611d15565b11156107dd5760405162461bcd60e51b815260040161043990611d28565b81516040516370a0823160e01b81523060048201526000916001600160a01b0316906370a0823190602401602060405180830381865afa158015610825573d6000803e3d6000fd5b505050506040513d601f19601f820116820180604052508101906108499190611d6e565b905061085f836000015130868660200151611149565b82516040516370a0823160e01b81523060048201526000916001600160a01b0316906370a0823190602401602060405180830381865afa1580156108a7573d6000803e3d6000fd5b505050506040513d601f19601f820116820180604052508101906108cb9190611d6e565b90508360200151826108dd9190611d87565b81146108fb5760405162461bcd60e51b815260040161043990611d9a565b60008060008060008061090d426111a9565b955095509550955095509550858a604001516000018181525050848a604001516020018181525050838a604001516040018181525050828a604001516060018181525050818a604001516080018181525050808a6040015160a001818152505089600f60008d6001600160a01b03166001600160a01b0316815260200190815260200160002060008201518160000160006101000a8154816001600160a01b0302191690836001600160a01b0316021790555060208201518160010155604082015181600201600082015181600001556020820151816001015560408201518160020155606082015181600301556080820151816004015560a082015181600501555050905050610a268a600001518b6020015161121d565b610a6a5760405162461bcd60e51b81526020600482015260156024820152746465706f7369746f206d616c20737563656469646f60581b6044820152606401610439565b5060019d9c50505050505050505050505050565b610a86610f06565b6009610a928282611e31565b5050565b600033610aa161180d565b6001600160a01b0380861680835260208301869052600a5490911614610ad95760405162461bcd60e51b815260040161043990611cd7565b6000816020015111610b3b5760405162461bcd60e51b815260206004820152602560248201527f7175616e746964616465206465706f73697461646120696e666572696f722061604482015264207a65726f60d81b6064820152608401610439565b80516040516370a0823160e01b81523060048201526000916001600160a01b0316906370a0823190602401602060405180830381865afa158015610b83573d6000803e3d6000fd5b505050506040513d601f19601f82011682018060405250810190610ba79190611d6e565b9050610bbd826000015184308560200151611149565b81516040516370a0823160e01b81523060048201526000916001600160a01b0316906370a0823190602401602060405180830381865afa158015610c05573d6000803e3d6000fd5b505050506040513d601f19601f82011682018060405250810190610c299190611d6e565b9050826020015182610c3b9190611d15565b8114610c595760405162461bcd60e51b815260040161043990611d9a565b600080600080600080610c6b426111a9565b9550955095509550955095508589604001516000018181525050848960400151602001818152505083896040015160400181815250508289604001516060018181525050818960400151608001818152505080896040015160a001818152505088600e60008c6001600160a01b03166001600160a01b0316815260200190815260200160002060008201518160000160006101000a8154816001600160a01b0302191690836001600160a01b0316021790555060208201518160010155604082015181600201600082015181600001556020820151816001015560408201518160020155606082015181600301556080820151816004015560a082015181600501555050905050610d8489600001518a6020015161129c565b610dc85760405162461bcd60e51b81526020600482015260156024820152746465706f7369746f206d616c20737563656469646f60581b6044820152606401610439565b5060019c9b505050505050505050505050565b610de3610f06565b600a80546001600160a01b0319166001600160a01b0392909216919091179055565b63f23a6e6160e01b5b9695505050505050565b610e20610f06565b6001600160a01b038116610e4a57604051631e4fbdf760e01b815260006004820152602401610439565b610e53816110f9565b50565b6001600160a01b038116600090815260116020908152604091829020805483518184028101840190945280845260609392830182828015610eb657602002820191906000526020600020905b815481526020019060010190808311610ea2575b50505050509050919050565b60035460045460055460065460075460085460009542958795610eec9592949193909291906112de565b9050808210610efc576001610eff565b60005b9250505090565b6000546001600160a01b031633146105975760405163118cdaa760e01b8152336004820152602401610439565b6000610f408787876110a2565b15610e0e57601884108015610f555750603c83105b8015610f615750603c82105b15610e0e575060019695505050505050565b33600081815260116020908152604080832080546001810182559084529183209091018490555163d70faf6160e01b8152600481018490529091906001600160a01b0385169063d70faf6190602401602060405180830381865afa158015610fdf573d6000803e3d6000fd5b505050506040513d601f19601f820116820180604052508101906110039190611d6e565b6001600160a01b0382166000908152601260205260408120805490919061102b908490611d15565b90915550506040516317d5759960e31b81526001600160a01b0382811660048301523060248301526044820185905285169063beabacc890606401600060405180830381600087803b15801561108057600080fd5b505af1158015611094573d6000803e3d6000fd5b506001979650505050505050565b60006107b284101580156110b65750600083115b80156110c35750600c8311155b156110f25760006110d4858561133a565b90506000831180156110e65750808311155b156110f057600191505b505b9392505050565b600080546001600160a01b038381166001600160a01b0319831681178455604051919092169283917f8be0079c531659141344cd1fd0a4f28419497f9722a3daafe3b4186f6b6457e09190a35050565b604080516001600160a01b0385811660248301528416604482015260648082018490528251808303909101815260849091019091526020810180516001600160e01b03166323b872dd60e01b1790526111a39085906113c0565b50505050565b600080808080806111c56111c06201518089611f07565b611428565b9197509550935060006111db6201518089611f1b565b90506111e9610e1082611f07565b93506111f7610e1082611f1b565b9050611204603c82611f07565b9250611211603c82611f1b565b91505091939550919395565b600a546000906001600160a01b0384811691161461124d5760405162461bcd60e51b815260040161043990611cd7565b600b5482600c5461125e9190611d15565b111561127c5760405162461bcd60e51b815260040161043990611d28565b81600c600082825461128e9190611d15565b909155506001949350505050565b600a546000906001600160a01b038481169116146112cc5760405162461bcd60e51b815260040161043990611cd7565b81600b600082825461128e9190611d15565b6000816112ec603c85611f2f565b6112f8610e1087611f2f565b620151806113078b8b8b61159c565b6113119190611f2f565b61131b9190611d15565b6113259190611d15565b61132f9190611d15565b979650505050505050565b6000816001148061134b5750816003145b806113565750816005145b806113615750816007145b8061136c5750816008145b80611377575081600a145b80611382575081600c145b1561138f5750601f6103de565b8160021461139f5750601e6103de565b6113a8836116d9565b6113b357601c6113b6565b601d5b60ff169392505050565b60006113d56001600160a01b03841683611715565b905080516000141580156113fa5750808060200190518101906113f89190611f46565b155b1561142357604051635274afe760e01b81526001600160a01b0384166004820152602401610439565b505050565b60008080838162253d8c61143f8362010bd9611f68565b6114499190611f68565b9050600062023ab161145c836004611f90565b6114669190611fc0565b905060046114778262023ab1611f90565b611482906003611f68565b61148c9190611fc0565b6114969083611fee565b9150600062164b096114a9846001611f68565b6114b590610fa0611f90565b6114bf9190611fc0565b905060046114cf826105b5611f90565b6114d99190611fc0565b6114e39084611fee565b6114ee90601f611f68565b9250600061098f611500856050611f90565b61150a9190611fc0565b90506000605061151c8361098f611f90565b6115269190611fc0565b6115309086611fee565b905061153d600b83611fc0565b945061154a85600c611f90565b611555836002611f68565b61155f9190611fee565b9150848361156e603187611fee565b611579906064611f90565b6115839190611f68565b61158d9190611f68565b9a919950975095505050505050565b60006107b28410156115ad57600080fd5b838383600062253d8c60046064600c6115c7600e88611fee565b6115d19190611fc0565b6115dd88611324611f68565b6115e79190611f68565b6115f19190611fc0565b6115fc906003611f90565b6116069190611fc0565b600c80611614600e88611fee565b61161e9190611fc0565b61162990600c611f90565b611634600288611fee565b61163e9190611fee565b61164a9061016f611f90565b6116549190611fc0565b6004600c611663600e89611fee565b61166d9190611fc0565b611679896112c0611f68565b6116839190611f68565b61168f906105b5611f90565b6116999190611fc0565b6116a5617d4b87611fee565b6116af9190611f68565b6116b99190611f68565b6116c39190611fee565b6116cd9190611fee565b98975050505050505050565b60006116e6600483611f1b565b1580156116fc57506116f9606483611f1b565b15155b806103de575061170e61019083611f1b565b1592915050565b60606110f28383600084600080856001600160a01b0316848660405161173b9190612015565b60006040518083038185875af1925050503d8060008114611778576040519150601f19603f3d011682016040523d82523d6000602084013e61177d565b606091505b5091509150610e0e86838360608261179d57611798826117e4565b6110f2565b81511580156117b457506001600160a01b0384163b155b156117dd57604051639996b31560e01b81526001600160a01b0385166004820152602401610439565b50806110f2565b8051156117f45780518082602001fd5b604051630a12f52160e11b815260040160405180910390fd5b604080516060810182526000808252602082015290810161185d6040518060c001604052806000815260200160008152602001600081526020016000815260200160008152602001600081525090565b905290565b60006020828403121561187457600080fd5b81356001600160e01b0319811681146110f257600080fd5b60008060008060008060c087890312156118a557600080fd5b505084359660208601359650604086013595606081013595506080810135945060a0013592509050565b6001600160a01b0381168114610e5357600080fd5b6000602082840312156118f657600080fd5b81356110f2816118cf565b60006020828403121561191357600080fd5b5035919050565b60008060006060848603121561192f57600080fd5b505081359360208301359350604090920135919050565b60005b83811015611961578181015183820152602001611949565b50506000910152565b6020815260008251806020840152611989816040850160208701611946565b601f01601f19169190910160400192915050565b60008083601f8401126119af57600080fd5b50813567ffffffffffffffff8111156119c757600080fd5b6020830191508360208260051b85010111156119e257600080fd5b9250929050565b60008083601f8401126119fb57600080fd5b50813567ffffffffffffffff811115611a1357600080fd5b6020830191508360208285010111156119e257600080fd5b60008060008060008060008060a0898b031215611a4757600080fd5b8835611a52816118cf565b97506020890135611a62816118cf565b9650604089013567ffffffffffffffff80821115611a7f57600080fd5b611a8b8c838d0161199d565b909850965060608b0135915080821115611aa457600080fd5b611ab08c838d0161199d565b909650945060808b0135915080821115611ac957600080fd5b50611ad68b828c016119e9565b999c989b5096995094979396929594505050565b60008060408385031215611afd57600080fd5b8235611b08816118cf565b946020939093013593505050565b634e487b7160e01b600052604160045260246000fd5b600060208284031215611b3e57600080fd5b813567ffffffffffffffff80821115611b5657600080fd5b818401915084601f830112611b6a57600080fd5b813581811115611b7c57611b7c611b16565b604051601f8201601f19908116603f01168101908382118183101715611ba457611ba4611b16565b81604052828152876020848701011115611bbd57600080fd5b826020860160208301376000928101602001929092525095945050505050565b60008060008060008060a08789031215611bf657600080fd5b8635611c01816118cf565b95506020870135611c11816118cf565b94506040870135935060608701359250608087013567ffffffffffffffff811115611c3b57600080fd5b611c4789828a016119e9565b979a9699509497509295939492505050565b6020808252825182820181905260009190848201906040850190845b81811015611c9157835183529284019291840191600101611c75565b50909695505050505050565b600181811c90821680611cb157607f821691505b602082108103611cd157634e487b7160e01b600052602260045260246000fd5b50919050565b6020808252600e908201526d746f6b656e20696e76616c69646f60901b604082015260600190565b634e487b7160e01b600052601160045260246000fd5b808201808211156103de576103de611cff565b60208082526026908201527f76616c6f72206465706f73697461646f206e6f20636f66726520696e737566696040820152656369656e746560d01b606082015260800190565b600060208284031215611d8057600080fd5b5051919050565b818103818111156103de576103de611cff565b60208082526027908201527f53616c646f2066696e616c206e616f20636f72726573706f6e646520616f20656040820152667370657261646f60c81b606082015260800190565b601f821115611423576000816000526020600020601f850160051c81016020861015611e0a5750805b601f850160051c820191505b81811015611e2957828155600101611e16565b505050505050565b815167ffffffffffffffff811115611e4b57611e4b611b16565b611e5f81611e598454611c9d565b84611de1565b602080601f831160018114611e945760008415611e7c5750858301515b600019600386901b1c1916600185901b178555611e29565b600085815260208120601f198616915b82811015611ec357888601518255948401946001909101908401611ea4565b5085821015611ee15787850151600019600388901b60f8161c191681555b5050505050600190811b01905550565b634e487b7160e01b600052601260045260246000fd5b600082611f1657611f16611ef1565b500490565b600082611f2a57611f2a611ef1565b500690565b80820281158282048414176103de576103de611cff565b600060208284031215611f5857600080fd5b815180151581146110f257600080fd5b8082018281126000831280158216821582161715611f8857611f88611cff565b505092915050565b80820260008212600160ff1b84141615611fac57611fac611cff565b81810583148215176103de576103de611cff565b600082611fcf57611fcf611ef1565b600160ff1b821460001984141615611fe957611fe9611cff565b500590565b818103600083128015838313168383128216171561200e5761200e611cff565b5092915050565b60008251612027818460208701611946565b919091019291505056fea26469706673582212206cb14b3016db8f4bace15555c9370e0298adf9292f8dea9eb09a9689a9657f2564736f6c63430008180033",
  "linkReferences": {},
  "deployedLinkReferences": {}
}