{
  "_format": "hh-sol-artifact-1",
  "contractName": "Vault",
  "sourceName": "contracts/Vault.sol",
  "abi": [
    {
      "inputs": [],
      "stateMutability": "nonpayable",
      "type": "constructor"
    },
    {
      "inputs": [
        {
          "internalType": "address",
          "name": "target",
          "type": "address"
        }
      ],
      "name": "AddressEmptyCode",
      "type": "error"
    },
    {
      "inputs": [
        {
          "internalType": "address",
          "name": "account",
          "type": "address"
        }
      ],
      "name": "AddressInsufficientBalance",
      "type": "error"
    },
    {
      "inputs": [],
      "name": "EnforcedPause",
      "type": "error"
    },
    {
      "inputs": [],
      "name": "ExpectedPause",
      "type": "error"
    },
    {
      "inputs": [],
      "name": "FailedInnerCall",
      "type": "error"
    },
    {
      "inputs": [
        {
          "internalType": "address",
          "name": "owner",
          "type": "address"
        }
      ],
      "name": "OwnableInvalidOwner",
      "type": "error"
    },
    {
      "inputs": [
        {
          "internalType": "address",
          "name": "account",
          "type": "address"
        }
      ],
      "name": "OwnableUnauthorizedAccount",
      "type": "error"
    },
    {
      "inputs": [],
      "name": "ReentrancyGuardReentrantCall",
      "type": "error"
    },
    {
      "inputs": [
        {
          "internalType": "address",
          "name": "token",
          "type": "address"
        }
      ],
      "name": "SafeERC20FailedOperation",
      "type": "error"
    },
    {
      "anonymous": false,
      "inputs": [
        {
          "indexed": true,
          "internalType": "address",
          "name": "previousOwner",
          "type": "address"
        },
        {
          "indexed": true,
          "internalType": "address",
          "name": "newOwner",
          "type": "address"
        }
      ],
      "name": "OwnershipTransferred",
      "type": "event"
    },
    {
      "anonymous": false,
      "inputs": [
        {
          "indexed": false,
          "internalType": "address",
          "name": "account",
          "type": "address"
        }
      ],
      "name": "Paused",
      "type": "event"
    },
    {
      "anonymous": false,
      "inputs": [
        {
          "indexed": false,
          "internalType": "address",
          "name": "account",
          "type": "address"
        }
      ],
      "name": "Unpaused",
      "type": "event"
    },
    {
      "inputs": [
        {
          "internalType": "contract NoPregoNFT",
          "name": "_nft",
          "type": "address"
        },
        {
          "internalType": "uint256",
          "name": "_tokenid",
          "type": "uint256"
        }
      ],
      "name": "depositaColateral",
      "outputs": [
        {
          "internalType": "bool",
          "name": "b",
          "type": "bool"
        }
      ],
      "stateMutability": "nonpayable",
      "type": "function"
    },
    {
      "inputs": [
        {
          "internalType": "contract IERC20",
          "name": "_token",
          "type": "address"
        },
        {
          "internalType": "uint256",
          "name": "_valor",
          "type": "uint256"
        }
      ],
      "name": "depositaNoCofre",
      "outputs": [
        {
          "internalType": "bool",
          "name": "status",
          "type": "bool"
        }
      ],
      "stateMutability": "nonpayable",
      "type": "function"
    },
    {
      "inputs": [
        {
          "internalType": "address",
          "name": "_tomador",
          "type": "address"
        }
      ],
      "name": "getColaterais",
      "outputs": [
        {
          "internalType": "uint256[]",
          "name": "nfts",
          "type": "uint256[]"
        }
      ],
      "stateMutability": "view",
      "type": "function"
    },
    {
      "inputs": [],
      "name": "getDescricao",
      "outputs": [
        {
          "internalType": "string",
          "name": "d",
          "type": "string"
        }
      ],
      "stateMutability": "view",
      "type": "function"
    },
    {
      "inputs": [
        {
          "internalType": "address",
          "name": "_tomador",
          "type": "address"
        }
      ],
      "name": "getGarantias",
      "outputs": [
        {
          "internalType": "uint256",
          "name": "g",
          "type": "uint256"
        }
      ],
      "stateMutability": "view",
      "type": "function"
    },
    {
      "inputs": [],
      "name": "getLoanERC20Denomination",
      "outputs": [
        {
          "internalType": "contract IERC20",
          "name": "",
          "type": "address"
        }
      ],
      "stateMutability": "view",
      "type": "function"
    },
    {
      "inputs": [],
      "name": "getPrazoVencimnento",
      "outputs": [
        {
          "components": [
            {
              "internalType": "uint256",
              "name": "ano",
              "type": "uint256"
            },
            {
              "internalType": "uint256",
              "name": "mes",
              "type": "uint256"
            },
            {
              "internalType": "uint256",
              "name": "dia",
              "type": "uint256"
            },
            {
              "internalType": "uint256",
              "name": "hora",
              "type": "uint256"
            },
            {
              "internalType": "uint256",
              "name": "minuto",
              "type": "uint256"
            },
            {
              "internalType": "uint256",
              "name": "segundo",
              "type": "uint256"
            }
          ],
          "internalType": "struct Vault.DateTime",
          "name": "p",
          "type": "tuple"
        }
      ],
      "stateMutability": "view",
      "type": "function"
    },
    {
      "inputs": [],
      "name": "getTokenAceito",
      "outputs": [
        {
          "internalType": "contract IERC20",
          "name": "t",
          "type": "address"
        }
      ],
      "stateMutability": "view",
      "type": "function"
    },
    {
      "inputs": [],
      "name": "getValorTotalDepositado",
      "outputs": [
        {
          "internalType": "uint256",
          "name": "v",
          "type": "uint256"
        }
      ],
      "stateMutability": "view",
      "type": "function"
    },
    {
      "inputs": [],
      "name": "isVencido",
      "outputs": [
        {
          "internalType": "bool",
          "name": "b",
          "type": "bool"
        }
      ],
      "stateMutability": "view",
      "type": "function"
    },
    {
      "inputs": [],
      "name": "owner",
      "outputs": [
        {
          "internalType": "address",
          "name": "",
          "type": "address"
        }
      ],
      "stateMutability": "view",
      "type": "function"
    },
    {
      "inputs": [],
      "name": "paused",
      "outputs": [
        {
          "internalType": "bool",
          "name": "",
          "type": "bool"
        }
      ],
      "stateMutability": "view",
      "type": "function"
    },
    {
      "inputs": [],
      "name": "renounceOwnership",
      "outputs": [],
      "stateMutability": "nonpayable",
      "type": "function"
    },
    {
      "inputs": [
        {
          "internalType": "uint256",
          "name": "_ano",
          "type": "uint256"
        },
        {
          "internalType": "uint256",
          "name": "_mes",
          "type": "uint256"
        },
        {
          "internalType": "uint256",
          "name": "_dia",
          "type": "uint256"
        },
        {
          "internalType": "uint256",
          "name": "_hora",
          "type": "uint256"
        },
        {
          "internalType": "uint256",
          "name": "_minuto",
          "type": "uint256"
        },
        {
          "internalType": "uint256",
          "name": "_segundo",
          "type": "uint256"
        }
      ],
      "name": "setDataHoraVencimento",
      "outputs": [],
      "stateMutability": "nonpayable",
      "type": "function"
    },
    {
      "inputs": [
        {
          "internalType": "uint256",
          "name": "_ano",
          "type": "uint256"
        },
        {
          "internalType": "uint256",
          "name": "_mes",
          "type": "uint256"
        },
        {
          "internalType": "uint256",
          "name": "_dia",
          "type": "uint256"
        }
      ],
      "name": "setDataVencimento",
      "outputs": [],
      "stateMutability": "nonpayable",
      "type": "function"
    },
    {
      "inputs": [
        {
          "internalType": "string",
          "name": "_d",
          "type": "string"
        }
      ],
      "name": "setDescricao",
      "outputs": [],
      "stateMutability": "nonpayable",
      "type": "function"
    },
    {
      "inputs": [
        {
          "internalType": "contract IERC20",
          "name": "_a",
          "type": "address"
        }
      ],
      "name": "setTokenAceito",
      "outputs": [],
      "stateMutability": "nonpayable",
      "type": "function"
    },
    {
      "inputs": [
        {
          "internalType": "address",
          "name": "newOwner",
          "type": "address"
        }
      ],
      "name": "transferOwnership",
      "outputs": [],
      "stateMutability": "nonpayable",
      "type": "function"
    }
  ],
  "bytecode": "0x6080604052600a80546001600160a01b0319167394a9d9ac8a22534e3faca9f4e7f2e2cf85d5e4c81790556000600b819055600c553480156200004157600080fd5b5033806200006a57604051631e4fbdf760e01b8152600060048201526024015b60405180910390fd5b6200007581620000ac565b506000805460ff60a01b1916905560018055620000a67394a9d9ac8a22534e3faca9f4e7f2e2cf85d5e4c8620000fc565b62000159565b600080546001600160a01b038381166001600160a01b0319831681178455604051919092169283917f8be0079c531659141344cd1fd0a4f28419497f9722a3daafe3b4186f6b6457e09190a35050565b6200010662000128565b600a80546001600160a01b0319166001600160a01b0392909216919091179055565b6000546001600160a01b03163314620001575760405163118cdaa760e01b815233600482015260240162000061565b565b6117fc80620001696000396000f3fe608060405234801561001057600080fd5b50600436106101165760003560e01c8063a5e130c0116100a2578063ef51a49311610071578063ef51a49314610260578063f2fde38b14610273578063f301dda914610286578063f37ec3a1146102a6578063fda68c91146102ae57600080fd5b8063a5e130c0146101dd578063b01ddf8514610228578063d9dd55331461023a578063ed3210951461024d57600080fd5b80636767d67a116100e95780636767d67a146101c2578063715018a6146101d557806381f97e5f146101dd5780638279ac7c146102025780638da5cb5b1461021757600080fd5b8063191113d71461011b5780631df84ff714610130578063368d20371461018d5780635c975abb146101b0575b600080fd5b61012e6101293660046112cb565b6102d7565b005b610138610352565b6040516101849190600060c082019050825182526020830151602083015260408301516040830152606083015160608301526080830151608083015260a083015160a083015292915050565b60405180910390f35b6101a061019b366004611323565b6103c8565b6040519015158152602001610184565b600054600160a01b900460ff166101a0565b61012e6101d036600461134f565b6104f9565b61012e610566565b600a546001600160a01b03165b6040516001600160a01b039091168152602001610184565b61020a61057a565b604051610184919061139f565b6000546001600160a01b03166101ea565b600b545b604051908152602001610184565b61012e6102483660046113e8565b61060c565b6101a061025b366004611323565b610624565b61012e61026e366004611499565b6109ca565b61012e610281366004611499565b6109f4565b610299610294366004611499565b610a32565b60405161018491906114b6565b6101a0610a9e565b61022c6102bc366004611499565b6001600160a01b031660009081526010602052604090205490565b6102df610ae2565b6102ed868686868686610b0f565b6103355760405162461bcd60e51b8152602060048201526014602482015273646174612f686f726120696e76616c696461732160601b60448201526064015b60405180910390fd5b600395909555600493909355600591909155600655600755600855565b61038b6040518060c001604052806000815260200160008152602001600081526020016000815260200160008152602001600081525090565b506040805160c08101825260035481526004546020820152600554918101919091526006546060820152600754608082015260085460a082015290565b336000818152600f6020908152604080832080546001810182559084529183209091018490555163d70faf6160e01b8152600481018490529091906001600160a01b0385169063d70faf6190602401602060405180830381865afa158015610434573d6000803e3d6000fd5b505050506040513d601f19601f8201168201806040525081019061045891906114fa565b6001600160a01b03821660009081526010602052604081208054909190610480908490611529565b90915550506040516317d5759960e31b81526001600160a01b0382811660048301523060248301526044820185905285169063beabacc890606401600060405180830381600087803b1580156104d557600080fd5b505af11580156104e9573d6000803e3d6000fd5b5050505060019150505b92915050565b610501610ae2565b61050c838383610b50565b6105495760405162461bcd60e51b815260206004820152600e60248201526d6461746120696e76616c6964612160901b604482015260640161032c565b600392909255600455600555600060068190556007819055600855565b61056e610ae2565b6105786000610ba7565b565b6060600980546105899061153c565b80601f01602080910402602001604051908101604052809291908181526020018280546105b59061153c565b80156106025780601f106105d757610100808354040283529160200191610602565b820191906000526020600020905b8154815290600101906020018083116105e557829003601f168201915b5050505050905090565b610614610ae2565b600961062082826115c6565b5050565b60003361062f61126b565b6001600160a01b0380861680835260208301869052600a54909116146106885760405162461bcd60e51b815260206004820152600e60248201526d746f6b656e20696e76616c69646f60901b604482015260640161032c565b60008160200151116106ea5760405162461bcd60e51b815260206004820152602560248201527f7175616e746964616465206465706f73697461646120696e666572696f722061604482015264207a65726f60d81b606482015260840161032c565b80516040516370a0823160e01b81523060048201526000916001600160a01b0316906370a0823190602401602060405180830381865afa158015610732573d6000803e3d6000fd5b505050506040513d601f19601f8201168201806040525081019061075691906114fa565b905061076c826000015184308560200151610bf7565b81516040516370a0823160e01b81523060048201526000916001600160a01b0316906370a0823190602401602060405180830381865afa1580156107b4573d6000803e3d6000fd5b505050506040513d601f19601f820116820180604052508101906107d891906114fa565b90508260200151826107ea9190611529565b81146108485760405162461bcd60e51b815260206004820152602760248201527f53616c646f2066696e616c206e616f20636f72726573706f6e646520616f20656044820152667370657261646f60c81b606482015260840161032c565b60008060008060008061085a42610c57565b9550955095509550955095508589604001516000018181525050848960400151602001818152505083896040015160400181815250508289604001516060018181525050818960400151608001818152505080896040015160a001818152505088600e60008c6001600160a01b03166001600160a01b0316815260200190815260200160002060008201518160000160006101000a8154816001600160a01b0302191690836001600160a01b0316021790555060208201518160010155604082015181600201600082015181600001556020820151816001015560408201518160020155606082015181600301556080820151816004015560a08201518160050155505090505061097389600001518a60200151610ccb565b6109b75760405162461bcd60e51b81526020600482015260156024820152746465706f7369746f206d616c20737563656469646f60581b604482015260640161032c565b5060019c9b505050505050505050505050565b6109d2610ae2565b600a80546001600160a01b0319166001600160a01b0392909216919091179055565b6109fc610ae2565b6001600160a01b038116610a2657604051631e4fbdf760e01b81526000600482015260240161032c565b610a2f81610ba7565b50565b6001600160a01b0381166000908152600f6020908152604091829020805483518184028101840190945280845260609392830182828015610a9257602002820191906000526020600020905b815481526020019060010190808311610a7e575b50505050509050919050565b60035460045460055460065460075460085460009542958795610ac8959294919390929190610d3c565b9050808210610ad8576001610adb565b60005b9250505090565b6000546001600160a01b031633146105785760405163118cdaa760e01b815233600482015260240161032c565b6000610b1c878787610b50565b15610b4657601884108015610b315750603c83105b8015610b3d5750603c82105b15610b46575060015b9695505050505050565b60006107b28410158015610b645750600083115b8015610b715750600c8311155b15610ba0576000610b828585610d98565b9050600083118015610b945750808311155b15610b9e57600191505b505b9392505050565b600080546001600160a01b038381166001600160a01b0319831681178455604051919092169283917f8be0079c531659141344cd1fd0a4f28419497f9722a3daafe3b4186f6b6457e09190a35050565b604080516001600160a01b0385811660248301528416604482015260648082018490528251808303909101815260849091019091526020810180516001600160e01b03166323b872dd60e01b179052610c51908590610e1e565b50505050565b60008080808080610c73610c6e620151808961169c565b610e86565b919750955093506000610c8962015180896116b0565b9050610c97610e108261169c565b9350610ca5610e10826116b0565b9050610cb2603c8261169c565b9250610cbf603c826116b0565b91505091939550919395565b600a546000906001600160a01b03848116911614610d1c5760405162461bcd60e51b815260206004820152600e60248201526d746f6b656e20696e76616c69646f60901b604482015260640161032c565b81600b6000828254610d2e9190611529565b909155506001949350505050565b600081610d4a603c856116c4565b610d56610e10876116c4565b62015180610d658b8b8b610ffa565b610d6f91906116c4565b610d799190611529565b610d839190611529565b610d8d9190611529565b979650505050505050565b60008160011480610da95750816003145b80610db45750816005145b80610dbf5750816007145b80610dca5750816008145b80610dd5575081600a145b80610de0575081600c145b15610ded5750601f6104f3565b81600214610dfd5750601e6104f3565b610e0683611137565b610e1157601c610e14565b601d5b60ff169392505050565b6000610e336001600160a01b03841683611173565b90508051600014158015610e58575080806020019051810190610e5691906116db565b155b15610e8157604051635274afe760e01b81526001600160a01b038416600482015260240161032c565b505050565b60008080838162253d8c610e9d8362010bd96116fd565b610ea791906116fd565b9050600062023ab1610eba836004611725565b610ec49190611755565b90506004610ed58262023ab1611725565b610ee09060036116fd565b610eea9190611755565b610ef49083611783565b9150600062164b09610f078460016116fd565b610f1390610fa0611725565b610f1d9190611755565b90506004610f2d826105b5611725565b610f379190611755565b610f419084611783565b610f4c90601f6116fd565b9250600061098f610f5e856050611725565b610f689190611755565b905060006050610f7a8361098f611725565b610f849190611755565b610f8e9086611783565b9050610f9b600b83611755565b9450610fa885600c611725565b610fb38360026116fd565b610fbd9190611783565b91508483610fcc603187611783565b610fd7906064611725565b610fe191906116fd565b610feb91906116fd565b9a919950975095505050505050565b60006107b284101561100b57600080fd5b838383600062253d8c60046064600c611025600e88611783565b61102f9190611755565b61103b886113246116fd565b61104591906116fd565b61104f9190611755565b61105a906003611725565b6110649190611755565b600c80611072600e88611783565b61107c9190611755565b61108790600c611725565b611092600288611783565b61109c9190611783565b6110a89061016f611725565b6110b29190611755565b6004600c6110c1600e89611783565b6110cb9190611755565b6110d7896112c06116fd565b6110e191906116fd565b6110ed906105b5611725565b6110f79190611755565b611103617d4b87611783565b61110d91906116fd565b61111791906116fd565b6111219190611783565b61112b9190611783565b98975050505050505050565b60006111446004836116b0565b15801561115a57506111576064836116b0565b15155b806104f3575061116c610190836116b0565b1592915050565b6060610ba08383600084600080856001600160a01b0316848660405161119991906117aa565b60006040518083038185875af1925050503d80600081146111d6576040519150601f19603f3d011682016040523d82523d6000602084013e6111db565b606091505b5091509150610b468683836060826111fb576111f682611242565b610ba0565b815115801561121257506001600160a01b0384163b155b1561123b57604051639996b31560e01b81526001600160a01b038516600482015260240161032c565b5080610ba0565b8051156112525780518082602001fd5b604051630a12f52160e11b815260040160405180910390fd5b604051806060016040528060006001600160a01b03168152602001600081526020016112c66040518060c001604052806000815260200160008152602001600081526020016000815260200160008152602001600081525090565b905290565b60008060008060008060c087890312156112e457600080fd5b505084359660208601359650604086013595606081013595506080810135945060a0013592509050565b6001600160a01b0381168114610a2f57600080fd5b6000806040838503121561133657600080fd5b82356113418161130e565b946020939093013593505050565b60008060006060848603121561136457600080fd5b505081359360208301359350604090920135919050565b60005b8381101561139657818101518382015260200161137e565b50506000910152565b60208152600082518060208401526113be81604085016020870161137b565b601f01601f19169190910160400192915050565b634e487b7160e01b600052604160045260246000fd5b6000602082840312156113fa57600080fd5b813567ffffffffffffffff8082111561141257600080fd5b818401915084601f83011261142657600080fd5b813581811115611438576114386113d2565b604051601f8201601f19908116603f01168101908382118183101715611460576114606113d2565b8160405282815287602084870101111561147957600080fd5b826020860160208301376000928101602001929092525095945050505050565b6000602082840312156114ab57600080fd5b8135610ba08161130e565b6020808252825182820181905260009190848201906040850190845b818110156114ee578351835292840192918401916001016114d2565b50909695505050505050565b60006020828403121561150c57600080fd5b5051919050565b634e487b7160e01b600052601160045260246000fd5b808201808211156104f3576104f3611513565b600181811c9082168061155057607f821691505b60208210810361157057634e487b7160e01b600052602260045260246000fd5b50919050565b601f821115610e81576000816000526020600020601f850160051c8101602086101561159f5750805b601f850160051c820191505b818110156115be578281556001016115ab565b505050505050565b815167ffffffffffffffff8111156115e0576115e06113d2565b6115f4816115ee845461153c565b84611576565b602080601f83116001811461162957600084156116115750858301515b600019600386901b1c1916600185901b1785556115be565b600085815260208120601f198616915b8281101561165857888601518255948401946001909101908401611639565b50858210156116765787850151600019600388901b60f8161c191681555b5050505050600190811b01905550565b634e487b7160e01b600052601260045260246000fd5b6000826116ab576116ab611686565b500490565b6000826116bf576116bf611686565b500690565b80820281158282048414176104f3576104f3611513565b6000602082840312156116ed57600080fd5b81518015158114610ba057600080fd5b808201828112600083128015821682158216171561171d5761171d611513565b505092915050565b80820260008212600160ff1b8414161561174157611741611513565b81810583148215176104f3576104f3611513565b60008261176457611764611686565b600160ff1b82146000198414161561177e5761177e611513565b500590565b81810360008312801583831316838312821617156117a3576117a3611513565b5092915050565b600082516117bc81846020870161137b565b919091019291505056fea2646970667358221220abaa6a4853d0817b5a60fa3583450fb2465e1d79faf37126ce3aa45b59f6b3b964736f6c63430008180033",
  "linkReferences": {},
  "deployedLinkReferences": {}
}