{
  "_format": "hh-sol-artifact-1",
  "contractName": "Vault",
  "sourceName": "contracts/Vault.sol",
  "abi": [
    {
      "inputs": [],
      "stateMutability": "nonpayable",
      "type": "constructor"
    },
    {
      "inputs": [
        {
          "internalType": "address",
          "name": "target",
          "type": "address"
        }
      ],
      "name": "AddressEmptyCode",
      "type": "error"
    },
    {
      "inputs": [
        {
          "internalType": "address",
          "name": "account",
          "type": "address"
        }
      ],
      "name": "AddressInsufficientBalance",
      "type": "error"
    },
    {
      "inputs": [],
      "name": "EnforcedPause",
      "type": "error"
    },
    {
      "inputs": [],
      "name": "ExpectedPause",
      "type": "error"
    },
    {
      "inputs": [],
      "name": "FailedInnerCall",
      "type": "error"
    },
    {
      "inputs": [
        {
          "internalType": "address",
          "name": "owner",
          "type": "address"
        }
      ],
      "name": "OwnableInvalidOwner",
      "type": "error"
    },
    {
      "inputs": [
        {
          "internalType": "address",
          "name": "account",
          "type": "address"
        }
      ],
      "name": "OwnableUnauthorizedAccount",
      "type": "error"
    },
    {
      "inputs": [],
      "name": "ReentrancyGuardReentrantCall",
      "type": "error"
    },
    {
      "inputs": [
        {
          "internalType": "address",
          "name": "token",
          "type": "address"
        }
      ],
      "name": "SafeERC20FailedOperation",
      "type": "error"
    },
    {
      "anonymous": false,
      "inputs": [
        {
          "indexed": true,
          "internalType": "address",
          "name": "previousOwner",
          "type": "address"
        },
        {
          "indexed": true,
          "internalType": "address",
          "name": "newOwner",
          "type": "address"
        }
      ],
      "name": "OwnershipTransferred",
      "type": "event"
    },
    {
      "anonymous": false,
      "inputs": [
        {
          "indexed": false,
          "internalType": "address",
          "name": "account",
          "type": "address"
        }
      ],
      "name": "Paused",
      "type": "event"
    },
    {
      "anonymous": false,
      "inputs": [
        {
          "indexed": false,
          "internalType": "address",
          "name": "account",
          "type": "address"
        }
      ],
      "name": "Unpaused",
      "type": "event"
    },
    {
      "inputs": [
        {
          "internalType": "uint256",
          "name": "_tokenid",
          "type": "uint256"
        }
      ],
      "name": "depositaColateral",
      "outputs": [
        {
          "internalType": "bool",
          "name": "b",
          "type": "bool"
        }
      ],
      "stateMutability": "nonpayable",
      "type": "function"
    },
    {
      "inputs": [
        {
          "internalType": "contract IERC20",
          "name": "_token",
          "type": "address"
        },
        {
          "internalType": "uint256",
          "name": "_valor",
          "type": "uint256"
        }
      ],
      "name": "depositaNoCofre",
      "outputs": [
        {
          "internalType": "bool",
          "name": "status",
          "type": "bool"
        }
      ],
      "stateMutability": "nonpayable",
      "type": "function"
    },
    {
      "inputs": [
        {
          "internalType": "address",
          "name": "_tomador",
          "type": "address"
        }
      ],
      "name": "getColaterais",
      "outputs": [
        {
          "internalType": "uint256[]",
          "name": "nfts",
          "type": "uint256[]"
        }
      ],
      "stateMutability": "view",
      "type": "function"
    },
    {
      "inputs": [],
      "name": "getDescricao",
      "outputs": [
        {
          "internalType": "string",
          "name": "d",
          "type": "string"
        }
      ],
      "stateMutability": "view",
      "type": "function"
    },
    {
      "inputs": [
        {
          "internalType": "address",
          "name": "_tomador",
          "type": "address"
        }
      ],
      "name": "getGarantias",
      "outputs": [
        {
          "internalType": "uint256",
          "name": "g",
          "type": "uint256"
        }
      ],
      "stateMutability": "view",
      "type": "function"
    },
    {
      "inputs": [],
      "name": "getLoanERC20Denomination",
      "outputs": [
        {
          "internalType": "contract IERC20",
          "name": "",
          "type": "address"
        }
      ],
      "stateMutability": "view",
      "type": "function"
    },
    {
      "inputs": [],
      "name": "getPrazoVencimnento",
      "outputs": [
        {
          "components": [
            {
              "internalType": "uint256",
              "name": "ano",
              "type": "uint256"
            },
            {
              "internalType": "uint256",
              "name": "mes",
              "type": "uint256"
            },
            {
              "internalType": "uint256",
              "name": "dia",
              "type": "uint256"
            },
            {
              "internalType": "uint256",
              "name": "hora",
              "type": "uint256"
            },
            {
              "internalType": "uint256",
              "name": "minuto",
              "type": "uint256"
            },
            {
              "internalType": "uint256",
              "name": "segundo",
              "type": "uint256"
            }
          ],
          "internalType": "struct Vault.DateTime",
          "name": "p",
          "type": "tuple"
        }
      ],
      "stateMutability": "view",
      "type": "function"
    },
    {
      "inputs": [],
      "name": "getTokenAceito",
      "outputs": [
        {
          "internalType": "contract IERC20",
          "name": "t",
          "type": "address"
        }
      ],
      "stateMutability": "view",
      "type": "function"
    },
    {
      "inputs": [],
      "name": "getValorTotalDepositado",
      "outputs": [
        {
          "internalType": "uint256",
          "name": "v",
          "type": "uint256"
        }
      ],
      "stateMutability": "view",
      "type": "function"
    },
    {
      "inputs": [],
      "name": "isVencido",
      "outputs": [
        {
          "internalType": "bool",
          "name": "b",
          "type": "bool"
        }
      ],
      "stateMutability": "view",
      "type": "function"
    },
    {
      "inputs": [],
      "name": "owner",
      "outputs": [
        {
          "internalType": "address",
          "name": "",
          "type": "address"
        }
      ],
      "stateMutability": "view",
      "type": "function"
    },
    {
      "inputs": [],
      "name": "paused",
      "outputs": [
        {
          "internalType": "bool",
          "name": "",
          "type": "bool"
        }
      ],
      "stateMutability": "view",
      "type": "function"
    },
    {
      "inputs": [],
      "name": "renounceOwnership",
      "outputs": [],
      "stateMutability": "nonpayable",
      "type": "function"
    },
    {
      "inputs": [
        {
          "internalType": "uint256",
          "name": "_ano",
          "type": "uint256"
        },
        {
          "internalType": "uint256",
          "name": "_mes",
          "type": "uint256"
        },
        {
          "internalType": "uint256",
          "name": "_dia",
          "type": "uint256"
        },
        {
          "internalType": "uint256",
          "name": "_hora",
          "type": "uint256"
        },
        {
          "internalType": "uint256",
          "name": "_minuto",
          "type": "uint256"
        },
        {
          "internalType": "uint256",
          "name": "_segundo",
          "type": "uint256"
        }
      ],
      "name": "setDataHoraVencimento",
      "outputs": [],
      "stateMutability": "nonpayable",
      "type": "function"
    },
    {
      "inputs": [
        {
          "internalType": "uint256",
          "name": "_ano",
          "type": "uint256"
        },
        {
          "internalType": "uint256",
          "name": "_mes",
          "type": "uint256"
        },
        {
          "internalType": "uint256",
          "name": "_dia",
          "type": "uint256"
        }
      ],
      "name": "setDataVencimento",
      "outputs": [],
      "stateMutability": "nonpayable",
      "type": "function"
    },
    {
      "inputs": [
        {
          "internalType": "string",
          "name": "_d",
          "type": "string"
        }
      ],
      "name": "setDescricao",
      "outputs": [],
      "stateMutability": "nonpayable",
      "type": "function"
    },
    {
      "inputs": [
        {
          "internalType": "contract IERC20",
          "name": "_a",
          "type": "address"
        }
      ],
      "name": "setTokenAceito",
      "outputs": [],
      "stateMutability": "nonpayable",
      "type": "function"
    },
    {
      "inputs": [
        {
          "internalType": "address",
          "name": "newOwner",
          "type": "address"
        }
      ],
      "name": "transferOwnership",
      "outputs": [],
      "stateMutability": "nonpayable",
      "type": "function"
    }
  ],
  "bytecode": "0x6080604052600a80546001600160a01b03199081167394a9d9ac8a22534e3faca9f4e7f2e2cf85d5e4c8179091556000600b819055600c55600f80549091167360890af564996d9bbf04ab5f17b6cb39ce2a31531790553480156200006357600080fd5b5033806200008c57604051631e4fbdf760e01b8152600060048201526024015b60405180910390fd5b6200009781620000ce565b506000805460ff60a01b1916905560018055620000c87394a9d9ac8a22534e3faca9f4e7f2e2cf85d5e4c86200011e565b6200017b565b600080546001600160a01b038381166001600160a01b0319831681178455604051919092169283917f8be0079c531659141344cd1fd0a4f28419497f9722a3daafe3b4186f6b6457e09190a35050565b620001286200014a565b600a80546001600160a01b0319166001600160a01b0392909216919091179055565b6000546001600160a01b03163314620001795760405163118cdaa760e01b815233600482015260240162000083565b565b61181d806200018b6000396000f3fe608060405234801561001057600080fd5b50600436106101165760003560e01c8063a5e130c0116100a2578063ef51a49311610071578063ef51a49314610260578063f2fde38b14610273578063f301dda914610286578063f37ec3a1146102a6578063fda68c91146102ae57600080fd5b8063a5e130c0146101dd578063b01ddf8514610228578063d9dd55331461023a578063ed3210951461024d57600080fd5b80636767d67a116100e95780636767d67a146101c2578063715018a6146101d557806381f97e5f146101dd5780638279ac7c146102025780638da5cb5b1461021757600080fd5b8063191113d71461011b5780631df84ff714610130578063486d01d81461018d5780635c975abb146101b0575b600080fd5b61012e6101293660046112d3565b6102d7565b005b610138610352565b6040516101849190600060c082019050825182526020830151602083015260408301516040830152606083015160608301526080830151608083015260a083015160a083015292915050565b60405180910390f35b6101a061019b366004611316565b6103c8565b6040519015158152602001610184565b600054600160a01b900460ff166101a0565b61012e6101d036600461132f565b6104ff565b61012e61056c565b600a546001600160a01b03165b6040516001600160a01b039091168152602001610184565b61020a610580565b604051610184919061137f565b6000546001600160a01b03166101ea565b600b545b604051908152602001610184565b61012e6102483660046113c8565b610612565b6101a061025b36600461148e565b61062a565b61012e61026e3660046114ba565b6109d2565b61012e6102813660046114ba565b6109fc565b6102996102943660046114ba565b610a3a565b60405161018491906114d7565b6101a0610aa6565b61022c6102bc3660046114ba565b6001600160a01b031660009081526011602052604090205490565b6102df610aea565b6102ed868686868686610b17565b6103355760405162461bcd60e51b8152602060048201526014602482015273646174612f686f726120696e76616c696461732160601b60448201526064015b60405180910390fd5b600395909555600493909355600591909155600655600755600855565b61038b6040518060c001604052806000815260200160008152602001600081526020016000815260200160008152602001600081525090565b506040805160c08101825260035481526004546020820152600554918101919091526006546060820152600754608082015260085460a082015290565b3360008181526010602090815260408083208054600181018255908452918320909101849055600f54905163d70faf6160e01b8152600481018590529192916001600160a01b039091169063d70faf6190602401602060405180830381865afa158015610439573d6000803e3d6000fd5b505050506040513d601f19601f8201168201806040525081019061045d919061151b565b6001600160a01b0382166000908152601160205260408120805490919061048590849061154a565b9091555050600f546040516317d5759960e31b81526001600160a01b038381166004830152306024830152604482018690529091169063beabacc890606401600060405180830381600087803b1580156104de57600080fd5b505af11580156104f2573d6000803e3d6000fd5b5060019695505050505050565b610507610aea565b610512838383610b58565b61054f5760405162461bcd60e51b815260206004820152600e60248201526d6461746120696e76616c6964612160901b604482015260640161032c565b600392909255600455600555600060068190556007819055600855565b610574610aea565b61057e6000610baf565b565b60606009805461058f9061155d565b80601f01602080910402602001604051908101604052809291908181526020018280546105bb9061155d565b80156106085780601f106105dd57610100808354040283529160200191610608565b820191906000526020600020905b8154815290600101906020018083116105eb57829003601f168201915b5050505050905090565b61061a610aea565b600961062682826115e7565b5050565b600033610635611273565b6001600160a01b0380861680835260208301869052600a549091161461068e5760405162461bcd60e51b815260206004820152600e60248201526d746f6b656e20696e76616c69646f60901b604482015260640161032c565b60008160200151116106f05760405162461bcd60e51b815260206004820152602560248201527f7175616e746964616465206465706f73697461646120696e666572696f722061604482015264207a65726f60d81b606482015260840161032c565b80516040516370a0823160e01b81523060048201526000916001600160a01b0316906370a0823190602401602060405180830381865afa158015610738573d6000803e3d6000fd5b505050506040513d601f19601f8201168201806040525081019061075c919061151b565b9050610772826000015184308560200151610bff565b81516040516370a0823160e01b81523060048201526000916001600160a01b0316906370a0823190602401602060405180830381865afa1580156107ba573d6000803e3d6000fd5b505050506040513d601f19601f820116820180604052508101906107de919061151b565b90508260200151826107f0919061154a565b811461084e5760405162461bcd60e51b815260206004820152602760248201527f53616c646f2066696e616c206e616f20636f72726573706f6e646520616f20656044820152667370657261646f60c81b606482015260840161032c565b60008060008060008061086042610c5f565b9550955095509550955095508589604001516000018181525050848960400151602001818152505083896040015160400181815250508289604001516060018181525050818960400151608001818152505080896040015160a001818152505088600e60008c6001600160a01b03166001600160a01b0316815260200190815260200160002060008201518160000160006101000a8154816001600160a01b0302191690836001600160a01b0316021790555060208201518160010155604082015181600201600082015181600001556020820151816001015560408201518160020155606082015181600301556080820151816004015560a08201518160050155505090505061097989600001518a60200151610cd3565b6109bd5760405162461bcd60e51b81526020600482015260156024820152746465706f7369746f206d616c20737563656469646f60581b604482015260640161032c565b60019a50505050505050505050505b92915050565b6109da610aea565b600a80546001600160a01b0319166001600160a01b0392909216919091179055565b610a04610aea565b6001600160a01b038116610a2e57604051631e4fbdf760e01b81526000600482015260240161032c565b610a3781610baf565b50565b6001600160a01b038116600090815260106020908152604091829020805483518184028101840190945280845260609392830182828015610a9a57602002820191906000526020600020905b815481526020019060010190808311610a86575b50505050509050919050565b60035460045460055460065460075460085460009542958795610ad0959294919390929190610d44565b9050808210610ae0576001610ae3565b60005b9250505090565b6000546001600160a01b0316331461057e5760405163118cdaa760e01b815233600482015260240161032c565b6000610b24878787610b58565b15610b4e57601884108015610b395750603c83105b8015610b455750603c82105b15610b4e575060015b9695505050505050565b60006107b28410158015610b6c5750600083115b8015610b795750600c8311155b15610ba8576000610b8a8585610da0565b9050600083118015610b9c5750808311155b15610ba657600191505b505b9392505050565b600080546001600160a01b038381166001600160a01b0319831681178455604051919092169283917f8be0079c531659141344cd1fd0a4f28419497f9722a3daafe3b4186f6b6457e09190a35050565b604080516001600160a01b0385811660248301528416604482015260648082018490528251808303909101815260849091019091526020810180516001600160e01b03166323b872dd60e01b179052610c59908590610e26565b50505050565b60008080808080610c7b610c7662015180896116bd565b610e8e565b919750955093506000610c9162015180896116d1565b9050610c9f610e10826116bd565b9350610cad610e10826116d1565b9050610cba603c826116bd565b9250610cc7603c826116d1565b91505091939550919395565b600a546000906001600160a01b03848116911614610d245760405162461bcd60e51b815260206004820152600e60248201526d746f6b656e20696e76616c69646f60901b604482015260640161032c565b81600b6000828254610d36919061154a565b909155506001949350505050565b600081610d52603c856116e5565b610d5e610e10876116e5565b62015180610d6d8b8b8b611002565b610d7791906116e5565b610d81919061154a565b610d8b919061154a565b610d95919061154a565b979650505050505050565b60008160011480610db15750816003145b80610dbc5750816005145b80610dc75750816007145b80610dd25750816008145b80610ddd575081600a145b80610de8575081600c145b15610df55750601f6109cc565b81600214610e055750601e6109cc565b610e0e8361113f565b610e1957601c610e1c565b601d5b60ff169392505050565b6000610e3b6001600160a01b0384168361117b565b90508051600014158015610e60575080806020019051810190610e5e91906116fc565b155b15610e8957604051635274afe760e01b81526001600160a01b038416600482015260240161032c565b505050565b60008080838162253d8c610ea58362010bd961171e565b610eaf919061171e565b9050600062023ab1610ec2836004611746565b610ecc9190611776565b90506004610edd8262023ab1611746565b610ee890600361171e565b610ef29190611776565b610efc90836117a4565b9150600062164b09610f0f84600161171e565b610f1b90610fa0611746565b610f259190611776565b90506004610f35826105b5611746565b610f3f9190611776565b610f4990846117a4565b610f5490601f61171e565b9250600061098f610f66856050611746565b610f709190611776565b905060006050610f828361098f611746565b610f8c9190611776565b610f9690866117a4565b9050610fa3600b83611776565b9450610fb085600c611746565b610fbb83600261171e565b610fc591906117a4565b91508483610fd46031876117a4565b610fdf906064611746565b610fe9919061171e565b610ff3919061171e565b9a919950975095505050505050565b60006107b284101561101357600080fd5b838383600062253d8c60046064600c61102d600e886117a4565b6110379190611776565b6110438861132461171e565b61104d919061171e565b6110579190611776565b611062906003611746565b61106c9190611776565b600c8061107a600e886117a4565b6110849190611776565b61108f90600c611746565b61109a6002886117a4565b6110a491906117a4565b6110b09061016f611746565b6110ba9190611776565b6004600c6110c9600e896117a4565b6110d39190611776565b6110df896112c061171e565b6110e9919061171e565b6110f5906105b5611746565b6110ff9190611776565b61110b617d4b876117a4565b611115919061171e565b61111f919061171e565b61112991906117a4565b61113391906117a4565b98975050505050505050565b600061114c6004836116d1565b158015611162575061115f6064836116d1565b15155b806109cc5750611174610190836116d1565b1592915050565b6060610ba88383600084600080856001600160a01b031684866040516111a191906117cb565b60006040518083038185875af1925050503d80600081146111de576040519150601f19603f3d011682016040523d82523d6000602084013e6111e3565b606091505b5091509150610b4e868383606082611203576111fe8261124a565b610ba8565b815115801561121a57506001600160a01b0384163b155b1561124357604051639996b31560e01b81526001600160a01b038516600482015260240161032c565b5080610ba8565b80511561125a5780518082602001fd5b604051630a12f52160e11b815260040160405180910390fd5b604051806060016040528060006001600160a01b03168152602001600081526020016112ce6040518060c001604052806000815260200160008152602001600081526020016000815260200160008152602001600081525090565b905290565b60008060008060008060c087890312156112ec57600080fd5b505084359660208601359650604086013595606081013595506080810135945060a0013592509050565b60006020828403121561132857600080fd5b5035919050565b60008060006060848603121561134457600080fd5b505081359360208301359350604090920135919050565b60005b8381101561137657818101518382015260200161135e565b50506000910152565b602081526000825180602084015261139e81604085016020870161135b565b601f01601f19169190910160400192915050565b634e487b7160e01b600052604160045260246000fd5b6000602082840312156113da57600080fd5b813567ffffffffffffffff808211156113f257600080fd5b818401915084601f83011261140657600080fd5b813581811115611418576114186113b2565b604051601f8201601f19908116603f01168101908382118183101715611440576114406113b2565b8160405282815287602084870101111561145957600080fd5b826020860160208301376000928101602001929092525095945050505050565b6001600160a01b0381168114610a3757600080fd5b600080604083850312156114a157600080fd5b82356114ac81611479565b946020939093013593505050565b6000602082840312156114cc57600080fd5b8135610ba881611479565b6020808252825182820181905260009190848201906040850190845b8181101561150f578351835292840192918401916001016114f3565b50909695505050505050565b60006020828403121561152d57600080fd5b5051919050565b634e487b7160e01b600052601160045260246000fd5b808201808211156109cc576109cc611534565b600181811c9082168061157157607f821691505b60208210810361159157634e487b7160e01b600052602260045260246000fd5b50919050565b601f821115610e89576000816000526020600020601f850160051c810160208610156115c05750805b601f850160051c820191505b818110156115df578281556001016115cc565b505050505050565b815167ffffffffffffffff811115611601576116016113b2565b6116158161160f845461155d565b84611597565b602080601f83116001811461164a57600084156116325750858301515b600019600386901b1c1916600185901b1785556115df565b600085815260208120601f198616915b828110156116795788860151825594840194600190910190840161165a565b50858210156116975787850151600019600388901b60f8161c191681555b5050505050600190811b01905550565b634e487b7160e01b600052601260045260246000fd5b6000826116cc576116cc6116a7565b500490565b6000826116e0576116e06116a7565b500690565b80820281158282048414176109cc576109cc611534565b60006020828403121561170e57600080fd5b81518015158114610ba857600080fd5b808201828112600083128015821682158216171561173e5761173e611534565b505092915050565b80820260008212600160ff1b8414161561176257611762611534565b81810583148215176109cc576109cc611534565b600082611785576117856116a7565b600160ff1b82146000198414161561179f5761179f611534565b500590565b81810360008312801583831316838312821617156117c4576117c4611534565b5092915050565b600082516117dd81846020870161135b565b919091019291505056fea2646970667358221220966d8aeae5e1f13d55b76313e48e6e82db01eed02507dfaaaaf69f6e053a0caa64736f6c63430008180033",
  "linkReferences": {},
  "deployedLinkReferences": {}
}