{
  "_format": "hh-sol-artifact-1",
  "contractName": "Vault",
  "sourceName": "contracts/Vault.sol",
  "abi": [
    {
      "inputs": [],
      "stateMutability": "nonpayable",
      "type": "constructor"
    },
    {
      "inputs": [
        {
          "internalType": "address",
          "name": "target",
          "type": "address"
        }
      ],
      "name": "AddressEmptyCode",
      "type": "error"
    },
    {
      "inputs": [
        {
          "internalType": "address",
          "name": "account",
          "type": "address"
        }
      ],
      "name": "AddressInsufficientBalance",
      "type": "error"
    },
    {
      "inputs": [],
      "name": "EnforcedPause",
      "type": "error"
    },
    {
      "inputs": [],
      "name": "ExpectedPause",
      "type": "error"
    },
    {
      "inputs": [],
      "name": "FailedInnerCall",
      "type": "error"
    },
    {
      "inputs": [
        {
          "internalType": "address",
          "name": "owner",
          "type": "address"
        }
      ],
      "name": "OwnableInvalidOwner",
      "type": "error"
    },
    {
      "inputs": [
        {
          "internalType": "address",
          "name": "account",
          "type": "address"
        }
      ],
      "name": "OwnableUnauthorizedAccount",
      "type": "error"
    },
    {
      "inputs": [],
      "name": "ReentrancyGuardReentrantCall",
      "type": "error"
    },
    {
      "inputs": [
        {
          "internalType": "address",
          "name": "token",
          "type": "address"
        }
      ],
      "name": "SafeERC20FailedOperation",
      "type": "error"
    },
    {
      "anonymous": false,
      "inputs": [
        {
          "indexed": true,
          "internalType": "address",
          "name": "previousOwner",
          "type": "address"
        },
        {
          "indexed": true,
          "internalType": "address",
          "name": "newOwner",
          "type": "address"
        }
      ],
      "name": "OwnershipTransferred",
      "type": "event"
    },
    {
      "anonymous": false,
      "inputs": [
        {
          "indexed": false,
          "internalType": "address",
          "name": "account",
          "type": "address"
        }
      ],
      "name": "Paused",
      "type": "event"
    },
    {
      "anonymous": false,
      "inputs": [
        {
          "indexed": false,
          "internalType": "address",
          "name": "account",
          "type": "address"
        }
      ],
      "name": "Unpaused",
      "type": "event"
    },
    {
      "inputs": [
        {
          "internalType": "uint256",
          "name": "_tokenid",
          "type": "uint256"
        }
      ],
      "name": "depositaColateral",
      "outputs": [
        {
          "internalType": "bool",
          "name": "b",
          "type": "bool"
        }
      ],
      "stateMutability": "nonpayable",
      "type": "function"
    },
    {
      "inputs": [
        {
          "internalType": "contract IERC20",
          "name": "_token",
          "type": "address"
        },
        {
          "internalType": "uint256",
          "name": "_valor",
          "type": "uint256"
        }
      ],
      "name": "depositaNoCofre",
      "outputs": [
        {
          "internalType": "bool",
          "name": "status",
          "type": "bool"
        }
      ],
      "stateMutability": "nonpayable",
      "type": "function"
    },
    {
      "inputs": [],
      "name": "getDescricao",
      "outputs": [
        {
          "internalType": "string",
          "name": "d",
          "type": "string"
        }
      ],
      "stateMutability": "view",
      "type": "function"
    },
    {
      "inputs": [],
      "name": "getLoanERC20Denomination",
      "outputs": [
        {
          "internalType": "contract IERC20",
          "name": "",
          "type": "address"
        }
      ],
      "stateMutability": "view",
      "type": "function"
    },
    {
      "inputs": [],
      "name": "getPrazoVencimnento",
      "outputs": [
        {
          "components": [
            {
              "internalType": "uint256",
              "name": "ano",
              "type": "uint256"
            },
            {
              "internalType": "uint256",
              "name": "mes",
              "type": "uint256"
            },
            {
              "internalType": "uint256",
              "name": "dia",
              "type": "uint256"
            },
            {
              "internalType": "uint256",
              "name": "hora",
              "type": "uint256"
            },
            {
              "internalType": "uint256",
              "name": "minuto",
              "type": "uint256"
            },
            {
              "internalType": "uint256",
              "name": "segundo",
              "type": "uint256"
            }
          ],
          "internalType": "struct Vault.DateTime",
          "name": "p",
          "type": "tuple"
        }
      ],
      "stateMutability": "view",
      "type": "function"
    },
    {
      "inputs": [],
      "name": "getTokenAceito",
      "outputs": [
        {
          "internalType": "contract IERC20",
          "name": "t",
          "type": "address"
        }
      ],
      "stateMutability": "view",
      "type": "function"
    },
    {
      "inputs": [],
      "name": "getValorTotalDepositado",
      "outputs": [
        {
          "internalType": "uint256",
          "name": "v",
          "type": "uint256"
        }
      ],
      "stateMutability": "view",
      "type": "function"
    },
    {
      "inputs": [],
      "name": "isVencido",
      "outputs": [
        {
          "internalType": "bool",
          "name": "b",
          "type": "bool"
        }
      ],
      "stateMutability": "view",
      "type": "function"
    },
    {
      "inputs": [],
      "name": "owner",
      "outputs": [
        {
          "internalType": "address",
          "name": "",
          "type": "address"
        }
      ],
      "stateMutability": "view",
      "type": "function"
    },
    {
      "inputs": [],
      "name": "paused",
      "outputs": [
        {
          "internalType": "bool",
          "name": "",
          "type": "bool"
        }
      ],
      "stateMutability": "view",
      "type": "function"
    },
    {
      "inputs": [],
      "name": "renounceOwnership",
      "outputs": [],
      "stateMutability": "nonpayable",
      "type": "function"
    },
    {
      "inputs": [
        {
          "internalType": "uint256",
          "name": "_ano",
          "type": "uint256"
        },
        {
          "internalType": "uint256",
          "name": "_mes",
          "type": "uint256"
        },
        {
          "internalType": "uint256",
          "name": "_dia",
          "type": "uint256"
        },
        {
          "internalType": "uint256",
          "name": "_hora",
          "type": "uint256"
        },
        {
          "internalType": "uint256",
          "name": "_minuto",
          "type": "uint256"
        },
        {
          "internalType": "uint256",
          "name": "_segundo",
          "type": "uint256"
        }
      ],
      "name": "setDataHoraVencimento",
      "outputs": [],
      "stateMutability": "nonpayable",
      "type": "function"
    },
    {
      "inputs": [
        {
          "internalType": "uint256",
          "name": "_ano",
          "type": "uint256"
        },
        {
          "internalType": "uint256",
          "name": "_mes",
          "type": "uint256"
        },
        {
          "internalType": "uint256",
          "name": "_dia",
          "type": "uint256"
        }
      ],
      "name": "setDataVencimento",
      "outputs": [],
      "stateMutability": "nonpayable",
      "type": "function"
    },
    {
      "inputs": [
        {
          "internalType": "string",
          "name": "_d",
          "type": "string"
        }
      ],
      "name": "setDescricao",
      "outputs": [],
      "stateMutability": "nonpayable",
      "type": "function"
    },
    {
      "inputs": [
        {
          "internalType": "contract IERC20",
          "name": "_a",
          "type": "address"
        }
      ],
      "name": "setTokenAceito",
      "outputs": [],
      "stateMutability": "nonpayable",
      "type": "function"
    },
    {
      "inputs": [
        {
          "internalType": "address",
          "name": "newOwner",
          "type": "address"
        }
      ],
      "name": "transferOwnership",
      "outputs": [],
      "stateMutability": "nonpayable",
      "type": "function"
    }
  ],
  "bytecode": "0x60806040819052600a80546001600160a01b0319167394a9d9ac8a22534e3faca9f4e7f2e2cf85d5e4c81790556000600b819055600c556200004190620001a4565b604051809103906000f0801580156200005e573d6000803e3d6000fd5b50600f80546001600160a01b0319166001600160a01b03929092169190911790553480156200008c57600080fd5b503380620000b557604051631e4fbdf760e01b8152600060048201526024015b60405180910390fd5b620000c081620000f7565b506000805460ff60a01b1916905560018055620000f17394a9d9ac8a22534e3faca9f4e7f2e2cf85d5e4c862000147565b620001b2565b600080546001600160a01b038381166001600160a01b0319831681178455604051919092169283917f8be0079c531659141344cd1fd0a4f28419497f9722a3daafe3b4186f6b6457e09190a35050565b6200015162000173565b600a80546001600160a01b0319166001600160a01b0392909216919091179055565b6000546001600160a01b03163314620001a25760405163118cdaa760e01b8152336004820152602401620000ac565b565b611c04806200185583390190565b61169380620001c26000396000f3fe608060405234801561001057600080fd5b50600436106101005760003560e01c80638da5cb5b11610097578063ed32109511610066578063ed32109514610236578063ef51a49314610249578063f2fde38b1461025c578063f37ec3a11461026f57600080fd5b80638da5cb5b14610201578063a5e130c0146101c7578063b01ddf8514610212578063d9dd55331461022357600080fd5b80636767d67a116100d35780636767d67a146101ac578063715018a6146101bf57806381f97e5f146101c75780638279ac7c146101ec57600080fd5b8063191113d7146101055780631df84ff71461011a578063486d01d8146101775780635c975abb1461019a575b600080fd5b61011861011336600461118d565b610277565b005b6101226102f2565b60405161016e9190600060c082019050825182526020830151602083015260408301516040830152606083015160608301526080830151608083015260a083015160a083015292915050565b60405180910390f35b61018a6101853660046111d0565b610368565b604051901515815260200161016e565b600054600160a01b900460ff1661018a565b6101186101ba3660046111e9565b610433565b6101186104a0565b600a546001600160a01b03165b6040516001600160a01b03909116815260200161016e565b6101f46104b4565b60405161016e9190611239565b6000546001600160a01b03166101d4565b600b5460405190815260200161016e565b610118610231366004611282565b610546565b61018a610244366004611348565b61055e565b610118610257366004611374565b610906565b61011861026a366004611374565b610930565b61018a61096e565b61027f6109b2565b61028d8686868686866109df565b6102d55760405162461bcd60e51b8152602060048201526014602482015273646174612f686f726120696e76616c696461732160601b60448201526064015b60405180910390fd5b600395909555600493909355600591909155600655600755600855565b61032b6040518060c001604052806000815260200160008152602001600081526020016000815260200160008152602001600081525090565b506040805160c08101825260035481526004546020820152600554918101919091526006546060820152600754608082015260085460a082015290565b3360008181526010602090815260408083208054600181018255908452918320909101849055600f54905163d70faf6160e01b8152600481018590529192916001600160a01b039091169063d70faf6190602401602060405180830381865afa1580156103d9573d6000803e3d6000fd5b505050506040513d601f19601f820116820180604052508101906103fd9190611391565b6001600160a01b038216600090815260116020526040812080549091906104259084906113c0565b909155506001949350505050565b61043b6109b2565b610446838383610a20565b6104835760405162461bcd60e51b815260206004820152600e60248201526d6461746120696e76616c6964612160901b60448201526064016102cc565b600392909255600455600555600060068190556007819055600855565b6104a86109b2565b6104b26000610a77565b565b6060600980546104c3906113d3565b80601f01602080910402602001604051908101604052809291908181526020018280546104ef906113d3565b801561053c5780601f106105115761010080835404028352916020019161053c565b820191906000526020600020905b81548152906001019060200180831161051f57829003601f168201915b5050505050905090565b61054e6109b2565b600961055a828261145d565b5050565b60003361056961112d565b6001600160a01b0380861680835260208301869052600a54909116146105c25760405162461bcd60e51b815260206004820152600e60248201526d746f6b656e20696e76616c69646f60901b60448201526064016102cc565b60008160200151116106245760405162461bcd60e51b815260206004820152602560248201527f7175616e746964616465206465706f73697461646120696e666572696f722061604482015264207a65726f60d81b60648201526084016102cc565b80516040516370a0823160e01b81523060048201526000916001600160a01b0316906370a0823190602401602060405180830381865afa15801561066c573d6000803e3d6000fd5b505050506040513d601f19601f820116820180604052508101906106909190611391565b90506106a6826000015184308560200151610ac7565b81516040516370a0823160e01b81523060048201526000916001600160a01b0316906370a0823190602401602060405180830381865afa1580156106ee573d6000803e3d6000fd5b505050506040513d601f19601f820116820180604052508101906107129190611391565b905082602001518261072491906113c0565b81146107825760405162461bcd60e51b815260206004820152602760248201527f53616c646f2066696e616c206e616f20636f72726573706f6e646520616f20656044820152667370657261646f60c81b60648201526084016102cc565b60008060008060008061079442610b27565b9550955095509550955095508589604001516000018181525050848960400151602001818152505083896040015160400181815250508289604001516060018181525050818960400151608001818152505080896040015160a001818152505088600e60008c6001600160a01b03166001600160a01b0316815260200190815260200160002060008201518160000160006101000a8154816001600160a01b0302191690836001600160a01b0316021790555060208201518160010155604082015181600201600082015181600001556020820151816001015560408201518160020155606082015181600301556080820151816004015560a0820151816005015550509050506108ad89600001518a60200151610b9b565b6108f15760405162461bcd60e51b81526020600482015260156024820152746465706f7369746f206d616c20737563656469646f60581b60448201526064016102cc565b60019a50505050505050505050505b92915050565b61090e6109b2565b600a80546001600160a01b0319166001600160a01b0392909216919091179055565b6109386109b2565b6001600160a01b03811661096257604051631e4fbdf760e01b8152600060048201526024016102cc565b61096b81610a77565b50565b60035460045460055460065460075460085460009542958795610998959294919390929190610bfe565b90508082106109a85760016109ab565b60005b9250505090565b6000546001600160a01b031633146104b25760405163118cdaa760e01b81523360048201526024016102cc565b60006109ec878787610a20565b15610a1657601884108015610a015750603c83105b8015610a0d5750603c82105b15610a16575060015b9695505050505050565b60006107b28410158015610a345750600083115b8015610a415750600c8311155b15610a70576000610a528585610c5a565b9050600083118015610a645750808311155b15610a6e57600191505b505b9392505050565b600080546001600160a01b038381166001600160a01b0319831681178455604051919092169283917f8be0079c531659141344cd1fd0a4f28419497f9722a3daafe3b4186f6b6457e09190a35050565b604080516001600160a01b0385811660248301528416604482015260648082018490528251808303909101815260849091019091526020810180516001600160e01b03166323b872dd60e01b179052610b21908590610ce0565b50505050565b60008080808080610b43610b3e6201518089611533565b610d48565b919750955093506000610b596201518089611547565b9050610b67610e1082611533565b9350610b75610e1082611547565b9050610b82603c82611533565b9250610b8f603c82611547565b91505091939550919395565b600a546000906001600160a01b03848116911614610bec5760405162461bcd60e51b815260206004820152600e60248201526d746f6b656e20696e76616c69646f60901b60448201526064016102cc565b81600b600082825461042591906113c0565b600081610c0c603c8561155b565b610c18610e108761155b565b62015180610c278b8b8b610ebc565b610c31919061155b565b610c3b91906113c0565b610c4591906113c0565b610c4f91906113c0565b979650505050505050565b60008160011480610c6b5750816003145b80610c765750816005145b80610c815750816007145b80610c8c5750816008145b80610c97575081600a145b80610ca2575081600c145b15610caf5750601f610900565b81600214610cbf5750601e610900565b610cc883610ff9565b610cd357601c610cd6565b601d5b60ff169392505050565b6000610cf56001600160a01b03841683611035565b90508051600014158015610d1a575080806020019051810190610d189190611572565b155b15610d4357604051635274afe760e01b81526001600160a01b03841660048201526024016102cc565b505050565b60008080838162253d8c610d5f8362010bd9611594565b610d699190611594565b9050600062023ab1610d7c8360046115bc565b610d8691906115ec565b90506004610d978262023ab16115bc565b610da2906003611594565b610dac91906115ec565b610db6908361161a565b9150600062164b09610dc9846001611594565b610dd590610fa06115bc565b610ddf91906115ec565b90506004610def826105b56115bc565b610df991906115ec565b610e03908461161a565b610e0e90601f611594565b9250600061098f610e208560506115bc565b610e2a91906115ec565b905060006050610e3c8361098f6115bc565b610e4691906115ec565b610e50908661161a565b9050610e5d600b836115ec565b9450610e6a85600c6115bc565b610e75836002611594565b610e7f919061161a565b91508483610e8e60318761161a565b610e999060646115bc565b610ea39190611594565b610ead9190611594565b9a919950975095505050505050565b60006107b2841015610ecd57600080fd5b838383600062253d8c60046064600c610ee7600e8861161a565b610ef191906115ec565b610efd88611324611594565b610f079190611594565b610f1191906115ec565b610f1c9060036115bc565b610f2691906115ec565b600c80610f34600e8861161a565b610f3e91906115ec565b610f4990600c6115bc565b610f5460028861161a565b610f5e919061161a565b610f6a9061016f6115bc565b610f7491906115ec565b6004600c610f83600e8961161a565b610f8d91906115ec565b610f99896112c0611594565b610fa39190611594565b610faf906105b56115bc565b610fb991906115ec565b610fc5617d4b8761161a565b610fcf9190611594565b610fd99190611594565b610fe3919061161a565b610fed919061161a565b98975050505050505050565b6000611006600483611547565b15801561101c5750611019606483611547565b15155b80610900575061102e61019083611547565b1592915050565b6060610a708383600084600080856001600160a01b0316848660405161105b9190611641565b60006040518083038185875af1925050503d8060008114611098576040519150601f19603f3d011682016040523d82523d6000602084013e61109d565b606091505b5091509150610a168683836060826110bd576110b882611104565b610a70565b81511580156110d457506001600160a01b0384163b155b156110fd57604051639996b31560e01b81526001600160a01b03851660048201526024016102cc565b5080610a70565b8051156111145780518082602001fd5b604051630a12f52160e11b815260040160405180910390fd5b604051806060016040528060006001600160a01b03168152602001600081526020016111886040518060c001604052806000815260200160008152602001600081526020016000815260200160008152602001600081525090565b905290565b60008060008060008060c087890312156111a657600080fd5b505084359660208601359650604086013595606081013595506080810135945060a0013592509050565b6000602082840312156111e257600080fd5b5035919050565b6000806000606084860312156111fe57600080fd5b505081359360208301359350604090920135919050565b60005b83811015611230578181015183820152602001611218565b50506000910152565b6020815260008251806020840152611258816040850160208701611215565b601f01601f19169190910160400192915050565b634e487b7160e01b600052604160045260246000fd5b60006020828403121561129457600080fd5b813567ffffffffffffffff808211156112ac57600080fd5b818401915084601f8301126112c057600080fd5b8135818111156112d2576112d261126c565b604051601f8201601f19908116603f011681019083821181831017156112fa576112fa61126c565b8160405282815287602084870101111561131357600080fd5b826020860160208301376000928101602001929092525095945050505050565b6001600160a01b038116811461096b57600080fd5b6000806040838503121561135b57600080fd5b823561136681611333565b946020939093013593505050565b60006020828403121561138657600080fd5b8135610a7081611333565b6000602082840312156113a357600080fd5b5051919050565b634e487b7160e01b600052601160045260246000fd5b80820180821115610900576109006113aa565b600181811c908216806113e757607f821691505b60208210810361140757634e487b7160e01b600052602260045260246000fd5b50919050565b601f821115610d43576000816000526020600020601f850160051c810160208610156114365750805b601f850160051c820191505b8181101561145557828155600101611442565b505050505050565b815167ffffffffffffffff8111156114775761147761126c565b61148b8161148584546113d3565b8461140d565b602080601f8311600181146114c057600084156114a85750858301515b600019600386901b1c1916600185901b178555611455565b600085815260208120601f198616915b828110156114ef578886015182559484019460019091019084016114d0565b508582101561150d5787850151600019600388901b60f8161c191681555b5050505050600190811b01905550565b634e487b7160e01b600052601260045260246000fd5b6000826115425761154261151d565b500490565b6000826115565761155661151d565b500690565b8082028115828204841417610900576109006113aa565b60006020828403121561158457600080fd5b81518015158114610a7057600080fd5b80820182811260008312801582168215821617156115b4576115b46113aa565b505092915050565b80820260008212600160ff1b841416156115d8576115d86113aa565b8181058314821517610900576109006113aa565b6000826115fb576115fb61151d565b600160ff1b821460001984141615611615576116156113aa565b500590565b818103600083128015838313168383128216171561163a5761163a6113aa565b5092915050565b60008251611653818460208701611215565b919091019291505056fea2646970667358221220399db890dfaaf026c348bff4c8b17d457cea532e582663c9e2ec02dc8cdbe1a164736f6c63430008180033608060405260016003553480156200001657600080fd5b50604080516020810190915260008152620000318162000052565b50336000908152600460205260409020805460ff19166001179055620001d7565b60026200006082826200010b565b5050565b634e487b7160e01b600052604160045260246000fd5b600181811c908216806200008f57607f821691505b602082108103620000b057634e487b7160e01b600052602260045260246000fd5b50919050565b601f82111562000106576000816000526020600020601f850160051c81016020861015620000e15750805b601f850160051c820191505b818110156200010257828155600101620000ed565b5050505b505050565b81516001600160401b0381111562000127576200012762000064565b6200013f816200013884546200007a565b84620000b6565b602080601f8311600181146200017757600084156200015e5750858301515b600019600386901b1c1916600185901b17855562000102565b600085815260208120601f198616915b82811015620001a85788860151825594840194600190910190840162000187565b5085821015620001c75787850151600019600388901b60f8161c191681555b5050505050600190811b01905550565b611a1d80620001e76000396000f3fe608060405234801561001057600080fd5b50600436106100ce5760003560e01c80639dc29fac1161008c578063beabacc811610066578063beabacc8146101ca578063d70faf61146101dd578063e985e9c5146101fd578063f242432a1461021057600080fd5b80639dc29fac14610191578063a22cb465146101a4578063a40d1b10146101b757600080fd5b8062fdd58e146100d357806301ffc9a7146100f95780630e89341c1461011c5780632eb2c2d61461013c578063476ac2b0146101515780634e1273f414610171575b600080fd5b6100e66100e13660046110c1565b610223565b6040519081526020015b60405180910390f35b61010c610107366004611104565b61024b565b60405190151581526020016100f0565b61012f61012a366004611128565b61029b565b6040516100f09190611191565b61014f61014a3660046112ee565b610545565b005b61014f61015f366004611398565b60009182526006602052604090912055565b61018461017f3660046113ba565b6105b1565b6040516100f091906114b6565b61014f61019f3660046110c1565b61067e565b61014f6101b23660046114c9565b610725565b6100e66101c5366004611505565b610734565b61014f6101d8366004611593565b61087f565b6100e66101eb366004611128565b60009081526006602052604090205490565b61010c61020b3660046115cf565b610954565b61014f61021e366004611602565b610982565b6000818152602081815260408083206001600160a01b03861684529091529020545b92915050565b60006001600160e01b03198216636cdb3d1360e11b148061027c57506001600160e01b031982166303a24d0760e21b145b8061024557506301ffc9a760e01b6001600160e01b0319831614610245565b60606000600560008481526020019081526020016000206040518060800160405290816000820180546102cd90611667565b80601f01602080910402602001604051908101604052809291908181526020018280546102f990611667565b80156103465780601f1061031b57610100808354040283529160200191610346565b820191906000526020600020905b81548152906001019060200180831161032957829003601f168201915b5050505050815260200160018201805461035f90611667565b80601f016020809104026020016040519081016040528092919081815260200182805461038b90611667565b80156103d85780601f106103ad576101008083540402835291602001916103d8565b820191906000526020600020905b8154815290600101906020018083116103bb57829003601f168201915b505050505081526020016002820180546103f190611667565b80601f016020809104026020016040519081016040528092919081815260200182805461041d90611667565b801561046a5780601f1061043f5761010080835404028352916020019161046a565b820191906000526020600020905b81548152906001019060200180831161044d57829003601f168201915b5050505050815260200160038201805461048390611667565b80601f01602080910402602001604051908101604052809291908181526020018280546104af90611667565b80156104fc5780601f106104d1576101008083540402835291602001916104fc565b820191906000526020600020905b8154815290600101906020018083116104df57829003601f168201915b5050505050815250509050806000015181602001518260400151836060015160405160200161052e94939291906116a1565b604051602081830303815290604052915050919050565b336001600160a01b038616811480159061056657506105648682610954565b155b1561059c5760405163711bec9160e11b81526001600160a01b038083166004830152871660248201526044015b60405180910390fd5b6105a986868686866109e1565b505050505050565b606081518351146105e25781518351604051635b05999160e01b815260048101929092526024820152604401610593565b6000835167ffffffffffffffff8111156105fe576105fe6111a4565b604051908082528060200260200182016040528015610627578160200160208202803683370190505b50905060005b84518110156106765760208082028601015161065190602080840287010151610223565b82828151811061066357610663611794565b602090810291909101015260010161062d565b509392505050565b336001600160a01b038316148061069a575061069a8233610954565b6106df5760405162461bcd60e51b81526020600482015260166024820152752737ba1030baba3437b934bd32b2103a3790313ab93760511b6044820152606401610593565b6106eb82826001610a48565b60405181906001600160a01b038416907f696de425f79f4a40bc6d2122ca50507f0efbeabbff86a84871b7196ab8ea8df790600090a35050565b610730338383610ab0565b5050565b3360009081526004602052604081205460ff1661078c5760405162461bcd60e51b8152602060048201526016602482015275139bdd08185d5d1a1bdc9a5e9959081d1bc81b5a5b9d60521b6044820152606401610593565b60038054908190600061079e836117c0565b91905055506107bf8782600160405180602001604052806000815250610b46565b604080516080810182528781526020808201889052818301879052606082018690526000848152600590915291909120815181906107fd9082611826565b50602082015160018201906108129082611826565b50604082015160028201906108279082611826565b506060820151600382019061083c9082611826565b50506040518291506001600160a01b038916907f30385c845b448a36257a6a1716e6ad2e1bc2cbe333cde1e69fe849ad6511adfe90600090a39695505050505050565b336001600160a01b03841614806108a557503360009081526004602052604090205460ff165b6108f15760405162461bcd60e51b815260206004820152601a60248201527f4e6f7420617574686f72697a656420746f207472616e736665720000000000006044820152606401610593565b61090e838383600160405180602001604052806000815250610982565b80826001600160a01b0316846001600160a01b03167fd1ba4ac2e2a11b5101f6cb4d978f514a155b421e8ec396d2d9abaf0bb02917ee60405160405180910390a4505050565b6001600160a01b03918216600090815260016020908152604080832093909416825291909152205460ff1690565b336001600160a01b03861681148015906109a357506109a18682610954565b155b156109d45760405163711bec9160e11b81526001600160a01b03808316600483015287166024820152604401610593565b6105a98686868686610ba3565b6001600160a01b038416610a0b57604051632bfa23e760e11b815260006004820152602401610593565b6001600160a01b038516610a3457604051626a0d4560e21b815260006004820152602401610593565b610a418585858585610c31565b5050505050565b6001600160a01b038316610a7157604051626a0d4560e21b815260006004820152602401610593565b604080516001808252602082018590528183019081526060820184905260a08201909252600060808201818152919291610a4191879185908590610c31565b6001600160a01b038216610ad95760405162ced3e160e81b815260006004820152602401610593565b6001600160a01b03838116600081815260016020908152604080832094871680845294825291829020805460ff191686151590811790915591519182527f17307eab39ab6107e8899845ad3d59bd9653f200f220920489ca2b5937696c31910160405180910390a3505050565b6001600160a01b038416610b7057604051632bfa23e760e11b815260006004820152602401610593565b604080516001808252602082018690528183019081526060820185905260808201909252906105a9600087848487610c31565b6001600160a01b038416610bcd57604051632bfa23e760e11b815260006004820152602401610593565b6001600160a01b038516610bf657604051626a0d4560e21b815260006004820152602401610593565b60408051600180825260208201869052818301908152606082018590526080820190925290610c288787848487610c31565b50505050505050565b610c3d85858585610c84565b6001600160a01b03841615610a415782513390600103610c765760208481015190840151610c6f838989858589610e98565b50506105a9565b6105a9818787878787610fbc565b8051825114610cb35781518151604051635b05999160e01b815260048101929092526024820152604401610593565b3360005b8351811015610db9576020818102858101820151908501909101516001600160a01b03881615610d6a576000828152602081815260408083206001600160a01b038c16845290915290205481811015610d43576040516303dee4c560e01b81526001600160a01b038a166004820152602481018290526044810183905260648101849052608401610593565b6000838152602081815260408083206001600160a01b038d16845290915290209082900390555b6001600160a01b03871615610daf576000828152602081815260408083206001600160a01b038b16845290915281208054839290610da99084906118e6565b90915550505b5050600101610cb7565b508251600103610e3a5760208301516000906020840151909150856001600160a01b0316876001600160a01b0316846001600160a01b03167fc3d58168c5ae7397731d063d5bbf3d657854427343f4c083240f7aacaa2d0f628585604051610e2b929190918252602082015260400190565b60405180910390a45050610a41565b836001600160a01b0316856001600160a01b0316826001600160a01b03167f4a39dc06d4c0dbc64b70af90fd698a233a518aa5d07e595d983b8c0526c8f7fb8686604051610e899291906118f9565b60405180910390a45050505050565b6001600160a01b0384163b156105a95760405163f23a6e6160e01b81526001600160a01b0385169063f23a6e6190610edc9089908990889088908890600401611927565b6020604051808303816000875af1925050508015610f17575060408051601f3d908101601f19168201909252610f149181019061196c565b60015b610f80573d808015610f45576040519150601f19603f3d011682016040523d82523d6000602084013e610f4a565b606091505b508051600003610f7857604051632bfa23e760e11b81526001600160a01b0386166004820152602401610593565b805181602001fd5b6001600160e01b0319811663f23a6e6160e01b14610c2857604051632bfa23e760e11b81526001600160a01b0386166004820152602401610593565b6001600160a01b0384163b156105a95760405163bc197c8160e01b81526001600160a01b0385169063bc197c81906110009089908990889088908890600401611989565b6020604051808303816000875af192505050801561103b575060408051601f3d908101601f191682019092526110389181019061196c565b60015b611069573d808015610f45576040519150601f19603f3d011682016040523d82523d6000602084013e610f4a565b6001600160e01b0319811663bc197c8160e01b14610c2857604051632bfa23e760e11b81526001600160a01b0386166004820152602401610593565b80356001600160a01b03811681146110bc57600080fd5b919050565b600080604083850312156110d457600080fd5b6110dd836110a5565b946020939093013593505050565b6001600160e01b03198116811461110157600080fd5b50565b60006020828403121561111657600080fd5b8135611121816110eb565b9392505050565b60006020828403121561113a57600080fd5b5035919050565b60005b8381101561115c578181015183820152602001611144565b50506000910152565b6000815180845261117d816020860160208601611141565b601f01601f19169290920160200192915050565b6020815260006111216020830184611165565b634e487b7160e01b600052604160045260246000fd5b604051601f8201601f1916810167ffffffffffffffff811182821017156111e3576111e36111a4565b604052919050565b600067ffffffffffffffff821115611205576112056111a4565b5060051b60200190565b600082601f83011261122057600080fd5b81356020611235611230836111eb565b6111ba565b8083825260208201915060208460051b87010193508684111561125757600080fd5b602086015b84811015611273578035835291830191830161125c565b509695505050505050565b600082601f83011261128f57600080fd5b813567ffffffffffffffff8111156112a9576112a96111a4565b6112bc601f8201601f19166020016111ba565b8181528460208386010111156112d157600080fd5b816020850160208301376000918101602001919091529392505050565b600080600080600060a0868803121561130657600080fd5b61130f866110a5565b945061131d602087016110a5565b9350604086013567ffffffffffffffff8082111561133a57600080fd5b61134689838a0161120f565b9450606088013591508082111561135c57600080fd5b61136889838a0161120f565b9350608088013591508082111561137e57600080fd5b5061138b8882890161127e565b9150509295509295909350565b600080604083850312156113ab57600080fd5b50508035926020909101359150565b600080604083850312156113cd57600080fd5b823567ffffffffffffffff808211156113e557600080fd5b818501915085601f8301126113f957600080fd5b81356020611409611230836111eb565b82815260059290921b8401810191818101908984111561142857600080fd5b948201945b8386101561144d5761143e866110a5565b8252948201949082019061142d565b9650508601359250508082111561146357600080fd5b506114708582860161120f565b9150509250929050565b60008151808452602080850194506020840160005b838110156114ab5781518752958201959082019060010161148f565b509495945050505050565b602081526000611121602083018461147a565b600080604083850312156114dc57600080fd5b6114e5836110a5565b9150602083013580151581146114fa57600080fd5b809150509250929050565b600080600080600060a0868803121561151d57600080fd5b611526866110a5565b9450602086013567ffffffffffffffff8082111561154357600080fd5b61154f89838a0161127e565b9550604088013591508082111561156557600080fd5b61157189838a0161127e565b9450606088013591508082111561158757600080fd5b61136889838a0161127e565b6000806000606084860312156115a857600080fd5b6115b1846110a5565b92506115bf602085016110a5565b9150604084013590509250925092565b600080604083850312156115e257600080fd5b6115eb836110a5565b91506115f9602084016110a5565b90509250929050565b600080600080600060a0868803121561161a57600080fd5b611623866110a5565b9450611631602087016110a5565b93506040860135925060608601359150608086013567ffffffffffffffff81111561165b57600080fd5b61138b8882890161127e565b600181811c9082168061167b57607f821691505b60208210810361169b57634e487b7160e01b600052602260045260246000fd5b50919050565b7f646174613a6170706c69636174696f6e2f6a736f6e3b757466382c7b226e616d81526332911d1160e11b6020820152600085516116e6816024850160208a01611141565b71111610113232b9b1b934b83a34b7b7111d1160711b6024918401918201528551611718816036840160208a01611141565b6b1116101134b6b0b3b2911d1160a11b603692909101918201528451611745816042840160208901611141565b7011161011383937b832b93a34b2b9911d1160791b604292909101918201528351611777816053840160208801611141565b61227d60f01b605392909101918201526055019695505050505050565b634e487b7160e01b600052603260045260246000fd5b634e487b7160e01b600052601160045260246000fd5b6000600182016117d2576117d26117aa565b5060010190565b601f821115611821576000816000526020600020601f850160051c810160208610156118025750805b601f850160051c820191505b818110156105a95782815560010161180e565b505050565b815167ffffffffffffffff811115611840576118406111a4565b6118548161184e8454611667565b846117d9565b602080601f83116001811461188957600084156118715750858301515b600019600386901b1c1916600185901b1785556105a9565b600085815260208120601f198616915b828110156118b857888601518255948401946001909101908401611899565b50858210156118d65787850151600019600388901b60f8161c191681555b5050505050600190811b01905550565b80820180821115610245576102456117aa565b60408152600061190c604083018561147a565b828103602084015261191e818561147a565b95945050505050565b6001600160a01b03868116825285166020820152604081018490526060810183905260a06080820181905260009061196190830184611165565b979650505050505050565b60006020828403121561197e57600080fd5b8151611121816110eb565b6001600160a01b0386811682528516602082015260a0604082018190526000906119b59083018661147a565b82810360608401526119c7818661147a565b905082810360808401526119db8185611165565b9897505050505050505056fea264697066735822122006b051a01b8548f97b285be0849c58aef8f26a8dd925c411543ec5322a35153564736f6c63430008180033",
  "linkReferences": {},
  "deployedLinkReferences": {}
}