{
  "_format": "hh-sol-artifact-1",
  "contractName": "NoPregoNFT",
  "sourceName": "contracts/NoPregoNFT.sol",
  "abi": [
    {
      "inputs": [],
      "stateMutability": "nonpayable",
      "type": "constructor"
    },
    {
      "inputs": [
        {
          "internalType": "address",
          "name": "sender",
          "type": "address"
        },
        {
          "internalType": "uint256",
          "name": "balance",
          "type": "uint256"
        },
        {
          "internalType": "uint256",
          "name": "needed",
          "type": "uint256"
        },
        {
          "internalType": "uint256",
          "name": "tokenId",
          "type": "uint256"
        }
      ],
      "name": "ERC1155InsufficientBalance",
      "type": "error"
    },
    {
      "inputs": [
        {
          "internalType": "address",
          "name": "approver",
          "type": "address"
        }
      ],
      "name": "ERC1155InvalidApprover",
      "type": "error"
    },
    {
      "inputs": [
        {
          "internalType": "uint256",
          "name": "idsLength",
          "type": "uint256"
        },
        {
          "internalType": "uint256",
          "name": "valuesLength",
          "type": "uint256"
        }
      ],
      "name": "ERC1155InvalidArrayLength",
      "type": "error"
    },
    {
      "inputs": [
        {
          "internalType": "address",
          "name": "operator",
          "type": "address"
        }
      ],
      "name": "ERC1155InvalidOperator",
      "type": "error"
    },
    {
      "inputs": [
        {
          "internalType": "address",
          "name": "receiver",
          "type": "address"
        }
      ],
      "name": "ERC1155InvalidReceiver",
      "type": "error"
    },
    {
      "inputs": [
        {
          "internalType": "address",
          "name": "sender",
          "type": "address"
        }
      ],
      "name": "ERC1155InvalidSender",
      "type": "error"
    },
    {
      "inputs": [
        {
          "internalType": "address",
          "name": "operator",
          "type": "address"
        },
        {
          "internalType": "address",
          "name": "owner",
          "type": "address"
        }
      ],
      "name": "ERC1155MissingApprovalForAll",
      "type": "error"
    },
    {
      "anonymous": false,
      "inputs": [
        {
          "indexed": true,
          "internalType": "address",
          "name": "account",
          "type": "address"
        },
        {
          "indexed": true,
          "internalType": "address",
          "name": "operator",
          "type": "address"
        },
        {
          "indexed": false,
          "internalType": "bool",
          "name": "approved",
          "type": "bool"
        }
      ],
      "name": "ApprovalForAll",
      "type": "event"
    },
    {
      "anonymous": false,
      "inputs": [
        {
          "indexed": true,
          "internalType": "address",
          "name": "account",
          "type": "address"
        },
        {
          "indexed": true,
          "internalType": "uint256",
          "name": "tokenId",
          "type": "uint256"
        }
      ],
      "name": "Burned",
      "type": "event"
    },
    {
      "anonymous": false,
      "inputs": [
        {
          "indexed": true,
          "internalType": "address",
          "name": "account",
          "type": "address"
        },
        {
          "indexed": true,
          "internalType": "uint256",
          "name": "tokenId",
          "type": "uint256"
        }
      ],
      "name": "Minted",
      "type": "event"
    },
    {
      "anonymous": false,
      "inputs": [
        {
          "indexed": true,
          "internalType": "address",
          "name": "operator",
          "type": "address"
        },
        {
          "indexed": true,
          "internalType": "address",
          "name": "from",
          "type": "address"
        },
        {
          "indexed": true,
          "internalType": "address",
          "name": "to",
          "type": "address"
        },
        {
          "indexed": false,
          "internalType": "uint256[]",
          "name": "ids",
          "type": "uint256[]"
        },
        {
          "indexed": false,
          "internalType": "uint256[]",
          "name": "values",
          "type": "uint256[]"
        }
      ],
      "name": "TransferBatch",
      "type": "event"
    },
    {
      "anonymous": false,
      "inputs": [
        {
          "indexed": true,
          "internalType": "address",
          "name": "operator",
          "type": "address"
        },
        {
          "indexed": true,
          "internalType": "address",
          "name": "from",
          "type": "address"
        },
        {
          "indexed": true,
          "internalType": "address",
          "name": "to",
          "type": "address"
        },
        {
          "indexed": false,
          "internalType": "uint256",
          "name": "id",
          "type": "uint256"
        },
        {
          "indexed": false,
          "internalType": "uint256",
          "name": "value",
          "type": "uint256"
        }
      ],
      "name": "TransferSingle",
      "type": "event"
    },
    {
      "anonymous": false,
      "inputs": [
        {
          "indexed": true,
          "internalType": "address",
          "name": "from",
          "type": "address"
        },
        {
          "indexed": true,
          "internalType": "address",
          "name": "to",
          "type": "address"
        },
        {
          "indexed": true,
          "internalType": "uint256",
          "name": "tokenId",
          "type": "uint256"
        }
      ],
      "name": "Transferred",
      "type": "event"
    },
    {
      "anonymous": false,
      "inputs": [
        {
          "indexed": false,
          "internalType": "string",
          "name": "value",
          "type": "string"
        },
        {
          "indexed": true,
          "internalType": "uint256",
          "name": "id",
          "type": "uint256"
        }
      ],
      "name": "URI",
      "type": "event"
    },
    {
      "inputs": [
        {
          "internalType": "uint256",
          "name": "_tokenId",
          "type": "uint256"
        },
        {
          "internalType": "uint256",
          "name": "_valor",
          "type": "uint256"
        }
      ],
      "name": "avaliar",
      "outputs": [],
      "stateMutability": "nonpayable",
      "type": "function"
    },
    {
      "inputs": [
        {
          "internalType": "address",
          "name": "account",
          "type": "address"
        },
        {
          "internalType": "uint256",
          "name": "id",
          "type": "uint256"
        }
      ],
      "name": "balanceOf",
      "outputs": [
        {
          "internalType": "uint256",
          "name": "",
          "type": "uint256"
        }
      ],
      "stateMutability": "view",
      "type": "function"
    },
    {
      "inputs": [
        {
          "internalType": "address[]",
          "name": "accounts",
          "type": "address[]"
        },
        {
          "internalType": "uint256[]",
          "name": "ids",
          "type": "uint256[]"
        }
      ],
      "name": "balanceOfBatch",
      "outputs": [
        {
          "internalType": "uint256[]",
          "name": "",
          "type": "uint256[]"
        }
      ],
      "stateMutability": "view",
      "type": "function"
    },
    {
      "inputs": [
        {
          "internalType": "address",
          "name": "account",
          "type": "address"
        },
        {
          "internalType": "uint256",
          "name": "tokenId",
          "type": "uint256"
        }
      ],
      "name": "burn",
      "outputs": [],
      "stateMutability": "nonpayable",
      "type": "function"
    },
    {
      "inputs": [
        {
          "internalType": "uint256",
          "name": "tokenId",
          "type": "uint256"
        }
      ],
      "name": "getAvaliacao",
      "outputs": [
        {
          "internalType": "uint256",
          "name": "v",
          "type": "uint256"
        }
      ],
      "stateMutability": "view",
      "type": "function"
    },
    {
      "inputs": [
        {
          "internalType": "address",
          "name": "account",
          "type": "address"
        },
        {
          "internalType": "address",
          "name": "operator",
          "type": "address"
        }
      ],
      "name": "isApprovedForAll",
      "outputs": [
        {
          "internalType": "bool",
          "name": "",
          "type": "bool"
        }
      ],
      "stateMutability": "view",
      "type": "function"
    },
    {
      "inputs": [
        {
          "internalType": "address",
          "name": "to",
          "type": "address"
        },
        {
          "internalType": "string",
          "name": "name",
          "type": "string"
        },
        {
          "internalType": "string",
          "name": "description",
          "type": "string"
        },
        {
          "internalType": "string",
          "name": "image",
          "type": "string"
        },
        {
          "internalType": "string",
          "name": "properties",
          "type": "string"
        }
      ],
      "name": "mint",
      "outputs": [
        {
          "internalType": "uint256",
          "name": "",
          "type": "uint256"
        }
      ],
      "stateMutability": "nonpayable",
      "type": "function"
    },
    {
      "inputs": [
        {
          "internalType": "address",
          "name": "from",
          "type": "address"
        },
        {
          "internalType": "address",
          "name": "to",
          "type": "address"
        },
        {
          "internalType": "uint256[]",
          "name": "ids",
          "type": "uint256[]"
        },
        {
          "internalType": "uint256[]",
          "name": "values",
          "type": "uint256[]"
        },
        {
          "internalType": "bytes",
          "name": "data",
          "type": "bytes"
        }
      ],
      "name": "safeBatchTransferFrom",
      "outputs": [],
      "stateMutability": "nonpayable",
      "type": "function"
    },
    {
      "inputs": [
        {
          "internalType": "address",
          "name": "from",
          "type": "address"
        },
        {
          "internalType": "address",
          "name": "to",
          "type": "address"
        },
        {
          "internalType": "uint256",
          "name": "id",
          "type": "uint256"
        },
        {
          "internalType": "uint256",
          "name": "value",
          "type": "uint256"
        },
        {
          "internalType": "bytes",
          "name": "data",
          "type": "bytes"
        }
      ],
      "name": "safeTransferFrom",
      "outputs": [],
      "stateMutability": "nonpayable",
      "type": "function"
    },
    {
      "inputs": [
        {
          "internalType": "address",
          "name": "operator",
          "type": "address"
        },
        {
          "internalType": "bool",
          "name": "approved",
          "type": "bool"
        }
      ],
      "name": "setApprovalForAll",
      "outputs": [],
      "stateMutability": "nonpayable",
      "type": "function"
    },
    {
      "inputs": [
        {
          "internalType": "bytes4",
          "name": "interfaceId",
          "type": "bytes4"
        }
      ],
      "name": "supportsInterface",
      "outputs": [
        {
          "internalType": "bool",
          "name": "",
          "type": "bool"
        }
      ],
      "stateMutability": "view",
      "type": "function"
    },
    {
      "inputs": [
        {
          "internalType": "address",
          "name": "from",
          "type": "address"
        },
        {
          "internalType": "address",
          "name": "to",
          "type": "address"
        },
        {
          "internalType": "uint256",
          "name": "tokenId",
          "type": "uint256"
        }
      ],
      "name": "transfer",
      "outputs": [],
      "stateMutability": "nonpayable",
      "type": "function"
    },
    {
      "inputs": [
        {
          "internalType": "uint256",
          "name": "tokenId",
          "type": "uint256"
        }
      ],
      "name": "uri",
      "outputs": [
        {
          "internalType": "string",
          "name": "",
          "type": "string"
        }
      ],
      "stateMutability": "view",
      "type": "function"
    }
  ],
  "bytecode": "0x608060405260016003553480156200001657600080fd5b50604080516020810190915260008152620000318162000052565b50336000908152600460205260409020805460ff19166001179055620001d7565b60026200006082826200010b565b5050565b634e487b7160e01b600052604160045260246000fd5b600181811c908216806200008f57607f821691505b602082108103620000b057634e487b7160e01b600052602260045260246000fd5b50919050565b601f82111562000106576000816000526020600020601f850160051c81016020861015620000e15750805b601f850160051c820191505b818110156200010257828155600101620000ed565b5050505b505050565b81516001600160401b0381111562000127576200012762000064565b6200013f816200013884546200007a565b84620000b6565b602080601f8311600181146200017757600084156200015e5750858301515b600019600386901b1c1916600185901b17855562000102565b600085815260208120601f198616915b82811015620001a85788860151825594840194600190910190840162000187565b5085821015620001c75787850151600019600388901b60f8161c191681555b5050505050600190811b01905550565b611a2d80620001e76000396000f3fe608060405234801561001057600080fd5b50600436106100ce5760003560e01c80639dc29fac1161008c578063beabacc811610066578063beabacc8146101ca578063d70faf61146101dd578063e985e9c5146101fd578063f242432a1461021057600080fd5b80639dc29fac14610191578063a22cb465146101a4578063a40d1b10146101b757600080fd5b8062fdd58e146100d357806301ffc9a7146100f95780630e89341c1461011c5780632eb2c2d61461013c578063476ac2b0146101515780634e1273f414610171575b600080fd5b6100e66100e13660046110d1565b610223565b6040519081526020015b60405180910390f35b61010c610107366004611114565b61024b565b60405190151581526020016100f0565b61012f61012a366004611138565b61029b565b6040516100f091906111a1565b61014f61014a3660046112fe565b610545565b005b61014f61015f3660046113a8565b60009182526006602052604090912055565b61018461017f3660046113ca565b6105b1565b6040516100f091906114c6565b61014f61019f3660046110d1565b61067e565b61014f6101b23660046114d9565b610725565b6100e66101c5366004611515565b610734565b61014f6101d83660046115a3565b61087f565b6100e66101eb366004611138565b60009081526006602052604090205490565b61010c61020b3660046115df565b610964565b61014f61021e366004611612565b610992565b6000818152602081815260408083206001600160a01b03861684529091529020545b92915050565b60006001600160e01b03198216636cdb3d1360e11b148061027c57506001600160e01b031982166303a24d0760e21b145b8061024557506301ffc9a760e01b6001600160e01b0319831614610245565b60606000600560008481526020019081526020016000206040518060800160405290816000820180546102cd90611677565b80601f01602080910402602001604051908101604052809291908181526020018280546102f990611677565b80156103465780601f1061031b57610100808354040283529160200191610346565b820191906000526020600020905b81548152906001019060200180831161032957829003601f168201915b5050505050815260200160018201805461035f90611677565b80601f016020809104026020016040519081016040528092919081815260200182805461038b90611677565b80156103d85780601f106103ad576101008083540402835291602001916103d8565b820191906000526020600020905b8154815290600101906020018083116103bb57829003601f168201915b505050505081526020016002820180546103f190611677565b80601f016020809104026020016040519081016040528092919081815260200182805461041d90611677565b801561046a5780601f1061043f5761010080835404028352916020019161046a565b820191906000526020600020905b81548152906001019060200180831161044d57829003601f168201915b5050505050815260200160038201805461048390611677565b80601f01602080910402602001604051908101604052809291908181526020018280546104af90611677565b80156104fc5780601f106104d1576101008083540402835291602001916104fc565b820191906000526020600020905b8154815290600101906020018083116104df57829003601f168201915b5050505050815250509050806000015181602001518260400151836060015160405160200161052e94939291906116b1565b604051602081830303815290604052915050919050565b336001600160a01b038616811480159061056657506105648682610964565b155b1561059c5760405163711bec9160e11b81526001600160a01b038083166004830152871660248201526044015b60405180910390fd5b6105a986868686866109f1565b505050505050565b606081518351146105e25781518351604051635b05999160e01b815260048101929092526024820152604401610593565b6000835167ffffffffffffffff8111156105fe576105fe6111b4565b604051908082528060200260200182016040528015610627578160200160208202803683370190505b50905060005b84518110156106765760208082028601015161065190602080840287010151610223565b828281518110610663576106636117a4565b602090810291909101015260010161062d565b509392505050565b336001600160a01b038316148061069a575061069a8233610964565b6106df5760405162461bcd60e51b81526020600482015260166024820152752737ba1030baba3437b934bd32b2103a3790313ab93760511b6044820152606401610593565b6106eb82826001610a58565b60405181906001600160a01b038416907f696de425f79f4a40bc6d2122ca50507f0efbeabbff86a84871b7196ab8ea8df790600090a35050565b610730338383610ac0565b5050565b3360009081526004602052604081205460ff1661078c5760405162461bcd60e51b8152602060048201526016602482015275139bdd08185d5d1a1bdc9a5e9959081d1bc81b5a5b9d60521b6044820152606401610593565b60038054908190600061079e836117d0565b91905055506107bf8782600160405180602001604052806000815250610b56565b604080516080810182528781526020808201889052818301879052606082018690526000848152600590915291909120815181906107fd9082611836565b50602082015160018201906108129082611836565b50604082015160028201906108279082611836565b506060820151600382019061083c9082611836565b50506040518291506001600160a01b038916907f30385c845b448a36257a6a1716e6ad2e1bc2cbe333cde1e69fe849ad6511adfe90600090a39695505050505050565b336001600160a01b03841614806108a557503360009081526004602052604090205460ff165b806108b557506108b58333610964565b6109015760405162461bcd60e51b815260206004820152601a60248201527f4e6f7420617574686f72697a656420746f207472616e736665720000000000006044820152606401610593565b61091e838383600160405180602001604052806000815250610992565b80826001600160a01b0316846001600160a01b03167fd1ba4ac2e2a11b5101f6cb4d978f514a155b421e8ec396d2d9abaf0bb02917ee60405160405180910390a4505050565b6001600160a01b03918216600090815260016020908152604080832093909416825291909152205460ff1690565b336001600160a01b03861681148015906109b357506109b18682610964565b155b156109e45760405163711bec9160e11b81526001600160a01b03808316600483015287166024820152604401610593565b6105a98686868686610bb3565b6001600160a01b038416610a1b57604051632bfa23e760e11b815260006004820152602401610593565b6001600160a01b038516610a4457604051626a0d4560e21b815260006004820152602401610593565b610a518585858585610c41565b5050505050565b6001600160a01b038316610a8157604051626a0d4560e21b815260006004820152602401610593565b604080516001808252602082018590528183019081526060820184905260a08201909252600060808201818152919291610a5191879185908590610c41565b6001600160a01b038216610ae95760405162ced3e160e81b815260006004820152602401610593565b6001600160a01b03838116600081815260016020908152604080832094871680845294825291829020805460ff191686151590811790915591519182527f17307eab39ab6107e8899845ad3d59bd9653f200f220920489ca2b5937696c31910160405180910390a3505050565b6001600160a01b038416610b8057604051632bfa23e760e11b815260006004820152602401610593565b604080516001808252602082018690528183019081526060820185905260808201909252906105a9600087848487610c41565b6001600160a01b038416610bdd57604051632bfa23e760e11b815260006004820152602401610593565b6001600160a01b038516610c0657604051626a0d4560e21b815260006004820152602401610593565b60408051600180825260208201869052818301908152606082018590526080820190925290610c388787848487610c41565b50505050505050565b610c4d85858585610c94565b6001600160a01b03841615610a515782513390600103610c865760208481015190840151610c7f838989858589610ea8565b50506105a9565b6105a9818787878787610fcc565b8051825114610cc35781518151604051635b05999160e01b815260048101929092526024820152604401610593565b3360005b8351811015610dc9576020818102858101820151908501909101516001600160a01b03881615610d7a576000828152602081815260408083206001600160a01b038c16845290915290205481811015610d53576040516303dee4c560e01b81526001600160a01b038a166004820152602481018290526044810183905260648101849052608401610593565b6000838152602081815260408083206001600160a01b038d16845290915290209082900390555b6001600160a01b03871615610dbf576000828152602081815260408083206001600160a01b038b16845290915281208054839290610db99084906118f6565b90915550505b5050600101610cc7565b508251600103610e4a5760208301516000906020840151909150856001600160a01b0316876001600160a01b0316846001600160a01b03167fc3d58168c5ae7397731d063d5bbf3d657854427343f4c083240f7aacaa2d0f628585604051610e3b929190918252602082015260400190565b60405180910390a45050610a51565b836001600160a01b0316856001600160a01b0316826001600160a01b03167f4a39dc06d4c0dbc64b70af90fd698a233a518aa5d07e595d983b8c0526c8f7fb8686604051610e99929190611909565b60405180910390a45050505050565b6001600160a01b0384163b156105a95760405163f23a6e6160e01b81526001600160a01b0385169063f23a6e6190610eec9089908990889088908890600401611937565b6020604051808303816000875af1925050508015610f27575060408051601f3d908101601f19168201909252610f249181019061197c565b60015b610f90573d808015610f55576040519150601f19603f3d011682016040523d82523d6000602084013e610f5a565b606091505b508051600003610f8857604051632bfa23e760e11b81526001600160a01b0386166004820152602401610593565b805181602001fd5b6001600160e01b0319811663f23a6e6160e01b14610c3857604051632bfa23e760e11b81526001600160a01b0386166004820152602401610593565b6001600160a01b0384163b156105a95760405163bc197c8160e01b81526001600160a01b0385169063bc197c81906110109089908990889088908890600401611999565b6020604051808303816000875af192505050801561104b575060408051601f3d908101601f191682019092526110489181019061197c565b60015b611079573d808015610f55576040519150601f19603f3d011682016040523d82523d6000602084013e610f5a565b6001600160e01b0319811663bc197c8160e01b14610c3857604051632bfa23e760e11b81526001600160a01b0386166004820152602401610593565b80356001600160a01b03811681146110cc57600080fd5b919050565b600080604083850312156110e457600080fd5b6110ed836110b5565b946020939093013593505050565b6001600160e01b03198116811461111157600080fd5b50565b60006020828403121561112657600080fd5b8135611131816110fb565b9392505050565b60006020828403121561114a57600080fd5b5035919050565b60005b8381101561116c578181015183820152602001611154565b50506000910152565b6000815180845261118d816020860160208601611151565b601f01601f19169290920160200192915050565b6020815260006111316020830184611175565b634e487b7160e01b600052604160045260246000fd5b604051601f8201601f1916810167ffffffffffffffff811182821017156111f3576111f36111b4565b604052919050565b600067ffffffffffffffff821115611215576112156111b4565b5060051b60200190565b600082601f83011261123057600080fd5b81356020611245611240836111fb565b6111ca565b8083825260208201915060208460051b87010193508684111561126757600080fd5b602086015b84811015611283578035835291830191830161126c565b509695505050505050565b600082601f83011261129f57600080fd5b813567ffffffffffffffff8111156112b9576112b96111b4565b6112cc601f8201601f19166020016111ca565b8181528460208386010111156112e157600080fd5b816020850160208301376000918101602001919091529392505050565b600080600080600060a0868803121561131657600080fd5b61131f866110b5565b945061132d602087016110b5565b9350604086013567ffffffffffffffff8082111561134a57600080fd5b61135689838a0161121f565b9450606088013591508082111561136c57600080fd5b61137889838a0161121f565b9350608088013591508082111561138e57600080fd5b5061139b8882890161128e565b9150509295509295909350565b600080604083850312156113bb57600080fd5b50508035926020909101359150565b600080604083850312156113dd57600080fd5b823567ffffffffffffffff808211156113f557600080fd5b818501915085601f83011261140957600080fd5b81356020611419611240836111fb565b82815260059290921b8401810191818101908984111561143857600080fd5b948201945b8386101561145d5761144e866110b5565b8252948201949082019061143d565b9650508601359250508082111561147357600080fd5b506114808582860161121f565b9150509250929050565b60008151808452602080850194506020840160005b838110156114bb5781518752958201959082019060010161149f565b509495945050505050565b602081526000611131602083018461148a565b600080604083850312156114ec57600080fd5b6114f5836110b5565b91506020830135801515811461150a57600080fd5b809150509250929050565b600080600080600060a0868803121561152d57600080fd5b611536866110b5565b9450602086013567ffffffffffffffff8082111561155357600080fd5b61155f89838a0161128e565b9550604088013591508082111561157557600080fd5b61158189838a0161128e565b9450606088013591508082111561159757600080fd5b61137889838a0161128e565b6000806000606084860312156115b857600080fd5b6115c1846110b5565b92506115cf602085016110b5565b9150604084013590509250925092565b600080604083850312156115f257600080fd5b6115fb836110b5565b9150611609602084016110b5565b90509250929050565b600080600080600060a0868803121561162a57600080fd5b611633866110b5565b9450611641602087016110b5565b93506040860135925060608601359150608086013567ffffffffffffffff81111561166b57600080fd5b61139b8882890161128e565b600181811c9082168061168b57607f821691505b6020821081036116ab57634e487b7160e01b600052602260045260246000fd5b50919050565b7f646174613a6170706c69636174696f6e2f6a736f6e3b757466382c7b226e616d81526332911d1160e11b6020820152600085516116f6816024850160208a01611151565b71111610113232b9b1b934b83a34b7b7111d1160711b6024918401918201528551611728816036840160208a01611151565b6b1116101134b6b0b3b2911d1160a11b603692909101918201528451611755816042840160208901611151565b7011161011383937b832b93a34b2b9911d1160791b604292909101918201528351611787816053840160208801611151565b61227d60f01b605392909101918201526055019695505050505050565b634e487b7160e01b600052603260045260246000fd5b634e487b7160e01b600052601160045260246000fd5b6000600182016117e2576117e26117ba565b5060010190565b601f821115611831576000816000526020600020601f850160051c810160208610156118125750805b601f850160051c820191505b818110156105a95782815560010161181e565b505050565b815167ffffffffffffffff811115611850576118506111b4565b6118648161185e8454611677565b846117e9565b602080601f83116001811461189957600084156118815750858301515b600019600386901b1c1916600185901b1785556105a9565b600085815260208120601f198616915b828110156118c8578886015182559484019460019091019084016118a9565b50858210156118e65787850151600019600388901b60f8161c191681555b5050505050600190811b01905550565b80820180821115610245576102456117ba565b60408152600061191c604083018561148a565b828103602084015261192e818561148a565b95945050505050565b6001600160a01b03868116825285166020820152604081018490526060810183905260a06080820181905260009061197190830184611175565b979650505050505050565b60006020828403121561198e57600080fd5b8151611131816110fb565b6001600160a01b0386811682528516602082015260a0604082018190526000906119c59083018661148a565b82810360608401526119d7818661148a565b905082810360808401526119eb8185611175565b9897505050505050505056fea2646970667358221220337efa957ef8d3b77cdf757d82b21906e13c281c8a18b04dc51fe7f9f2d2197c64736f6c63430008180033",
  "linkReferences": {},
  "deployedLinkReferences": {}
}