{
  "_format": "hh-sol-artifact-1",
  "contractName": "Vault",
  "sourceName": "contracts/Vault.sol",
  "abi": [
    {
      "inputs": [],
      "stateMutability": "nonpayable",
      "type": "constructor"
    },
    {
      "inputs": [
        {
          "internalType": "address",
          "name": "target",
          "type": "address"
        }
      ],
      "name": "AddressEmptyCode",
      "type": "error"
    },
    {
      "inputs": [
        {
          "internalType": "address",
          "name": "account",
          "type": "address"
        }
      ],
      "name": "AddressInsufficientBalance",
      "type": "error"
    },
    {
      "inputs": [],
      "name": "EnforcedPause",
      "type": "error"
    },
    {
      "inputs": [],
      "name": "ExpectedPause",
      "type": "error"
    },
    {
      "inputs": [],
      "name": "FailedInnerCall",
      "type": "error"
    },
    {
      "inputs": [
        {
          "internalType": "address",
          "name": "owner",
          "type": "address"
        }
      ],
      "name": "OwnableInvalidOwner",
      "type": "error"
    },
    {
      "inputs": [
        {
          "internalType": "address",
          "name": "account",
          "type": "address"
        }
      ],
      "name": "OwnableUnauthorizedAccount",
      "type": "error"
    },
    {
      "inputs": [],
      "name": "ReentrancyGuardReentrantCall",
      "type": "error"
    },
    {
      "inputs": [
        {
          "internalType": "address",
          "name": "token",
          "type": "address"
        }
      ],
      "name": "SafeERC20FailedOperation",
      "type": "error"
    },
    {
      "anonymous": false,
      "inputs": [
        {
          "indexed": true,
          "internalType": "address",
          "name": "previousOwner",
          "type": "address"
        },
        {
          "indexed": true,
          "internalType": "address",
          "name": "newOwner",
          "type": "address"
        }
      ],
      "name": "OwnershipTransferred",
      "type": "event"
    },
    {
      "anonymous": false,
      "inputs": [
        {
          "indexed": false,
          "internalType": "address",
          "name": "account",
          "type": "address"
        }
      ],
      "name": "Paused",
      "type": "event"
    },
    {
      "anonymous": false,
      "inputs": [
        {
          "indexed": false,
          "internalType": "address",
          "name": "account",
          "type": "address"
        }
      ],
      "name": "Unpaused",
      "type": "event"
    },
    {
      "inputs": [],
      "name": "HUNDRED_PERCENT",
      "outputs": [
        {
          "internalType": "uint16",
          "name": "",
          "type": "uint16"
        }
      ],
      "stateMutability": "view",
      "type": "function"
    },
    {
      "inputs": [
        {
          "internalType": "address",
          "name": "",
          "type": "address"
        },
        {
          "internalType": "uint256",
          "name": "",
          "type": "uint256"
        }
      ],
      "name": "colaterais",
      "outputs": [
        {
          "internalType": "uint256",
          "name": "",
          "type": "uint256"
        }
      ],
      "stateMutability": "view",
      "type": "function"
    },
    {
      "inputs": [
        {
          "internalType": "uint256",
          "name": "_tokenid",
          "type": "uint256"
        }
      ],
      "name": "depositaColateral",
      "outputs": [
        {
          "internalType": "bool",
          "name": "b",
          "type": "bool"
        }
      ],
      "stateMutability": "nonpayable",
      "type": "function"
    },
    {
      "inputs": [
        {
          "internalType": "contract IERC20",
          "name": "_token",
          "type": "address"
        },
        {
          "internalType": "uint256",
          "name": "_valor",
          "type": "uint256"
        }
      ],
      "name": "depositaNoCofre",
      "outputs": [
        {
          "internalType": "bool",
          "name": "status",
          "type": "bool"
        }
      ],
      "stateMutability": "nonpayable",
      "type": "function"
    },
    {
      "inputs": [
        {
          "internalType": "address",
          "name": "",
          "type": "address"
        }
      ],
      "name": "depositos",
      "outputs": [
        {
          "internalType": "contract IERC20",
          "name": "tokenDeposito",
          "type": "address"
        },
        {
          "internalType": "uint256",
          "name": "valorDeposito",
          "type": "uint256"
        },
        {
          "components": [
            {
              "internalType": "uint256",
              "name": "ano",
              "type": "uint256"
            },
            {
              "internalType": "uint256",
              "name": "mes",
              "type": "uint256"
            },
            {
              "internalType": "uint256",
              "name": "dia",
              "type": "uint256"
            },
            {
              "internalType": "uint256",
              "name": "hora",
              "type": "uint256"
            },
            {
              "internalType": "uint256",
              "name": "minuto",
              "type": "uint256"
            },
            {
              "internalType": "uint256",
              "name": "segundo",
              "type": "uint256"
            }
          ],
          "internalType": "struct Vault.DateTime",
          "name": "dataDeposito",
          "type": "tuple"
        }
      ],
      "stateMutability": "view",
      "type": "function"
    },
    {
      "inputs": [],
      "name": "descricao",
      "outputs": [
        {
          "internalType": "string",
          "name": "",
          "type": "string"
        }
      ],
      "stateMutability": "view",
      "type": "function"
    },
    {
      "inputs": [
        {
          "internalType": "address",
          "name": "",
          "type": "address"
        }
      ],
      "name": "emprestimos",
      "outputs": [
        {
          "internalType": "contract IERC20",
          "name": "tokenEmprestimo",
          "type": "address"
        },
        {
          "internalType": "uint256",
          "name": "valorEmprestimo",
          "type": "uint256"
        },
        {
          "components": [
            {
              "internalType": "uint256",
              "name": "ano",
              "type": "uint256"
            },
            {
              "internalType": "uint256",
              "name": "mes",
              "type": "uint256"
            },
            {
              "internalType": "uint256",
              "name": "dia",
              "type": "uint256"
            },
            {
              "internalType": "uint256",
              "name": "hora",
              "type": "uint256"
            },
            {
              "internalType": "uint256",
              "name": "minuto",
              "type": "uint256"
            },
            {
              "internalType": "uint256",
              "name": "segundo",
              "type": "uint256"
            }
          ],
          "internalType": "struct Vault.DateTime",
          "name": "dataEmprestimo",
          "type": "tuple"
        }
      ],
      "stateMutability": "view",
      "type": "function"
    },
    {
      "inputs": [
        {
          "internalType": "address",
          "name": "",
          "type": "address"
        }
      ],
      "name": "garantias",
      "outputs": [
        {
          "internalType": "uint256",
          "name": "",
          "type": "uint256"
        }
      ],
      "stateMutability": "view",
      "type": "function"
    },
    {
      "inputs": [
        {
          "internalType": "address",
          "name": "_tomador",
          "type": "address"
        }
      ],
      "name": "getColaterais",
      "outputs": [
        {
          "internalType": "uint256[]",
          "name": "nfts",
          "type": "uint256[]"
        }
      ],
      "stateMutability": "view",
      "type": "function"
    },
    {
      "inputs": [],
      "name": "getDescricao",
      "outputs": [
        {
          "internalType": "string",
          "name": "d",
          "type": "string"
        }
      ],
      "stateMutability": "view",
      "type": "function"
    },
    {
      "inputs": [
        {
          "internalType": "address",
          "name": "_tomador",
          "type": "address"
        }
      ],
      "name": "getGarantias",
      "outputs": [
        {
          "internalType": "uint256",
          "name": "g",
          "type": "uint256"
        }
      ],
      "stateMutability": "view",
      "type": "function"
    },
    {
      "inputs": [
        {
          "internalType": "address",
          "name": "_tomador",
          "type": "address"
        }
      ],
      "name": "getLimiteEmprestimo",
      "outputs": [
        {
          "internalType": "uint256",
          "name": "l",
          "type": "uint256"
        }
      ],
      "stateMutability": "view",
      "type": "function"
    },
    {
      "inputs": [],
      "name": "getLoanERC20Denomination",
      "outputs": [
        {
          "internalType": "contract IERC20",
          "name": "",
          "type": "address"
        }
      ],
      "stateMutability": "view",
      "type": "function"
    },
    {
      "inputs": [],
      "name": "getNFTAceito",
      "outputs": [
        {
          "internalType": "contract NoPregoNFT",
          "name": "n",
          "type": "address"
        }
      ],
      "stateMutability": "view",
      "type": "function"
    },
    {
      "inputs": [],
      "name": "getPrazoVencimnento",
      "outputs": [
        {
          "components": [
            {
              "internalType": "uint256",
              "name": "ano",
              "type": "uint256"
            },
            {
              "internalType": "uint256",
              "name": "mes",
              "type": "uint256"
            },
            {
              "internalType": "uint256",
              "name": "dia",
              "type": "uint256"
            },
            {
              "internalType": "uint256",
              "name": "hora",
              "type": "uint256"
            },
            {
              "internalType": "uint256",
              "name": "minuto",
              "type": "uint256"
            },
            {
              "internalType": "uint256",
              "name": "segundo",
              "type": "uint256"
            }
          ],
          "internalType": "struct Vault.DateTime",
          "name": "p",
          "type": "tuple"
        }
      ],
      "stateMutability": "view",
      "type": "function"
    },
    {
      "inputs": [],
      "name": "getTokenAceito",
      "outputs": [
        {
          "internalType": "contract IERC20",
          "name": "t",
          "type": "address"
        }
      ],
      "stateMutability": "view",
      "type": "function"
    },
    {
      "inputs": [],
      "name": "getValorTotalDepositado",
      "outputs": [
        {
          "internalType": "uint256",
          "name": "v",
          "type": "uint256"
        }
      ],
      "stateMutability": "view",
      "type": "function"
    },
    {
      "inputs": [],
      "name": "isVencido",
      "outputs": [
        {
          "internalType": "bool",
          "name": "b",
          "type": "bool"
        }
      ],
      "stateMutability": "view",
      "type": "function"
    },
    {
      "inputs": [],
      "name": "maturidade",
      "outputs": [
        {
          "internalType": "uint256",
          "name": "",
          "type": "uint256"
        }
      ],
      "stateMutability": "view",
      "type": "function"
    },
    {
      "inputs": [],
      "name": "maxEmprestimo",
      "outputs": [
        {
          "internalType": "uint16",
          "name": "",
          "type": "uint16"
        }
      ],
      "stateMutability": "view",
      "type": "function"
    },
    {
      "inputs": [],
      "name": "nft",
      "outputs": [
        {
          "internalType": "contract NoPregoNFT",
          "name": "",
          "type": "address"
        }
      ],
      "stateMutability": "view",
      "type": "function"
    },
    {
      "inputs": [
        {
          "internalType": "address",
          "name": "",
          "type": "address"
        },
        {
          "internalType": "address",
          "name": "",
          "type": "address"
        },
        {
          "internalType": "uint256[]",
          "name": "",
          "type": "uint256[]"
        },
        {
          "internalType": "uint256[]",
          "name": "",
          "type": "uint256[]"
        },
        {
          "internalType": "bytes",
          "name": "",
          "type": "bytes"
        }
      ],
      "name": "onERC1155BatchReceived",
      "outputs": [
        {
          "internalType": "bytes4",
          "name": "",
          "type": "bytes4"
        }
      ],
      "stateMutability": "nonpayable",
      "type": "function"
    },
    {
      "inputs": [
        {
          "internalType": "address",
          "name": "",
          "type": "address"
        },
        {
          "internalType": "address",
          "name": "",
          "type": "address"
        },
        {
          "internalType": "uint256",
          "name": "",
          "type": "uint256"
        },
        {
          "internalType": "uint256",
          "name": "",
          "type": "uint256"
        },
        {
          "internalType": "bytes",
          "name": "",
          "type": "bytes"
        }
      ],
      "name": "onERC1155Received",
      "outputs": [
        {
          "internalType": "bytes4",
          "name": "",
          "type": "bytes4"
        }
      ],
      "stateMutability": "nonpayable",
      "type": "function"
    },
    {
      "inputs": [],
      "name": "owner",
      "outputs": [
        {
          "internalType": "address",
          "name": "",
          "type": "address"
        }
      ],
      "stateMutability": "view",
      "type": "function"
    },
    {
      "inputs": [],
      "name": "paused",
      "outputs": [
        {
          "internalType": "bool",
          "name": "",
          "type": "bool"
        }
      ],
      "stateMutability": "view",
      "type": "function"
    },
    {
      "inputs": [],
      "name": "prazoMaturidade",
      "outputs": [
        {
          "internalType": "uint256",
          "name": "ano",
          "type": "uint256"
        },
        {
          "internalType": "uint256",
          "name": "mes",
          "type": "uint256"
        },
        {
          "internalType": "uint256",
          "name": "dia",
          "type": "uint256"
        },
        {
          "internalType": "uint256",
          "name": "hora",
          "type": "uint256"
        },
        {
          "internalType": "uint256",
          "name": "minuto",
          "type": "uint256"
        },
        {
          "internalType": "uint256",
          "name": "segundo",
          "type": "uint256"
        }
      ],
      "stateMutability": "view",
      "type": "function"
    },
    {
      "inputs": [],
      "name": "renounceOwnership",
      "outputs": [],
      "stateMutability": "nonpayable",
      "type": "function"
    },
    {
      "inputs": [
        {
          "internalType": "uint256",
          "name": "_ano",
          "type": "uint256"
        },
        {
          "internalType": "uint256",
          "name": "_mes",
          "type": "uint256"
        },
        {
          "internalType": "uint256",
          "name": "_dia",
          "type": "uint256"
        },
        {
          "internalType": "uint256",
          "name": "_hora",
          "type": "uint256"
        },
        {
          "internalType": "uint256",
          "name": "_minuto",
          "type": "uint256"
        },
        {
          "internalType": "uint256",
          "name": "_segundo",
          "type": "uint256"
        }
      ],
      "name": "setDataHoraVencimento",
      "outputs": [],
      "stateMutability": "nonpayable",
      "type": "function"
    },
    {
      "inputs": [
        {
          "internalType": "uint256",
          "name": "_ano",
          "type": "uint256"
        },
        {
          "internalType": "uint256",
          "name": "_mes",
          "type": "uint256"
        },
        {
          "internalType": "uint256",
          "name": "_dia",
          "type": "uint256"
        }
      ],
      "name": "setDataVencimento",
      "outputs": [],
      "stateMutability": "nonpayable",
      "type": "function"
    },
    {
      "inputs": [
        {
          "internalType": "string",
          "name": "_d",
          "type": "string"
        }
      ],
      "name": "setDescricao",
      "outputs": [],
      "stateMutability": "nonpayable",
      "type": "function"
    },
    {
      "inputs": [
        {
          "internalType": "contract NoPregoNFT",
          "name": "_nft",
          "type": "address"
        }
      ],
      "name": "setNFTAceito",
      "outputs": [],
      "stateMutability": "nonpayable",
      "type": "function"
    },
    {
      "inputs": [
        {
          "internalType": "uint16",
          "name": "_r",
          "type": "uint16"
        },
        {
          "internalType": "uint16",
          "name": "_j",
          "type": "uint16"
        }
      ],
      "name": "setTaxas",
      "outputs": [],
      "stateMutability": "nonpayable",
      "type": "function"
    },
    {
      "inputs": [
        {
          "internalType": "contract IERC20",
          "name": "_a",
          "type": "address"
        }
      ],
      "name": "setTokenAceito",
      "outputs": [],
      "stateMutability": "nonpayable",
      "type": "function"
    },
    {
      "inputs": [
        {
          "internalType": "bytes4",
          "name": "_interfaceId",
          "type": "bytes4"
        }
      ],
      "name": "supportsInterface",
      "outputs": [
        {
          "internalType": "bool",
          "name": "",
          "type": "bool"
        }
      ],
      "stateMutability": "view",
      "type": "function"
    },
    {
      "inputs": [],
      "name": "taxaJuros",
      "outputs": [
        {
          "internalType": "uint16",
          "name": "",
          "type": "uint16"
        }
      ],
      "stateMutability": "view",
      "type": "function"
    },
    {
      "inputs": [],
      "name": "taxaRemuneracao",
      "outputs": [
        {
          "internalType": "uint16",
          "name": "",
          "type": "uint16"
        }
      ],
      "stateMutability": "view",
      "type": "function"
    },
    {
      "inputs": [],
      "name": "tokenAceito",
      "outputs": [
        {
          "internalType": "contract IERC20",
          "name": "",
          "type": "address"
        }
      ],
      "stateMutability": "view",
      "type": "function"
    },
    {
      "inputs": [
        {
          "internalType": "contract IERC20",
          "name": "_token",
          "type": "address"
        },
        {
          "internalType": "uint256",
          "name": "_valor",
          "type": "uint256"
        },
        {
          "internalType": "uint256",
          "name": "_deadline",
          "type": "uint256"
        },
        {
          "internalType": "uint8",
          "name": "_v",
          "type": "uint8"
        },
        {
          "internalType": "bytes32",
          "name": "_r",
          "type": "bytes32"
        },
        {
          "internalType": "bytes32",
          "name": "_s",
          "type": "bytes32"
        }
      ],
      "name": "tomaEmprestimo",
      "outputs": [
        {
          "internalType": "bool",
          "name": "b",
          "type": "bool"
        }
      ],
      "stateMutability": "nonpayable",
      "type": "function"
    },
    {
      "inputs": [
        {
          "internalType": "address",
          "name": "newOwner",
          "type": "address"
        }
      ],
      "name": "transferOwnership",
      "outputs": [],
      "stateMutability": "nonpayable",
      "type": "function"
    },
    {
      "inputs": [],
      "name": "valorTotalDepositado",
      "outputs": [
        {
          "internalType": "uint256",
          "name": "",
          "type": "uint256"
        }
      ],
      "stateMutability": "view",
      "type": "function"
    },
    {
      "inputs": [],
      "name": "valorTotalEmprestado",
      "outputs": [
        {
          "internalType": "uint256",
          "name": "",
          "type": "uint256"
        }
      ],
      "stateMutability": "view",
      "type": "function"
    }
  ],
  "bytecode": "0x6080604052600a80546001600160a01b03199081167394a9d9ac8a22534e3faca9f4e7f2e2cf85d5e4c8179091556000600b819055600c556010805490911673de498da263f00dc362ba20be9621d967e719aed71790553480156200006357600080fd5b5033806200008c57604051631e4fbdf760e01b8152600060048201526024015b60405180910390fd5b6200009781620000e4565b506000805460ff60a01b1916905560018055620000c87394a9d9ac8a22534e3faca9f4e7f2e2cf85d5e4c862000134565b600d805461ffff60201b1916651f400000000017905562000191565b600080546001600160a01b038381166001600160a01b0319831681178455604051919092169283917f8be0079c531659141344cd1fd0a4f28419497f9722a3daafe3b4186f6b6457e09190a35050565b6200013e62000160565b600a80546001600160a01b0319166001600160a01b0392909216919091179055565b6000546001600160a01b031633146200018f5760405163118cdaa760e01b815233600482015260240162000083565b565b61278780620001a16000396000f3fe608060405234801561001057600080fd5b50600436106102535760003560e01c80637a12f40511610146578063d50694f6116100c3578063f23a6e6111610087578063f23a6e6114610633578063f2fde38b14610653578063f301dda914610666578063f37ec3a114610686578063fbf316ef1461068e578063fda68c911461069757600080fd5b8063d50694f61461055f578063d9dd5533146105da578063ed321095146105ed578063ee3947fc14610600578063ef51a4931461062057600080fd5b80638da5cb5b1161010a5780638da5cb5b146104f857806395b9aebf14610509578063a5e130c0146104cc578063b01ddf851461051c578063bc197c811461052457600080fd5b80637a12f405146104ba57806380a93937146104c357806381f97e5f146104cc5780638279ac7c146104dd5780638ca5da45146104e557600080fd5b8063486d01d8116101d4578063664e62b911610198578063664e62b9146103c15780636767d67a1461044b5780636ed93dd01461045e57806370fd8d2e14610467578063715018a6146104b257600080fd5b8063486d01d8146103545780634beeeb4a1461036757806357fec99b146103885780635a4a16e81461039b5780635c975abb146103af57600080fd5b80634008018f1161021b5780634008018f146102d257806340e0a636146102f75780634443f8ab1461032057806345bacd5f1461032e57806347ccca021461034157600080fd5b806301ffc9a71461025857806302c905f914610280578063191113d7146102955780631df84ff7146102aa578063250a8899146102bf575b600080fd5b61026b610266366004611e10565b6106c0565b60405190151581526020015b60405180910390f35b6102886106f7565b6040516102779190611e5e565b6102a86102a3366004611e91565b610785565b005b6102b2610800565b6040516102779190611ed4565b61026b6102cd366004611f2c565b610876565b6010546001600160a01b03165b6040516001600160a01b039091168152602001610277565b600d5461030d90640100000000900461ffff1681565b60405161ffff9091168152602001610277565b600d5461030d9061ffff1681565b6102a861033c366004611f8e565b610e1c565b6010546102df906001600160a01b031681565b61026b610362366004611fab565b610e46565b61037a610375366004611fc4565b610e5f565b604051908152602001610277565b6102a8610396366004612007565b610e90565b600d5461030d9062010000900461ffff1681565b600054600160a01b900460ff1661026b565b61043c6103cf366004611f8e565b600e6020908152600091825260409182902080546001820154845160c08101865260028401548152600384015494810194909452600483015494840194909452600582015460608401526006820154608084015260079091015460a08301526001600160a01b0316919083565b6040516102779392919061203a565b6102a861045936600461209c565b610ec0565b61030d61271081565b60035460045460055460065460075460085461048595949392919086565b604080519687526020870195909552938501929092526060840152608083015260a082015260c001610277565b6102a8610f2d565b61037a600b5481565b61037a60025481565b600a546001600160a01b03166102df565b610288610f41565b600a546102df906001600160a01b031681565b6000546001600160a01b03166102df565b61037a610517366004611f8e565b610fd3565b600b5461037a565b610546610532366004612156565b63bc197c8160e01b98975050505050505050565b6040516001600160e01b03199091168152602001610277565b61043c61056d366004611f8e565b600f6020908152600091825260409182902080546001820154845160c08101865260028401548152600384015494810194909452600483015494840194909452600582015460608401526006820154608084015260079091015460a08301526001600160a01b0316919083565b6102a86105e836600461222b565b611016565b61026b6105fb366004611fc4565b61102e565b61037a61060e366004611f8e565b60126020526000908152604090205481565b6102a861062e366004611f8e565b611373565b6105466106413660046122dc565b63f23a6e6160e01b9695505050505050565b6102a8610661366004611f8e565b61139d565b610679610674366004611f8e565b6113db565b6040516102779190612358565b61026b611447565b61037a600c5481565b61037a6106a5366004611f8e565b6001600160a01b031660009081526012602052604090205490565b60006001600160e01b03198216630271189760e51b14806106f157506001600160e01b031982166301ffc9a760e01b145b92915050565b600980546107049061239c565b80601f01602080910402602001604051908101604052809291908181526020018280546107309061239c565b801561077d5780601f106107525761010080835404028352916020019161077d565b820191906000526020600020905b81548152906001019060200180831161076057829003601f168201915b505050505081565b61078d61148b565b61079b8686868686866114b8565b6107e35760405162461bcd60e51b8152602060048201526014602482015273646174612f686f726120696e76616c696461732160601b60448201526064015b60405180910390fd5b600395909555600493909355600591909155600655600755600855565b6108396040518060c001604052806000815260200160008152602001600081526020016000815260200160008152602001600081525090565b506040805160c08101825260035481526004546020820152600554918101919091526006546060820152600754608082015260085460a082015290565b600033610881611dbb565b6001600160a01b03891681526020810188905261089c611447565b156108f55760405162461bcd60e51b8152602060048201526024808201527f7072617a6f2064652076656e63696d656e746f20646f20636f6672652076656e6044820152636369646f60e01b60648201526084016107da565b600a5481516001600160a01b039081169116146109245760405162461bcd60e51b81526004016107da906123d6565b60008160200151116109865760405162461bcd60e51b815260206004820152602560248201527f7175616e74696461646520656d707265737461646120696e666572696f722061604482015264207a65726f60d81b60648201526084016107da565b600061099183610fd3565b905081602001518110156109e75760405162461bcd60e51b815260206004820152601760248201527f676172616e7469617320696e737566696369656e74657300000000000000000060448201526064016107da565b600b548260200151600c546109fc9190612414565b1115610a1a5760405162461bcd60e51b81526004016107da90612427565b8151602083015160405163d505accf60e01b81526001600160a01b0386811660048301523060248301526044820192909252606481018b905260ff8a16608482015260a4810189905260c4810188905291169063d505accf9060e401600060405180830381600087803b158015610a9057600080fd5b505af1158015610aa4573d6000803e3d6000fd5b50508351604051636eb1769f60e11b81526001600160a01b03878116600483015230602483015260009450909116915063dd62ed3e90604401602060405180830381865afa158015610afa573d6000803e3d6000fd5b505050506040513d601f19601f82011682018060405250810190610b1e919061246d565b90508260200151811015610b745760405162461bcd60e51b815260206004820152601f60248201527f6170726f766163616f20646520746f6b656e20696e737566696369656e74650060448201526064016107da565b82516040516370a0823160e01b81523060048201526000916001600160a01b0316906370a0823190602401602060405180830381865afa158015610bbc573d6000803e3d6000fd5b505050506040513d601f19601f82011682018060405250810190610be0919061246d565b9050610bf68460000151308787602001516114f8565b83516040516370a0823160e01b81523060048201526000916001600160a01b0316906370a0823190602401602060405180830381865afa158015610c3e573d6000803e3d6000fd5b505050506040513d601f19601f82011682018060405250810190610c62919061246d565b9050846020015182610c749190612486565b8114610c925760405162461bcd60e51b81526004016107da90612499565b600080600080600080610ca442611558565b955095509550955095509550858b604001516000018181525050848b604001516020018181525050838b604001516040018181525050828b604001516060018181525050818b604001516080018181525050808b6040015160a00181815250508a600f60008e6001600160a01b03166001600160a01b0316815260200190815260200160002060008201518160000160006101000a8154816001600160a01b0302191690836001600160a01b0316021790555060208201518160010155604082015181600201600082015181600001556020820151816001015560408201518160020155606082015181600301556080820151816004015560a082015181600501555050905050610dbd8b600001518c602001516115cc565b610e015760405162461bcd60e51b81526020600482015260156024820152746465706f7369746f206d616c20737563656469646f60581b60448201526064016107da565b60019c505050505050505050505050505b9695505050505050565b610e2461148b565b601080546001600160a01b0319166001600160a01b0392909216919091179055565b6010546000906106f1906001600160a01b03168361164b565b60116020528160005260406000208181548110610e7b57600080fd5b90600052602060002001600091509150505481565b610e9861148b565b600d805461ffff928316620100000263ffffffff199091169290931691909117919091179055565b610ec861148b565b610ed383838361177a565b610f105760405162461bcd60e51b815260206004820152600e60248201526d6461746120696e76616c6964612160901b60448201526064016107da565b600392909255600455600555600060068190556007819055600855565b610f3561148b565b610f3f60006117d1565b565b606060098054610f509061239c565b80601f0160208091040260200160405190810160405280929190818152602001828054610f7c9061239c565b8015610fc95780601f10610f9e57610100808354040283529160200191610fc9565b820191906000526020600020905b815481529060010190602001808311610fac57829003601f168201915b5050505050905090565b6001600160a01b038116600090815260126020526040812054600d546110089061271090640100000000900461ffff166124f6565b61ffff166106f19190612517565b61101e61148b565b600961102a828261257e565b5050565b600033611039611dbb565b6001600160a01b0380861680835260208301869052600a54909116146110715760405162461bcd60e51b81526004016107da906123d6565b60008160200151116110d35760405162461bcd60e51b815260206004820152602560248201527f7175616e746964616465206465706f73697461646120696e666572696f722061604482015264207a65726f60d81b60648201526084016107da565b80516040516370a0823160e01b81523060048201526000916001600160a01b0316906370a0823190602401602060405180830381865afa15801561111b573d6000803e3d6000fd5b505050506040513d601f19601f8201168201806040525081019061113f919061246d565b90506111558260000151843085602001516114f8565b81516040516370a0823160e01b81523060048201526000916001600160a01b0316906370a0823190602401602060405180830381865afa15801561119d573d6000803e3d6000fd5b505050506040513d601f19601f820116820180604052508101906111c1919061246d565b90508260200151826111d39190612414565b81146111f15760405162461bcd60e51b81526004016107da90612499565b60008060008060008061120342611558565b9550955095509550955095508589604001516000018181525050848960400151602001818152505083896040015160400181815250508289604001516060018181525050818960400151608001818152505080896040015160a001818152505088600e60008c6001600160a01b03166001600160a01b0316815260200190815260200160002060008201518160000160006101000a8154816001600160a01b0302191690836001600160a01b0316021790555060208201518160010155604082015181600201600082015181600001556020820151816001015560408201518160020155606082015181600301556080820151816004015560a08201518160050155505090505061131c89600001518a60200151611821565b6113605760405162461bcd60e51b81526020600482015260156024820152746465706f7369746f206d616c20737563656469646f60581b60448201526064016107da565b5060019c9b505050505050505050505050565b61137b61148b565b600a80546001600160a01b0319166001600160a01b0392909216919091179055565b6113a561148b565b6001600160a01b0381166113cf57604051631e4fbdf760e01b8152600060048201526024016107da565b6113d8816117d1565b50565b6001600160a01b03811660009081526011602090815260409182902080548351818402810184019094528084526060939283018282801561143b57602002820191906000526020600020905b815481526020019060010190808311611427575b50505050509050919050565b60035460045460055460065460075460085460009542958795611471959294919390929190611863565b9050808210611481576001611484565b60005b9250505090565b6000546001600160a01b03163314610f3f5760405163118cdaa760e01b81523360048201526024016107da565b60006114c587878761177a565b15610e12576018841080156114da5750603c83105b80156114e65750603c82105b15610e12575060019695505050505050565b604080516001600160a01b0385811660248301528416604482015260648082018490528251808303909101815260849091019091526020810180516001600160e01b03166323b872dd60e01b1790526115529085906118bf565b50505050565b6000808080808061157461156f620151808961263e565b611927565b91975095509350600061158a6201518089612652565b9050611598610e108261263e565b93506115a6610e1082612652565b90506115b3603c8261263e565b92506115c0603c82612652565b91505091939550919395565b600a546000906001600160a01b038481169116146115fc5760405162461bcd60e51b81526004016107da906123d6565b600b5482600c5461160d9190612414565b111561162b5760405162461bcd60e51b81526004016107da90612427565b81600c600082825461163d9190612414565b909155506001949350505050565b33600081815260116020908152604080832080546001810182559084529183209091018490555163d70faf6160e01b8152600481018490529091906001600160a01b0385169063d70faf6190602401602060405180830381865afa1580156116b7573d6000803e3d6000fd5b505050506040513d601f19601f820116820180604052508101906116db919061246d565b6001600160a01b03821660009081526012602052604081208054909190611703908490612414565b90915550506040516317d5759960e31b81526001600160a01b0382811660048301523060248301526044820185905285169063beabacc890606401600060405180830381600087803b15801561175857600080fd5b505af115801561176c573d6000803e3d6000fd5b506001979650505050505050565b60006107b2841015801561178e5750600083115b801561179b5750600c8311155b156117ca5760006117ac8585611a9b565b90506000831180156117be5750808311155b156117c857600191505b505b9392505050565b600080546001600160a01b038381166001600160a01b0319831681178455604051919092169283917f8be0079c531659141344cd1fd0a4f28419497f9722a3daafe3b4186f6b6457e09190a35050565b600a546000906001600160a01b038481169116146118515760405162461bcd60e51b81526004016107da906123d6565b81600b600082825461163d9190612414565b600081611871603c85612517565b61187d610e1087612517565b6201518061188c8b8b8b611b21565b6118969190612517565b6118a09190612414565b6118aa9190612414565b6118b49190612414565b979650505050505050565b60006118d46001600160a01b03841683611c5e565b905080516000141580156118f95750808060200190518101906118f79190612666565b155b1561192257604051635274afe760e01b81526001600160a01b03841660048201526024016107da565b505050565b60008080838162253d8c61193e8362010bd9612688565b6119489190612688565b9050600062023ab161195b8360046126b0565b61196591906126e0565b905060046119768262023ab16126b0565b611981906003612688565b61198b91906126e0565b611995908361270e565b9150600062164b096119a8846001612688565b6119b490610fa06126b0565b6119be91906126e0565b905060046119ce826105b56126b0565b6119d891906126e0565b6119e2908461270e565b6119ed90601f612688565b9250600061098f6119ff8560506126b0565b611a0991906126e0565b905060006050611a1b8361098f6126b0565b611a2591906126e0565b611a2f908661270e565b9050611a3c600b836126e0565b9450611a4985600c6126b0565b611a54836002612688565b611a5e919061270e565b91508483611a6d60318761270e565b611a789060646126b0565b611a829190612688565b611a8c9190612688565b9a919950975095505050505050565b60008160011480611aac5750816003145b80611ab75750816005145b80611ac25750816007145b80611acd5750816008145b80611ad8575081600a145b80611ae3575081600c145b15611af05750601f6106f1565b81600214611b005750601e6106f1565b611b0983611c6c565b611b1457601c611b17565b601d5b60ff169392505050565b60006107b2841015611b3257600080fd5b838383600062253d8c60046064600c611b4c600e8861270e565b611b5691906126e0565b611b6288611324612688565b611b6c9190612688565b611b7691906126e0565b611b819060036126b0565b611b8b91906126e0565b600c80611b99600e8861270e565b611ba391906126e0565b611bae90600c6126b0565b611bb960028861270e565b611bc3919061270e565b611bcf9061016f6126b0565b611bd991906126e0565b6004600c611be8600e8961270e565b611bf291906126e0565b611bfe896112c0612688565b611c089190612688565b611c14906105b56126b0565b611c1e91906126e0565b611c2a617d4b8761270e565b611c349190612688565b611c3e9190612688565b611c48919061270e565b611c52919061270e565b98975050505050505050565b60606117ca83836000611ca8565b6000611c79600483612652565b158015611c8f5750611c8c606483612652565b15155b806106f15750611ca161019083612652565b1592915050565b606081471015611ccd5760405163cd78605960e01b81523060048201526024016107da565b600080856001600160a01b03168486604051611ce99190612735565b60006040518083038185875af1925050503d8060008114611d26576040519150601f19603f3d011682016040523d82523d6000602084013e611d2b565b606091505b5091509150610e12868383606082611d4b57611d4682611d92565b6117ca565b8151158015611d6257506001600160a01b0384163b155b15611d8b57604051639996b31560e01b81526001600160a01b03851660048201526024016107da565b50806117ca565b805115611da25780518082602001fd5b604051630a12f52160e11b815260040160405180910390fd5b6040805160608101825260008082526020820152908101611e0b6040518060c001604052806000815260200160008152602001600081526020016000815260200160008152602001600081525090565b905290565b600060208284031215611e2257600080fd5b81356001600160e01b0319811681146117ca57600080fd5b60005b83811015611e55578181015183820152602001611e3d565b50506000910152565b6020815260008251806020840152611e7d816040850160208701611e3a565b601f01601f19169190910160400192915050565b60008060008060008060c08789031215611eaa57600080fd5b505084359660208601359650604086013595606081013595506080810135945060a0013592509050565b60c081016106f18284805182526020810151602083015260408101516040830152606081015160608301526080810151608083015260a081015160a08301525050565b6001600160a01b03811681146113d857600080fd5b60008060008060008060c08789031215611f4557600080fd5b8635611f5081611f17565b95506020870135945060408701359350606087013560ff81168114611f7457600080fd5b9598949750929560808101359460a0909101359350915050565b600060208284031215611fa057600080fd5b81356117ca81611f17565b600060208284031215611fbd57600080fd5b5035919050565b60008060408385031215611fd757600080fd5b8235611fe281611f17565b946020939093013593505050565b803561ffff8116811461200257600080fd5b919050565b6000806040838503121561201a57600080fd5b61202383611ff0565b915061203160208401611ff0565b90509250929050565b6001600160a01b03841681526020810183905261010081016120946040830184805182526020810151602083015260408101516040830152606081015160608301526080810151608083015260a081015160a08301525050565b949350505050565b6000806000606084860312156120b157600080fd5b505081359360208301359350604090920135919050565b60008083601f8401126120da57600080fd5b50813567ffffffffffffffff8111156120f257600080fd5b6020830191508360208260051b850101111561210d57600080fd5b9250929050565b60008083601f84011261212657600080fd5b50813567ffffffffffffffff81111561213e57600080fd5b60208301915083602082850101111561210d57600080fd5b60008060008060008060008060a0898b03121561217257600080fd5b883561217d81611f17565b9750602089013561218d81611f17565b9650604089013567ffffffffffffffff808211156121aa57600080fd5b6121b68c838d016120c8565b909850965060608b01359150808211156121cf57600080fd5b6121db8c838d016120c8565b909650945060808b01359150808211156121f457600080fd5b506122018b828c01612114565b999c989b5096995094979396929594505050565b634e487b7160e01b600052604160045260246000fd5b60006020828403121561223d57600080fd5b813567ffffffffffffffff8082111561225557600080fd5b818401915084601f83011261226957600080fd5b81358181111561227b5761227b612215565b604051601f8201601f19908116603f011681019083821181831017156122a3576122a3612215565b816040528281528760208487010111156122bc57600080fd5b826020860160208301376000928101602001929092525095945050505050565b60008060008060008060a087890312156122f557600080fd5b863561230081611f17565b9550602087013561231081611f17565b94506040870135935060608701359250608087013567ffffffffffffffff81111561233a57600080fd5b61234689828a01612114565b979a9699509497509295939492505050565b6020808252825182820181905260009190848201906040850190845b8181101561239057835183529284019291840191600101612374565b50909695505050505050565b600181811c908216806123b057607f821691505b6020821081036123d057634e487b7160e01b600052602260045260246000fd5b50919050565b6020808252600e908201526d746f6b656e20696e76616c69646f60901b604082015260600190565b634e487b7160e01b600052601160045260246000fd5b808201808211156106f1576106f16123fe565b60208082526026908201527f76616c6f72206465706f73697461646f206e6f20636f66726520696e737566696040820152656369656e746560d01b606082015260800190565b60006020828403121561247f57600080fd5b5051919050565b818103818111156106f1576106f16123fe565b60208082526027908201527f53616c646f2066696e616c206e616f20636f72726573706f6e646520616f20656040820152667370657261646f60c81b606082015260800190565b634e487b7160e01b600052601260045260246000fd5b600061ffff8084168061250b5761250b6124e0565b92169190910492915050565b80820281158282048414176106f1576106f16123fe565b601f821115611922576000816000526020600020601f850160051c810160208610156125575750805b601f850160051c820191505b8181101561257657828155600101612563565b505050505050565b815167ffffffffffffffff81111561259857612598612215565b6125ac816125a6845461239c565b8461252e565b602080601f8311600181146125e157600084156125c95750858301515b600019600386901b1c1916600185901b178555612576565b600085815260208120601f198616915b82811015612610578886015182559484019460019091019084016125f1565b508582101561262e5787850151600019600388901b60f8161c191681555b5050505050600190811b01905550565b60008261264d5761264d6124e0565b500490565b600082612661576126616124e0565b500690565b60006020828403121561267857600080fd5b815180151581146117ca57600080fd5b80820182811260008312801582168215821617156126a8576126a86123fe565b505092915050565b80820260008212600160ff1b841416156126cc576126cc6123fe565b81810583148215176106f1576106f16123fe565b6000826126ef576126ef6124e0565b600160ff1b821460001984141615612709576127096123fe565b500590565b818103600083128015838313168383128216171561272e5761272e6123fe565b5092915050565b60008251612747818460208701611e3a565b919091019291505056fea2646970667358221220b32a275acba8b87a004053c71c4de8d3e4fc815279a4bb0cf49ac9d3e978ba4364736f6c63430008180033",
  "linkReferences": {},
  "deployedLinkReferences": {}
}