{
  "_format": "hh-sol-artifact-1",
  "contractName": "Vault",
  "sourceName": "contracts/Vault.sol",
  "abi": [
    {
      "inputs": [],
      "stateMutability": "nonpayable",
      "type": "constructor"
    },
    {
      "inputs": [
        {
          "internalType": "address",
          "name": "target",
          "type": "address"
        }
      ],
      "name": "AddressEmptyCode",
      "type": "error"
    },
    {
      "inputs": [
        {
          "internalType": "address",
          "name": "account",
          "type": "address"
        }
      ],
      "name": "AddressInsufficientBalance",
      "type": "error"
    },
    {
      "inputs": [],
      "name": "EnforcedPause",
      "type": "error"
    },
    {
      "inputs": [],
      "name": "ExpectedPause",
      "type": "error"
    },
    {
      "inputs": [],
      "name": "FailedInnerCall",
      "type": "error"
    },
    {
      "inputs": [
        {
          "internalType": "address",
          "name": "owner",
          "type": "address"
        }
      ],
      "name": "OwnableInvalidOwner",
      "type": "error"
    },
    {
      "inputs": [
        {
          "internalType": "address",
          "name": "account",
          "type": "address"
        }
      ],
      "name": "OwnableUnauthorizedAccount",
      "type": "error"
    },
    {
      "inputs": [],
      "name": "ReentrancyGuardReentrantCall",
      "type": "error"
    },
    {
      "inputs": [
        {
          "internalType": "address",
          "name": "token",
          "type": "address"
        }
      ],
      "name": "SafeERC20FailedOperation",
      "type": "error"
    },
    {
      "anonymous": false,
      "inputs": [
        {
          "indexed": true,
          "internalType": "address",
          "name": "previousOwner",
          "type": "address"
        },
        {
          "indexed": true,
          "internalType": "address",
          "name": "newOwner",
          "type": "address"
        }
      ],
      "name": "OwnershipTransferred",
      "type": "event"
    },
    {
      "anonymous": false,
      "inputs": [
        {
          "indexed": false,
          "internalType": "address",
          "name": "account",
          "type": "address"
        }
      ],
      "name": "Paused",
      "type": "event"
    },
    {
      "anonymous": false,
      "inputs": [
        {
          "indexed": false,
          "internalType": "address",
          "name": "account",
          "type": "address"
        }
      ],
      "name": "Unpaused",
      "type": "event"
    },
    {
      "inputs": [
        {
          "internalType": "contract NoPregoNFT",
          "name": "_nft",
          "type": "address"
        },
        {
          "internalType": "uint256",
          "name": "_tokenid",
          "type": "uint256"
        }
      ],
      "name": "depositaColateral",
      "outputs": [
        {
          "internalType": "bool",
          "name": "b",
          "type": "bool"
        }
      ],
      "stateMutability": "nonpayable",
      "type": "function"
    },
    {
      "inputs": [
        {
          "internalType": "uint256",
          "name": "_tokenid",
          "type": "uint256"
        }
      ],
      "name": "depositaColateral",
      "outputs": [
        {
          "internalType": "bool",
          "name": "b",
          "type": "bool"
        }
      ],
      "stateMutability": "nonpayable",
      "type": "function"
    },
    {
      "inputs": [
        {
          "internalType": "contract IERC20",
          "name": "_token",
          "type": "address"
        },
        {
          "internalType": "uint256",
          "name": "_valor",
          "type": "uint256"
        }
      ],
      "name": "depositaNoCofre",
      "outputs": [
        {
          "internalType": "bool",
          "name": "status",
          "type": "bool"
        }
      ],
      "stateMutability": "nonpayable",
      "type": "function"
    },
    {
      "inputs": [
        {
          "internalType": "address",
          "name": "_tomador",
          "type": "address"
        }
      ],
      "name": "getColaterais",
      "outputs": [
        {
          "internalType": "uint256[]",
          "name": "nfts",
          "type": "uint256[]"
        }
      ],
      "stateMutability": "view",
      "type": "function"
    },
    {
      "inputs": [],
      "name": "getDescricao",
      "outputs": [
        {
          "internalType": "string",
          "name": "d",
          "type": "string"
        }
      ],
      "stateMutability": "view",
      "type": "function"
    },
    {
      "inputs": [
        {
          "internalType": "address",
          "name": "_tomador",
          "type": "address"
        }
      ],
      "name": "getGarantias",
      "outputs": [
        {
          "internalType": "uint256",
          "name": "g",
          "type": "uint256"
        }
      ],
      "stateMutability": "view",
      "type": "function"
    },
    {
      "inputs": [],
      "name": "getLoanERC20Denomination",
      "outputs": [
        {
          "internalType": "contract IERC20",
          "name": "",
          "type": "address"
        }
      ],
      "stateMutability": "view",
      "type": "function"
    },
    {
      "inputs": [],
      "name": "getPrazoVencimnento",
      "outputs": [
        {
          "components": [
            {
              "internalType": "uint256",
              "name": "ano",
              "type": "uint256"
            },
            {
              "internalType": "uint256",
              "name": "mes",
              "type": "uint256"
            },
            {
              "internalType": "uint256",
              "name": "dia",
              "type": "uint256"
            },
            {
              "internalType": "uint256",
              "name": "hora",
              "type": "uint256"
            },
            {
              "internalType": "uint256",
              "name": "minuto",
              "type": "uint256"
            },
            {
              "internalType": "uint256",
              "name": "segundo",
              "type": "uint256"
            }
          ],
          "internalType": "struct Vault.DateTime",
          "name": "p",
          "type": "tuple"
        }
      ],
      "stateMutability": "view",
      "type": "function"
    },
    {
      "inputs": [],
      "name": "getTokenAceito",
      "outputs": [
        {
          "internalType": "contract IERC20",
          "name": "t",
          "type": "address"
        }
      ],
      "stateMutability": "view",
      "type": "function"
    },
    {
      "inputs": [],
      "name": "getValorTotalDepositado",
      "outputs": [
        {
          "internalType": "uint256",
          "name": "v",
          "type": "uint256"
        }
      ],
      "stateMutability": "view",
      "type": "function"
    },
    {
      "inputs": [],
      "name": "isVencido",
      "outputs": [
        {
          "internalType": "bool",
          "name": "b",
          "type": "bool"
        }
      ],
      "stateMutability": "view",
      "type": "function"
    },
    {
      "inputs": [
        {
          "internalType": "address",
          "name": "",
          "type": "address"
        },
        {
          "internalType": "address",
          "name": "",
          "type": "address"
        },
        {
          "internalType": "uint256[]",
          "name": "",
          "type": "uint256[]"
        },
        {
          "internalType": "uint256[]",
          "name": "",
          "type": "uint256[]"
        },
        {
          "internalType": "bytes",
          "name": "",
          "type": "bytes"
        }
      ],
      "name": "onERC1155BatchReceived",
      "outputs": [
        {
          "internalType": "bytes4",
          "name": "",
          "type": "bytes4"
        }
      ],
      "stateMutability": "nonpayable",
      "type": "function"
    },
    {
      "inputs": [
        {
          "internalType": "address",
          "name": "",
          "type": "address"
        },
        {
          "internalType": "address",
          "name": "",
          "type": "address"
        },
        {
          "internalType": "uint256",
          "name": "",
          "type": "uint256"
        },
        {
          "internalType": "uint256",
          "name": "",
          "type": "uint256"
        },
        {
          "internalType": "bytes",
          "name": "",
          "type": "bytes"
        }
      ],
      "name": "onERC1155Received",
      "outputs": [
        {
          "internalType": "bytes4",
          "name": "",
          "type": "bytes4"
        }
      ],
      "stateMutability": "nonpayable",
      "type": "function"
    },
    {
      "inputs": [],
      "name": "owner",
      "outputs": [
        {
          "internalType": "address",
          "name": "",
          "type": "address"
        }
      ],
      "stateMutability": "view",
      "type": "function"
    },
    {
      "inputs": [],
      "name": "paused",
      "outputs": [
        {
          "internalType": "bool",
          "name": "",
          "type": "bool"
        }
      ],
      "stateMutability": "view",
      "type": "function"
    },
    {
      "inputs": [],
      "name": "renounceOwnership",
      "outputs": [],
      "stateMutability": "nonpayable",
      "type": "function"
    },
    {
      "inputs": [
        {
          "internalType": "uint256",
          "name": "_ano",
          "type": "uint256"
        },
        {
          "internalType": "uint256",
          "name": "_mes",
          "type": "uint256"
        },
        {
          "internalType": "uint256",
          "name": "_dia",
          "type": "uint256"
        },
        {
          "internalType": "uint256",
          "name": "_hora",
          "type": "uint256"
        },
        {
          "internalType": "uint256",
          "name": "_minuto",
          "type": "uint256"
        },
        {
          "internalType": "uint256",
          "name": "_segundo",
          "type": "uint256"
        }
      ],
      "name": "setDataHoraVencimento",
      "outputs": [],
      "stateMutability": "nonpayable",
      "type": "function"
    },
    {
      "inputs": [
        {
          "internalType": "uint256",
          "name": "_ano",
          "type": "uint256"
        },
        {
          "internalType": "uint256",
          "name": "_mes",
          "type": "uint256"
        },
        {
          "internalType": "uint256",
          "name": "_dia",
          "type": "uint256"
        }
      ],
      "name": "setDataVencimento",
      "outputs": [],
      "stateMutability": "nonpayable",
      "type": "function"
    },
    {
      "inputs": [
        {
          "internalType": "string",
          "name": "_d",
          "type": "string"
        }
      ],
      "name": "setDescricao",
      "outputs": [],
      "stateMutability": "nonpayable",
      "type": "function"
    },
    {
      "inputs": [
        {
          "internalType": "contract IERC20",
          "name": "_a",
          "type": "address"
        }
      ],
      "name": "setTokenAceito",
      "outputs": [],
      "stateMutability": "nonpayable",
      "type": "function"
    },
    {
      "inputs": [
        {
          "internalType": "bytes4",
          "name": "_interfaceId",
          "type": "bytes4"
        }
      ],
      "name": "supportsInterface",
      "outputs": [
        {
          "internalType": "bool",
          "name": "",
          "type": "bool"
        }
      ],
      "stateMutability": "view",
      "type": "function"
    },
    {
      "inputs": [
        {
          "internalType": "address",
          "name": "newOwner",
          "type": "address"
        }
      ],
      "name": "transferOwnership",
      "outputs": [],
      "stateMutability": "nonpayable",
      "type": "function"
    }
  ],
  "bytecode": "0x6080604052600a80546001600160a01b03199081167394a9d9ac8a22534e3faca9f4e7f2e2cf85d5e4c8179091556000600b819055600c55600f805490911673de498da263f00dc362ba20be9621d967e719aed71790553480156200006357600080fd5b5033806200008c57604051631e4fbdf760e01b8152600060048201526024015b60405180910390fd5b6200009781620000ce565b506000805460ff60a01b1916905560018055620000c87394a9d9ac8a22534e3faca9f4e7f2e2cf85d5e4c86200011e565b6200017b565b600080546001600160a01b038381166001600160a01b0319831681178455604051919092169283917f8be0079c531659141344cd1fd0a4f28419497f9722a3daafe3b4186f6b6457e09190a35050565b620001286200014a565b600a80546001600160a01b0319166001600160a01b0392909216919091179055565b6000546001600160a01b03163314620001795760405163118cdaa760e01b815233600482015260240162000083565b565b611b04806200018b6000396000f3fe608060405234801561001057600080fd5b50600436106101425760003560e01c8063a5e130c0116100b8578063ef51a4931161007c578063ef51a493146102e9578063f23a6e61146102fc578063f2fde38b1461030f578063f301dda914610322578063f37ec3a114610342578063fda68c911461034a57600080fd5b8063a5e130c01461022b578063b01ddf8514610276578063bc197c8114610288578063d9dd5533146102c3578063ed321095146102d657600080fd5b80635c975abb1161010a5780635c975abb146101fe5780636767d67a14610210578063715018a61461022357806381f97e5f1461022b5780638279ac7c146102505780638da5cb5b1461026557600080fd5b806301ffc9a714610147578063191113d71461016f5780631df84ff714610184578063368d2037146101d8578063486d01d8146101eb575b600080fd5b61015a6101553660046113c7565b610373565b60405190151581526020015b60405180910390f35b61018261017d3660046113f1565b6103aa565b005b61018c610425565b6040516101669190600060c082019050825182526020830151602083015260408301516040830152606083015160608301526080830151608083015260a083015160a083015292915050565b61015a6101e6366004611449565b61049b565b61015a6101f9366004611475565b6105ca565b600054600160a01b900460ff1661015a565b61018261021e36600461148e565b6105e3565b610182610650565b600a546001600160a01b03165b6040516001600160a01b039091168152602001610166565b610258610664565b60405161016691906114de565b6000546001600160a01b0316610238565b600b545b604051908152602001610166565b6102aa61029636600461159f565b63bc197c8160e01b98975050505050505050565b6040516001600160e01b03199091168152602001610166565b6101826102d1366004611674565b6106f6565b61015a6102e4366004611449565b61070e565b6101826102f7366004611725565b610ab4565b6102aa61030a366004611742565b610ade565b61018261031d366004611725565b610af1565b610335610330366004611725565b610b2f565b60405161016691906117be565b61015a610b9b565b61027a610358366004611725565b6001600160a01b031660009081526011602052604090205490565b60006001600160e01b03198216630271189760e51b14806103a457506001600160e01b031982166301ffc9a760e01b145b92915050565b6103b2610bdf565b6103c0868686868686610c0c565b6104085760405162461bcd60e51b8152602060048201526014602482015273646174612f686f726120696e76616c696461732160601b60448201526064015b60405180910390fd5b600395909555600493909355600591909155600655600755600855565b61045e6040518060c001604052806000815260200160008152602001600081526020016000815260200160008152602001600081525090565b506040805160c08101825260035481526004546020820152600554918101919091526006546060820152600754608082015260085460a082015290565b33600081815260106020908152604080832080546001810182559084529183209091018490555163d70faf6160e01b8152600481018490529091906001600160a01b0385169063d70faf6190602401602060405180830381865afa158015610507573d6000803e3d6000fd5b505050506040513d601f19601f8201168201806040525081019061052b9190611802565b6001600160a01b03821660009081526011602052604081208054909190610553908490611831565b90915550506040516317d5759960e31b81526001600160a01b0382811660048301523060248301526044820185905285169063beabacc890606401600060405180830381600087803b1580156105a857600080fd5b505af11580156105bc573d6000803e3d6000fd5b506001979650505050505050565b600f546000906103a4906001600160a01b03168361049b565b6105eb610bdf565b6105f6838383610c4c565b6106335760405162461bcd60e51b815260206004820152600e60248201526d6461746120696e76616c6964612160901b60448201526064016103ff565b600392909255600455600555600060068190556007819055600855565b610658610bdf565b6106626000610ca3565b565b60606009805461067390611844565b80601f016020809104026020016040519081016040528092919081815260200182805461069f90611844565b80156106ec5780601f106106c1576101008083540402835291602001916106ec565b820191906000526020600020905b8154815290600101906020018083116106cf57829003601f168201915b5050505050905090565b6106fe610bdf565b600961070a82826118ce565b5050565b600033610719611367565b6001600160a01b0380861680835260208301869052600a54909116146107725760405162461bcd60e51b815260206004820152600e60248201526d746f6b656e20696e76616c69646f60901b60448201526064016103ff565b60008160200151116107d45760405162461bcd60e51b815260206004820152602560248201527f7175616e746964616465206465706f73697461646120696e666572696f722061604482015264207a65726f60d81b60648201526084016103ff565b80516040516370a0823160e01b81523060048201526000916001600160a01b0316906370a0823190602401602060405180830381865afa15801561081c573d6000803e3d6000fd5b505050506040513d601f19601f820116820180604052508101906108409190611802565b9050610856826000015184308560200151610cf3565b81516040516370a0823160e01b81523060048201526000916001600160a01b0316906370a0823190602401602060405180830381865afa15801561089e573d6000803e3d6000fd5b505050506040513d601f19601f820116820180604052508101906108c29190611802565b90508260200151826108d49190611831565b81146109325760405162461bcd60e51b815260206004820152602760248201527f53616c646f2066696e616c206e616f20636f72726573706f6e646520616f20656044820152667370657261646f60c81b60648201526084016103ff565b60008060008060008061094442610d53565b9550955095509550955095508589604001516000018181525050848960400151602001818152505083896040015160400181815250508289604001516060018181525050818960400151608001818152505080896040015160a001818152505088600e60008c6001600160a01b03166001600160a01b0316815260200190815260200160002060008201518160000160006101000a8154816001600160a01b0302191690836001600160a01b0316021790555060208201518160010155604082015181600201600082015181600001556020820151816001015560408201518160020155606082015181600301556080820151816004015560a082015181600501555050905050610a5d89600001518a60200151610dc7565b610aa15760405162461bcd60e51b81526020600482015260156024820152746465706f7369746f206d616c20737563656469646f60581b60448201526064016103ff565b5060019c9b505050505050505050505050565b610abc610bdf565b600a80546001600160a01b0319166001600160a01b0392909216919091179055565b63f23a6e6160e01b5b9695505050505050565b610af9610bdf565b6001600160a01b038116610b2357604051631e4fbdf760e01b8152600060048201526024016103ff565b610b2c81610ca3565b50565b6001600160a01b038116600090815260106020908152604091829020805483518184028101840190945280845260609392830182828015610b8f57602002820191906000526020600020905b815481526020019060010190808311610b7b575b50505050509050919050565b60035460045460055460065460075460085460009542958795610bc5959294919390929190610e38565b9050808210610bd5576001610bd8565b60005b9250505090565b6000546001600160a01b031633146106625760405163118cdaa760e01b81523360048201526024016103ff565b6000610c19878787610c4c565b15610ae757601884108015610c2e5750603c83105b8015610c3a5750603c82105b15610ae7575060019695505050505050565b60006107b28410158015610c605750600083115b8015610c6d5750600c8311155b15610c9c576000610c7e8585610e94565b9050600083118015610c905750808311155b15610c9a57600191505b505b9392505050565b600080546001600160a01b038381166001600160a01b0319831681178455604051919092169283917f8be0079c531659141344cd1fd0a4f28419497f9722a3daafe3b4186f6b6457e09190a35050565b604080516001600160a01b0385811660248301528416604482015260648082018490528251808303909101815260849091019091526020810180516001600160e01b03166323b872dd60e01b179052610d4d908590610f1a565b50505050565b60008080808080610d6f610d6a62015180896119a4565b610f82565b919750955093506000610d8562015180896119b8565b9050610d93610e10826119a4565b9350610da1610e10826119b8565b9050610dae603c826119a4565b9250610dbb603c826119b8565b91505091939550919395565b600a546000906001600160a01b03848116911614610e185760405162461bcd60e51b815260206004820152600e60248201526d746f6b656e20696e76616c69646f60901b60448201526064016103ff565b81600b6000828254610e2a9190611831565b909155506001949350505050565b600081610e46603c856119cc565b610e52610e10876119cc565b62015180610e618b8b8b6110f6565b610e6b91906119cc565b610e759190611831565b610e7f9190611831565b610e899190611831565b979650505050505050565b60008160011480610ea55750816003145b80610eb05750816005145b80610ebb5750816007145b80610ec65750816008145b80610ed1575081600a145b80610edc575081600c145b15610ee95750601f6103a4565b81600214610ef95750601e6103a4565b610f0283611233565b610f0d57601c610f10565b601d5b60ff169392505050565b6000610f2f6001600160a01b0384168361126f565b90508051600014158015610f54575080806020019051810190610f5291906119e3565b155b15610f7d57604051635274afe760e01b81526001600160a01b03841660048201526024016103ff565b505050565b60008080838162253d8c610f998362010bd9611a05565b610fa39190611a05565b9050600062023ab1610fb6836004611a2d565b610fc09190611a5d565b90506004610fd18262023ab1611a2d565b610fdc906003611a05565b610fe69190611a5d565b610ff09083611a8b565b9150600062164b09611003846001611a05565b61100f90610fa0611a2d565b6110199190611a5d565b90506004611029826105b5611a2d565b6110339190611a5d565b61103d9084611a8b565b61104890601f611a05565b9250600061098f61105a856050611a2d565b6110649190611a5d565b9050600060506110768361098f611a2d565b6110809190611a5d565b61108a9086611a8b565b9050611097600b83611a5d565b94506110a485600c611a2d565b6110af836002611a05565b6110b99190611a8b565b915084836110c8603187611a8b565b6110d3906064611a2d565b6110dd9190611a05565b6110e79190611a05565b9a919950975095505050505050565b60006107b284101561110757600080fd5b838383600062253d8c60046064600c611121600e88611a8b565b61112b9190611a5d565b61113788611324611a05565b6111419190611a05565b61114b9190611a5d565b611156906003611a2d565b6111609190611a5d565b600c8061116e600e88611a8b565b6111789190611a5d565b61118390600c611a2d565b61118e600288611a8b565b6111989190611a8b565b6111a49061016f611a2d565b6111ae9190611a5d565b6004600c6111bd600e89611a8b565b6111c79190611a5d565b6111d3896112c0611a05565b6111dd9190611a05565b6111e9906105b5611a2d565b6111f39190611a5d565b6111ff617d4b87611a8b565b6112099190611a05565b6112139190611a05565b61121d9190611a8b565b6112279190611a8b565b98975050505050505050565b60006112406004836119b8565b15801561125657506112536064836119b8565b15155b806103a45750611268610190836119b8565b1592915050565b6060610c9c8383600084600080856001600160a01b031684866040516112959190611ab2565b60006040518083038185875af1925050503d80600081146112d2576040519150601f19603f3d011682016040523d82523d6000602084013e6112d7565b606091505b5091509150610ae78683836060826112f7576112f28261133e565b610c9c565b815115801561130e57506001600160a01b0384163b155b1561133757604051639996b31560e01b81526001600160a01b03851660048201526024016103ff565b5080610c9c565b80511561134e5780518082602001fd5b604051630a12f52160e11b815260040160405180910390fd5b604051806060016040528060006001600160a01b03168152602001600081526020016113c26040518060c001604052806000815260200160008152602001600081526020016000815260200160008152602001600081525090565b905290565b6000602082840312156113d957600080fd5b81356001600160e01b031981168114610c9c57600080fd5b60008060008060008060c0878903121561140a57600080fd5b505084359660208601359650604086013595606081013595506080810135945060a0013592509050565b6001600160a01b0381168114610b2c57600080fd5b6000806040838503121561145c57600080fd5b823561146781611434565b946020939093013593505050565b60006020828403121561148757600080fd5b5035919050565b6000806000606084860312156114a357600080fd5b505081359360208301359350604090920135919050565b60005b838110156114d55781810151838201526020016114bd565b50506000910152565b60208152600082518060208401526114fd8160408501602087016114ba565b601f01601f19169190910160400192915050565b60008083601f84011261152357600080fd5b50813567ffffffffffffffff81111561153b57600080fd5b6020830191508360208260051b850101111561155657600080fd5b9250929050565b60008083601f84011261156f57600080fd5b50813567ffffffffffffffff81111561158757600080fd5b60208301915083602082850101111561155657600080fd5b60008060008060008060008060a0898b0312156115bb57600080fd5b88356115c681611434565b975060208901356115d681611434565b9650604089013567ffffffffffffffff808211156115f357600080fd5b6115ff8c838d01611511565b909850965060608b013591508082111561161857600080fd5b6116248c838d01611511565b909650945060808b013591508082111561163d57600080fd5b5061164a8b828c0161155d565b999c989b5096995094979396929594505050565b634e487b7160e01b600052604160045260246000fd5b60006020828403121561168657600080fd5b813567ffffffffffffffff8082111561169e57600080fd5b818401915084601f8301126116b257600080fd5b8135818111156116c4576116c461165e565b604051601f8201601f19908116603f011681019083821181831017156116ec576116ec61165e565b8160405282815287602084870101111561170557600080fd5b826020860160208301376000928101602001929092525095945050505050565b60006020828403121561173757600080fd5b8135610c9c81611434565b60008060008060008060a0878903121561175b57600080fd5b863561176681611434565b9550602087013561177681611434565b94506040870135935060608701359250608087013567ffffffffffffffff8111156117a057600080fd5b6117ac89828a0161155d565b979a9699509497509295939492505050565b6020808252825182820181905260009190848201906040850190845b818110156117f6578351835292840192918401916001016117da565b50909695505050505050565b60006020828403121561181457600080fd5b5051919050565b634e487b7160e01b600052601160045260246000fd5b808201808211156103a4576103a461181b565b600181811c9082168061185857607f821691505b60208210810361187857634e487b7160e01b600052602260045260246000fd5b50919050565b601f821115610f7d576000816000526020600020601f850160051c810160208610156118a75750805b601f850160051c820191505b818110156118c6578281556001016118b3565b505050505050565b815167ffffffffffffffff8111156118e8576118e861165e565b6118fc816118f68454611844565b8461187e565b602080601f83116001811461193157600084156119195750858301515b600019600386901b1c1916600185901b1785556118c6565b600085815260208120601f198616915b8281101561196057888601518255948401946001909101908401611941565b508582101561197e5787850151600019600388901b60f8161c191681555b5050505050600190811b01905550565b634e487b7160e01b600052601260045260246000fd5b6000826119b3576119b361198e565b500490565b6000826119c7576119c761198e565b500690565b80820281158282048414176103a4576103a461181b565b6000602082840312156119f557600080fd5b81518015158114610c9c57600080fd5b8082018281126000831280158216821582161715611a2557611a2561181b565b505092915050565b80820260008212600160ff1b84141615611a4957611a4961181b565b81810583148215176103a4576103a461181b565b600082611a6c57611a6c61198e565b600160ff1b821460001984141615611a8657611a8661181b565b500590565b8181036000831280158383131683831282161715611aab57611aab61181b565b5092915050565b60008251611ac48184602087016114ba565b919091019291505056fea2646970667358221220e234a60f122f85bfd6684379b272241a7180a8bd74812711d7fc6e81b8e75a5664736f6c63430008180033",
  "linkReferences": {},
  "deployedLinkReferences": {}
}