{
  "_format": "hh-sol-artifact-1",
  "contractName": "NoPregoNFT",
  "sourceName": "contracts/NoPregoNFT.sol",
  "abi": [
    {
      "inputs": [],
      "stateMutability": "nonpayable",
      "type": "constructor"
    },
    {
      "inputs": [
        {
          "internalType": "address",
          "name": "sender",
          "type": "address"
        },
        {
          "internalType": "uint256",
          "name": "balance",
          "type": "uint256"
        },
        {
          "internalType": "uint256",
          "name": "needed",
          "type": "uint256"
        },
        {
          "internalType": "uint256",
          "name": "tokenId",
          "type": "uint256"
        }
      ],
      "name": "ERC1155InsufficientBalance",
      "type": "error"
    },
    {
      "inputs": [
        {
          "internalType": "address",
          "name": "approver",
          "type": "address"
        }
      ],
      "name": "ERC1155InvalidApprover",
      "type": "error"
    },
    {
      "inputs": [
        {
          "internalType": "uint256",
          "name": "idsLength",
          "type": "uint256"
        },
        {
          "internalType": "uint256",
          "name": "valuesLength",
          "type": "uint256"
        }
      ],
      "name": "ERC1155InvalidArrayLength",
      "type": "error"
    },
    {
      "inputs": [
        {
          "internalType": "address",
          "name": "operator",
          "type": "address"
        }
      ],
      "name": "ERC1155InvalidOperator",
      "type": "error"
    },
    {
      "inputs": [
        {
          "internalType": "address",
          "name": "receiver",
          "type": "address"
        }
      ],
      "name": "ERC1155InvalidReceiver",
      "type": "error"
    },
    {
      "inputs": [
        {
          "internalType": "address",
          "name": "sender",
          "type": "address"
        }
      ],
      "name": "ERC1155InvalidSender",
      "type": "error"
    },
    {
      "inputs": [
        {
          "internalType": "address",
          "name": "operator",
          "type": "address"
        },
        {
          "internalType": "address",
          "name": "owner",
          "type": "address"
        }
      ],
      "name": "ERC1155MissingApprovalForAll",
      "type": "error"
    },
    {
      "anonymous": false,
      "inputs": [
        {
          "indexed": true,
          "internalType": "address",
          "name": "account",
          "type": "address"
        },
        {
          "indexed": true,
          "internalType": "address",
          "name": "operator",
          "type": "address"
        },
        {
          "indexed": false,
          "internalType": "bool",
          "name": "approved",
          "type": "bool"
        }
      ],
      "name": "ApprovalForAll",
      "type": "event"
    },
    {
      "anonymous": false,
      "inputs": [
        {
          "indexed": true,
          "internalType": "address",
          "name": "account",
          "type": "address"
        },
        {
          "indexed": true,
          "internalType": "uint256",
          "name": "tokenId",
          "type": "uint256"
        }
      ],
      "name": "Burned",
      "type": "event"
    },
    {
      "anonymous": false,
      "inputs": [
        {
          "indexed": true,
          "internalType": "address",
          "name": "account",
          "type": "address"
        },
        {
          "indexed": true,
          "internalType": "uint256",
          "name": "tokenId",
          "type": "uint256"
        }
      ],
      "name": "Minted",
      "type": "event"
    },
    {
      "anonymous": false,
      "inputs": [
        {
          "indexed": true,
          "internalType": "address",
          "name": "operator",
          "type": "address"
        },
        {
          "indexed": true,
          "internalType": "address",
          "name": "from",
          "type": "address"
        },
        {
          "indexed": true,
          "internalType": "address",
          "name": "to",
          "type": "address"
        },
        {
          "indexed": false,
          "internalType": "uint256[]",
          "name": "ids",
          "type": "uint256[]"
        },
        {
          "indexed": false,
          "internalType": "uint256[]",
          "name": "values",
          "type": "uint256[]"
        }
      ],
      "name": "TransferBatch",
      "type": "event"
    },
    {
      "anonymous": false,
      "inputs": [
        {
          "indexed": true,
          "internalType": "address",
          "name": "operator",
          "type": "address"
        },
        {
          "indexed": true,
          "internalType": "address",
          "name": "from",
          "type": "address"
        },
        {
          "indexed": true,
          "internalType": "address",
          "name": "to",
          "type": "address"
        },
        {
          "indexed": false,
          "internalType": "uint256",
          "name": "id",
          "type": "uint256"
        },
        {
          "indexed": false,
          "internalType": "uint256",
          "name": "value",
          "type": "uint256"
        }
      ],
      "name": "TransferSingle",
      "type": "event"
    },
    {
      "anonymous": false,
      "inputs": [
        {
          "indexed": true,
          "internalType": "address",
          "name": "from",
          "type": "address"
        },
        {
          "indexed": true,
          "internalType": "address",
          "name": "to",
          "type": "address"
        },
        {
          "indexed": true,
          "internalType": "uint256",
          "name": "tokenId",
          "type": "uint256"
        }
      ],
      "name": "Transferred",
      "type": "event"
    },
    {
      "anonymous": false,
      "inputs": [
        {
          "indexed": false,
          "internalType": "string",
          "name": "value",
          "type": "string"
        },
        {
          "indexed": true,
          "internalType": "uint256",
          "name": "id",
          "type": "uint256"
        }
      ],
      "name": "URI",
      "type": "event"
    },
    {
      "inputs": [
        {
          "internalType": "address",
          "name": "account",
          "type": "address"
        },
        {
          "internalType": "uint256",
          "name": "id",
          "type": "uint256"
        }
      ],
      "name": "balanceOf",
      "outputs": [
        {
          "internalType": "uint256",
          "name": "",
          "type": "uint256"
        }
      ],
      "stateMutability": "view",
      "type": "function"
    },
    {
      "inputs": [
        {
          "internalType": "address[]",
          "name": "accounts",
          "type": "address[]"
        },
        {
          "internalType": "uint256[]",
          "name": "ids",
          "type": "uint256[]"
        }
      ],
      "name": "balanceOfBatch",
      "outputs": [
        {
          "internalType": "uint256[]",
          "name": "",
          "type": "uint256[]"
        }
      ],
      "stateMutability": "view",
      "type": "function"
    },
    {
      "inputs": [
        {
          "internalType": "address",
          "name": "account",
          "type": "address"
        },
        {
          "internalType": "uint256",
          "name": "tokenId",
          "type": "uint256"
        }
      ],
      "name": "burn",
      "outputs": [],
      "stateMutability": "nonpayable",
      "type": "function"
    },
    {
      "inputs": [
        {
          "internalType": "address",
          "name": "account",
          "type": "address"
        },
        {
          "internalType": "address",
          "name": "operator",
          "type": "address"
        }
      ],
      "name": "isApprovedForAll",
      "outputs": [
        {
          "internalType": "bool",
          "name": "",
          "type": "bool"
        }
      ],
      "stateMutability": "view",
      "type": "function"
    },
    {
      "inputs": [
        {
          "internalType": "address",
          "name": "to",
          "type": "address"
        },
        {
          "internalType": "string",
          "name": "name",
          "type": "string"
        },
        {
          "internalType": "string",
          "name": "description",
          "type": "string"
        },
        {
          "internalType": "string",
          "name": "image",
          "type": "string"
        },
        {
          "internalType": "string",
          "name": "properties",
          "type": "string"
        }
      ],
      "name": "mint",
      "outputs": [
        {
          "internalType": "uint256",
          "name": "",
          "type": "uint256"
        }
      ],
      "stateMutability": "nonpayable",
      "type": "function"
    },
    {
      "inputs": [
        {
          "internalType": "address",
          "name": "from",
          "type": "address"
        },
        {
          "internalType": "address",
          "name": "to",
          "type": "address"
        },
        {
          "internalType": "uint256[]",
          "name": "ids",
          "type": "uint256[]"
        },
        {
          "internalType": "uint256[]",
          "name": "values",
          "type": "uint256[]"
        },
        {
          "internalType": "bytes",
          "name": "data",
          "type": "bytes"
        }
      ],
      "name": "safeBatchTransferFrom",
      "outputs": [],
      "stateMutability": "nonpayable",
      "type": "function"
    },
    {
      "inputs": [
        {
          "internalType": "address",
          "name": "from",
          "type": "address"
        },
        {
          "internalType": "address",
          "name": "to",
          "type": "address"
        },
        {
          "internalType": "uint256",
          "name": "id",
          "type": "uint256"
        },
        {
          "internalType": "uint256",
          "name": "value",
          "type": "uint256"
        },
        {
          "internalType": "bytes",
          "name": "data",
          "type": "bytes"
        }
      ],
      "name": "safeTransferFrom",
      "outputs": [],
      "stateMutability": "nonpayable",
      "type": "function"
    },
    {
      "inputs": [
        {
          "internalType": "address",
          "name": "operator",
          "type": "address"
        },
        {
          "internalType": "bool",
          "name": "approved",
          "type": "bool"
        }
      ],
      "name": "setApprovalForAll",
      "outputs": [],
      "stateMutability": "nonpayable",
      "type": "function"
    },
    {
      "inputs": [
        {
          "internalType": "bytes4",
          "name": "interfaceId",
          "type": "bytes4"
        }
      ],
      "name": "supportsInterface",
      "outputs": [
        {
          "internalType": "bool",
          "name": "",
          "type": "bool"
        }
      ],
      "stateMutability": "view",
      "type": "function"
    },
    {
      "inputs": [
        {
          "internalType": "address",
          "name": "from",
          "type": "address"
        },
        {
          "internalType": "address",
          "name": "to",
          "type": "address"
        },
        {
          "internalType": "uint256",
          "name": "tokenId",
          "type": "uint256"
        }
      ],
      "name": "transfer",
      "outputs": [],
      "stateMutability": "nonpayable",
      "type": "function"
    },
    {
      "inputs": [
        {
          "internalType": "uint256",
          "name": "tokenId",
          "type": "uint256"
        }
      ],
      "name": "uri",
      "outputs": [
        {
          "internalType": "string",
          "name": "",
          "type": "string"
        }
      ],
      "stateMutability": "view",
      "type": "function"
    }
  ],
  "bytecode": "0x608060405260016003553480156200001657600080fd5b50604080516020810190915260008152620000318162000052565b50336000908152600460205260409020805460ff19166001179055620001d7565b60026200006082826200010b565b5050565b634e487b7160e01b600052604160045260246000fd5b600181811c908216806200008f57607f821691505b602082108103620000b057634e487b7160e01b600052602260045260246000fd5b50919050565b601f82111562000106576000816000526020600020601f850160051c81016020861015620000e15750805b601f850160051c820191505b818110156200010257828155600101620000ed565b5050505b505050565b81516001600160401b0381111562000127576200012762000064565b6200013f816200013884546200007a565b84620000b6565b602080601f8311600181146200017757600084156200015e5750858301515b600019600386901b1c1916600185901b17855562000102565b600085815260208120601f198616915b82811015620001a85788860151825594840194600190910190840162000187565b5085821015620001c75787850151600019600388901b60f8161c191681555b5050505050600190811b01905550565b61199580620001e76000396000f3fe608060405234801561001057600080fd5b50600436106100a85760003560e01c80639dc29fac116100715780639dc29fac1461014b578063a22cb4651461015e578063a40d1b1014610171578063beabacc814610184578063e985e9c514610197578063f242432a146101aa57600080fd5b8062fdd58e146100ad57806301ffc9a7146100d35780630e89341c146100f65780632eb2c2d6146101165780634e1273f41461012b575b600080fd5b6100c06100bb36600461105b565b6101bd565b6040519081526020015b60405180910390f35b6100e66100e136600461109e565b6101e5565b60405190151581526020016100ca565b6101096101043660046110c2565b610235565b6040516100ca919061112b565b610129610124366004611288565b6104df565b005b61013e610139366004611332565b61054b565b6040516100ca919061142e565b61012961015936600461105b565b610618565b61012961016c366004611441565b6106bf565b6100c061017f36600461147d565b6106ce565b61012961019236600461150b565b610819565b6100e66101a5366004611547565b6108ee565b6101296101b836600461157a565b61091c565b6000818152602081815260408083206001600160a01b03861684529091529020545b92915050565b60006001600160e01b03198216636cdb3d1360e11b148061021657506001600160e01b031982166303a24d0760e21b145b806101df57506301ffc9a760e01b6001600160e01b03198316146101df565b6060600060056000848152602001908152602001600020604051806080016040529081600082018054610267906115df565b80601f0160208091040260200160405190810160405280929190818152602001828054610293906115df565b80156102e05780601f106102b5576101008083540402835291602001916102e0565b820191906000526020600020905b8154815290600101906020018083116102c357829003601f168201915b505050505081526020016001820180546102f9906115df565b80601f0160208091040260200160405190810160405280929190818152602001828054610325906115df565b80156103725780601f1061034757610100808354040283529160200191610372565b820191906000526020600020905b81548152906001019060200180831161035557829003601f168201915b5050505050815260200160028201805461038b906115df565b80601f01602080910402602001604051908101604052809291908181526020018280546103b7906115df565b80156104045780601f106103d957610100808354040283529160200191610404565b820191906000526020600020905b8154815290600101906020018083116103e757829003601f168201915b5050505050815260200160038201805461041d906115df565b80601f0160208091040260200160405190810160405280929190818152602001828054610449906115df565b80156104965780601f1061046b57610100808354040283529160200191610496565b820191906000526020600020905b81548152906001019060200180831161047957829003601f168201915b505050505081525050905080600001518160200151826040015183606001516040516020016104c89493929190611619565b604051602081830303815290604052915050919050565b336001600160a01b038616811480159061050057506104fe86826108ee565b155b156105365760405163711bec9160e11b81526001600160a01b038083166004830152871660248201526044015b60405180910390fd5b610543868686868661097b565b505050505050565b6060815183511461057c5781518351604051635b05999160e01b81526004810192909252602482015260440161052d565b6000835167ffffffffffffffff8111156105985761059861113e565b6040519080825280602002602001820160405280156105c1578160200160208202803683370190505b50905060005b8451811015610610576020808202860101516105eb906020808402870101516101bd565b8282815181106105fd576105fd61170c565b60209081029190910101526001016105c7565b509392505050565b336001600160a01b0383161480610634575061063482336108ee565b6106795760405162461bcd60e51b81526020600482015260166024820152752737ba1030baba3437b934bd32b2103a3790313ab93760511b604482015260640161052d565b610685828260016109e2565b60405181906001600160a01b038416907f696de425f79f4a40bc6d2122ca50507f0efbeabbff86a84871b7196ab8ea8df790600090a35050565b6106ca338383610a4a565b5050565b3360009081526004602052604081205460ff166107265760405162461bcd60e51b8152602060048201526016602482015275139bdd08185d5d1a1bdc9a5e9959081d1bc81b5a5b9d60521b604482015260640161052d565b60038054908190600061073883611738565b91905055506107598782600160405180602001604052806000815250610ae0565b60408051608081018252878152602080820188905281830187905260608201869052600084815260059091529190912081518190610797908261179e565b50602082015160018201906107ac908261179e565b50604082015160028201906107c1908261179e565b50606082015160038201906107d6908261179e565b50506040518291506001600160a01b038916907f30385c845b448a36257a6a1716e6ad2e1bc2cbe333cde1e69fe849ad6511adfe90600090a39695505050505050565b336001600160a01b038416148061083f57503360009081526004602052604090205460ff165b61088b5760405162461bcd60e51b815260206004820152601a60248201527f4e6f7420617574686f72697a656420746f207472616e73666572000000000000604482015260640161052d565b6108a883838360016040518060200160405280600081525061091c565b80826001600160a01b0316846001600160a01b03167fd1ba4ac2e2a11b5101f6cb4d978f514a155b421e8ec396d2d9abaf0bb02917ee60405160405180910390a4505050565b6001600160a01b03918216600090815260016020908152604080832093909416825291909152205460ff1690565b336001600160a01b038616811480159061093d575061093b86826108ee565b155b1561096e5760405163711bec9160e11b81526001600160a01b0380831660048301528716602482015260440161052d565b6105438686868686610b3d565b6001600160a01b0384166109a557604051632bfa23e760e11b81526000600482015260240161052d565b6001600160a01b0385166109ce57604051626a0d4560e21b81526000600482015260240161052d565b6109db8585858585610bcb565b5050505050565b6001600160a01b038316610a0b57604051626a0d4560e21b81526000600482015260240161052d565b604080516001808252602082018590528183019081526060820184905260a082019092526000608082018181529192916109db91879185908590610bcb565b6001600160a01b038216610a735760405162ced3e160e81b81526000600482015260240161052d565b6001600160a01b03838116600081815260016020908152604080832094871680845294825291829020805460ff191686151590811790915591519182527f17307eab39ab6107e8899845ad3d59bd9653f200f220920489ca2b5937696c31910160405180910390a3505050565b6001600160a01b038416610b0a57604051632bfa23e760e11b81526000600482015260240161052d565b60408051600180825260208201869052818301908152606082018590526080820190925290610543600087848487610bcb565b6001600160a01b038416610b6757604051632bfa23e760e11b81526000600482015260240161052d565b6001600160a01b038516610b9057604051626a0d4560e21b81526000600482015260240161052d565b60408051600180825260208201869052818301908152606082018590526080820190925290610bc28787848487610bcb565b50505050505050565b610bd785858585610c1e565b6001600160a01b038416156109db5782513390600103610c105760208481015190840151610c09838989858589610e32565b5050610543565b610543818787878787610f56565b8051825114610c4d5781518151604051635b05999160e01b81526004810192909252602482015260440161052d565b3360005b8351811015610d53576020818102858101820151908501909101516001600160a01b03881615610d04576000828152602081815260408083206001600160a01b038c16845290915290205481811015610cdd576040516303dee4c560e01b81526001600160a01b038a16600482015260248101829052604481018390526064810184905260840161052d565b6000838152602081815260408083206001600160a01b038d16845290915290209082900390555b6001600160a01b03871615610d49576000828152602081815260408083206001600160a01b038b16845290915281208054839290610d4390849061185e565b90915550505b5050600101610c51565b508251600103610dd45760208301516000906020840151909150856001600160a01b0316876001600160a01b0316846001600160a01b03167fc3d58168c5ae7397731d063d5bbf3d657854427343f4c083240f7aacaa2d0f628585604051610dc5929190918252602082015260400190565b60405180910390a450506109db565b836001600160a01b0316856001600160a01b0316826001600160a01b03167f4a39dc06d4c0dbc64b70af90fd698a233a518aa5d07e595d983b8c0526c8f7fb8686604051610e23929190611871565b60405180910390a45050505050565b6001600160a01b0384163b156105435760405163f23a6e6160e01b81526001600160a01b0385169063f23a6e6190610e76908990899088908890889060040161189f565b6020604051808303816000875af1925050508015610eb1575060408051601f3d908101601f19168201909252610eae918101906118e4565b60015b610f1a573d808015610edf576040519150601f19603f3d011682016040523d82523d6000602084013e610ee4565b606091505b508051600003610f1257604051632bfa23e760e11b81526001600160a01b038616600482015260240161052d565b805181602001fd5b6001600160e01b0319811663f23a6e6160e01b14610bc257604051632bfa23e760e11b81526001600160a01b038616600482015260240161052d565b6001600160a01b0384163b156105435760405163bc197c8160e01b81526001600160a01b0385169063bc197c8190610f9a9089908990889088908890600401611901565b6020604051808303816000875af1925050508015610fd5575060408051601f3d908101601f19168201909252610fd2918101906118e4565b60015b611003573d808015610edf576040519150601f19603f3d011682016040523d82523d6000602084013e610ee4565b6001600160e01b0319811663bc197c8160e01b14610bc257604051632bfa23e760e11b81526001600160a01b038616600482015260240161052d565b80356001600160a01b038116811461105657600080fd5b919050565b6000806040838503121561106e57600080fd5b6110778361103f565b946020939093013593505050565b6001600160e01b03198116811461109b57600080fd5b50565b6000602082840312156110b057600080fd5b81356110bb81611085565b9392505050565b6000602082840312156110d457600080fd5b5035919050565b60005b838110156110f65781810151838201526020016110de565b50506000910152565b600081518084526111178160208601602086016110db565b601f01601f19169290920160200192915050565b6020815260006110bb60208301846110ff565b634e487b7160e01b600052604160045260246000fd5b604051601f8201601f1916810167ffffffffffffffff8111828210171561117d5761117d61113e565b604052919050565b600067ffffffffffffffff82111561119f5761119f61113e565b5060051b60200190565b600082601f8301126111ba57600080fd5b813560206111cf6111ca83611185565b611154565b8083825260208201915060208460051b8701019350868411156111f157600080fd5b602086015b8481101561120d57803583529183019183016111f6565b509695505050505050565b600082601f83011261122957600080fd5b813567ffffffffffffffff8111156112435761124361113e565b611256601f8201601f1916602001611154565b81815284602083860101111561126b57600080fd5b816020850160208301376000918101602001919091529392505050565b600080600080600060a086880312156112a057600080fd5b6112a98661103f565b94506112b76020870161103f565b9350604086013567ffffffffffffffff808211156112d457600080fd5b6112e089838a016111a9565b945060608801359150808211156112f657600080fd5b61130289838a016111a9565b9350608088013591508082111561131857600080fd5b5061132588828901611218565b9150509295509295909350565b6000806040838503121561134557600080fd5b823567ffffffffffffffff8082111561135d57600080fd5b818501915085601f83011261137157600080fd5b813560206113816111ca83611185565b82815260059290921b840181019181810190898411156113a057600080fd5b948201945b838610156113c5576113b68661103f565b825294820194908201906113a5565b965050860135925050808211156113db57600080fd5b506113e8858286016111a9565b9150509250929050565b60008151808452602080850194506020840160005b8381101561142357815187529582019590820190600101611407565b509495945050505050565b6020815260006110bb60208301846113f2565b6000806040838503121561145457600080fd5b61145d8361103f565b91506020830135801515811461147257600080fd5b809150509250929050565b600080600080600060a0868803121561149557600080fd5b61149e8661103f565b9450602086013567ffffffffffffffff808211156114bb57600080fd5b6114c789838a01611218565b955060408801359150808211156114dd57600080fd5b6114e989838a01611218565b945060608801359150808211156114ff57600080fd5b61130289838a01611218565b60008060006060848603121561152057600080fd5b6115298461103f565b92506115376020850161103f565b9150604084013590509250925092565b6000806040838503121561155a57600080fd5b6115638361103f565b91506115716020840161103f565b90509250929050565b600080600080600060a0868803121561159257600080fd5b61159b8661103f565b94506115a96020870161103f565b93506040860135925060608601359150608086013567ffffffffffffffff8111156115d357600080fd5b61132588828901611218565b600181811c908216806115f357607f821691505b60208210810361161357634e487b7160e01b600052602260045260246000fd5b50919050565b7f646174613a6170706c69636174696f6e2f6a736f6e3b757466382c7b226e616d81526332911d1160e11b60208201526000855161165e816024850160208a016110db565b71111610113232b9b1b934b83a34b7b7111d1160711b6024918401918201528551611690816036840160208a016110db565b6b1116101134b6b0b3b2911d1160a11b6036929091019182015284516116bd8160428401602089016110db565b7011161011383937b832b93a34b2b9911d1160791b6042929091019182015283516116ef8160538401602088016110db565b61227d60f01b605392909101918201526055019695505050505050565b634e487b7160e01b600052603260045260246000fd5b634e487b7160e01b600052601160045260246000fd5b60006001820161174a5761174a611722565b5060010190565b601f821115611799576000816000526020600020601f850160051c8101602086101561177a5750805b601f850160051c820191505b8181101561054357828155600101611786565b505050565b815167ffffffffffffffff8111156117b8576117b861113e565b6117cc816117c684546115df565b84611751565b602080601f83116001811461180157600084156117e95750858301515b600019600386901b1c1916600185901b178555610543565b600085815260208120601f198616915b8281101561183057888601518255948401946001909101908401611811565b508582101561184e5787850151600019600388901b60f8161c191681555b5050505050600190811b01905550565b808201808211156101df576101df611722565b60408152600061188460408301856113f2565b828103602084015261189681856113f2565b95945050505050565b6001600160a01b03868116825285166020820152604081018490526060810183905260a0608082018190526000906118d9908301846110ff565b979650505050505050565b6000602082840312156118f657600080fd5b81516110bb81611085565b6001600160a01b0386811682528516602082015260a06040820181905260009061192d908301866113f2565b828103606084015261193f81866113f2565b9050828103608084015261195381856110ff565b9897505050505050505056fea2646970667358221220482dac06d2fa598e18a4bab84548a3565ad07cd8d3c8879c0390df8f91046a7164736f6c63430008180033",
  "linkReferences": {},
  "deployedLinkReferences": {}
}