{
  "_format": "hh-sol-artifact-1",
  "contractName": "Vault",
  "sourceName": "contracts/Vault.sol",
  "abi": [
    {
      "inputs": [],
      "stateMutability": "nonpayable",
      "type": "constructor"
    },
    {
      "inputs": [],
      "name": "EnforcedPause",
      "type": "error"
    },
    {
      "inputs": [],
      "name": "ExpectedPause",
      "type": "error"
    },
    {
      "inputs": [
        {
          "internalType": "address",
          "name": "owner",
          "type": "address"
        }
      ],
      "name": "OwnableInvalidOwner",
      "type": "error"
    },
    {
      "inputs": [
        {
          "internalType": "address",
          "name": "account",
          "type": "address"
        }
      ],
      "name": "OwnableUnauthorizedAccount",
      "type": "error"
    },
    {
      "inputs": [],
      "name": "ReentrancyGuardReentrantCall",
      "type": "error"
    },
    {
      "anonymous": false,
      "inputs": [
        {
          "indexed": true,
          "internalType": "address",
          "name": "previousOwner",
          "type": "address"
        },
        {
          "indexed": true,
          "internalType": "address",
          "name": "newOwner",
          "type": "address"
        }
      ],
      "name": "OwnershipTransferred",
      "type": "event"
    },
    {
      "anonymous": false,
      "inputs": [
        {
          "indexed": false,
          "internalType": "address",
          "name": "account",
          "type": "address"
        }
      ],
      "name": "Paused",
      "type": "event"
    },
    {
      "anonymous": false,
      "inputs": [
        {
          "indexed": false,
          "internalType": "address",
          "name": "account",
          "type": "address"
        }
      ],
      "name": "Unpaused",
      "type": "event"
    },
    {
      "inputs": [
        {
          "internalType": "address",
          "name": "_investidor",
          "type": "address"
        },
        {
          "components": [
            {
              "internalType": "contract IERC20",
              "name": "tokenDeposito",
              "type": "address"
            },
            {
              "internalType": "uint256",
              "name": "valorDeposito",
              "type": "uint256"
            },
            {
              "components": [
                {
                  "internalType": "uint256",
                  "name": "ano",
                  "type": "uint256"
                },
                {
                  "internalType": "uint256",
                  "name": "mes",
                  "type": "uint256"
                },
                {
                  "internalType": "uint256",
                  "name": "dia",
                  "type": "uint256"
                },
                {
                  "internalType": "uint256",
                  "name": "hora",
                  "type": "uint256"
                },
                {
                  "internalType": "uint256",
                  "name": "minuto",
                  "type": "uint256"
                },
                {
                  "internalType": "uint256",
                  "name": "segundo",
                  "type": "uint256"
                }
              ],
              "internalType": "struct Vault.DateTime",
              "name": "dataDeposito",
              "type": "tuple"
            }
          ],
          "internalType": "struct Vault.Deposito",
          "name": "_deposito",
          "type": "tuple"
        }
      ],
      "name": "depositaNoCofre",
      "outputs": [
        {
          "internalType": "bool",
          "name": "status",
          "type": "bool"
        }
      ],
      "stateMutability": "nonpayable",
      "type": "function"
    },
    {
      "inputs": [],
      "name": "getDescricao",
      "outputs": [
        {
          "internalType": "string",
          "name": "d",
          "type": "string"
        }
      ],
      "stateMutability": "view",
      "type": "function"
    },
    {
      "inputs": [],
      "name": "getLoanERC20Denomination",
      "outputs": [
        {
          "internalType": "contract IERC20",
          "name": "",
          "type": "address"
        }
      ],
      "stateMutability": "view",
      "type": "function"
    },
    {
      "inputs": [],
      "name": "getPrazoVencimnento",
      "outputs": [
        {
          "components": [
            {
              "internalType": "uint256",
              "name": "ano",
              "type": "uint256"
            },
            {
              "internalType": "uint256",
              "name": "mes",
              "type": "uint256"
            },
            {
              "internalType": "uint256",
              "name": "dia",
              "type": "uint256"
            },
            {
              "internalType": "uint256",
              "name": "hora",
              "type": "uint256"
            },
            {
              "internalType": "uint256",
              "name": "minuto",
              "type": "uint256"
            },
            {
              "internalType": "uint256",
              "name": "segundo",
              "type": "uint256"
            }
          ],
          "internalType": "struct Vault.DateTime",
          "name": "p",
          "type": "tuple"
        }
      ],
      "stateMutability": "view",
      "type": "function"
    },
    {
      "inputs": [],
      "name": "getTokenAceito",
      "outputs": [
        {
          "internalType": "contract IERC20",
          "name": "t",
          "type": "address"
        }
      ],
      "stateMutability": "view",
      "type": "function"
    },
    {
      "inputs": [],
      "name": "getValorTotalDepositado",
      "outputs": [
        {
          "internalType": "uint256",
          "name": "v",
          "type": "uint256"
        }
      ],
      "stateMutability": "view",
      "type": "function"
    },
    {
      "inputs": [],
      "name": "isVencido",
      "outputs": [
        {
          "internalType": "bool",
          "name": "b",
          "type": "bool"
        }
      ],
      "stateMutability": "view",
      "type": "function"
    },
    {
      "inputs": [],
      "name": "owner",
      "outputs": [
        {
          "internalType": "address",
          "name": "",
          "type": "address"
        }
      ],
      "stateMutability": "view",
      "type": "function"
    },
    {
      "inputs": [],
      "name": "paused",
      "outputs": [
        {
          "internalType": "bool",
          "name": "",
          "type": "bool"
        }
      ],
      "stateMutability": "view",
      "type": "function"
    },
    {
      "inputs": [],
      "name": "renounceOwnership",
      "outputs": [],
      "stateMutability": "nonpayable",
      "type": "function"
    },
    {
      "inputs": [
        {
          "internalType": "uint256",
          "name": "_ano",
          "type": "uint256"
        },
        {
          "internalType": "uint256",
          "name": "_mes",
          "type": "uint256"
        },
        {
          "internalType": "uint256",
          "name": "_dia",
          "type": "uint256"
        },
        {
          "internalType": "uint256",
          "name": "_hora",
          "type": "uint256"
        },
        {
          "internalType": "uint256",
          "name": "_minuto",
          "type": "uint256"
        },
        {
          "internalType": "uint256",
          "name": "_segundo",
          "type": "uint256"
        }
      ],
      "name": "setDataHoraVencimento",
      "outputs": [],
      "stateMutability": "nonpayable",
      "type": "function"
    },
    {
      "inputs": [
        {
          "internalType": "uint256",
          "name": "_ano",
          "type": "uint256"
        },
        {
          "internalType": "uint256",
          "name": "_mes",
          "type": "uint256"
        },
        {
          "internalType": "uint256",
          "name": "_dia",
          "type": "uint256"
        }
      ],
      "name": "setDataVencimento",
      "outputs": [],
      "stateMutability": "nonpayable",
      "type": "function"
    },
    {
      "inputs": [
        {
          "internalType": "string",
          "name": "_d",
          "type": "string"
        }
      ],
      "name": "setDescricao",
      "outputs": [],
      "stateMutability": "nonpayable",
      "type": "function"
    },
    {
      "inputs": [
        {
          "internalType": "contract IERC20",
          "name": "_a",
          "type": "address"
        }
      ],
      "name": "setTokenAceito",
      "outputs": [],
      "stateMutability": "nonpayable",
      "type": "function"
    },
    {
      "inputs": [
        {
          "internalType": "address",
          "name": "newOwner",
          "type": "address"
        }
      ],
      "name": "transferOwnership",
      "outputs": [],
      "stateMutability": "nonpayable",
      "type": "function"
    }
  ],
  "bytecode": "0x60806040526000600b556000600c5534801561001a57600080fd5b50338061004157604051631e4fbdf760e01b81526000600482015260240160405180910390fd5b61004a81610065565b506000805460ff60a01b1916905560018055426002556100b5565b600080546001600160a01b038381166001600160a01b0319831681178455604051919092169283917f8be0079c531659141344cd1fd0a4f28419497f9722a3daafe3b4186f6b6457e09190a35050565b61120c806100c46000396000f3fe608060405234801561001057600080fd5b50600436106100f55760003560e01c80638279ac7c11610097578063d9dd553311610066578063d9dd553314610218578063ef51a4931461022b578063f2fde38b1461025b578063f37ec3a11461026e57600080fd5b80638279ac7c146101e15780638da5cb5b146101f6578063a5e130c0146101bc578063b01ddf851461020757600080fd5b80635c975abb116100d35780635c975abb1461018f5780636767d67a146101a1578063715018a6146101b457806381f97e5f146101bc57600080fd5b8063191113d7146100fa5780631df84ff71461010f5780633b6a46e61461016c575b600080fd5b61010d610108366004610c77565b610276565b005b6101176102e9565b6040516101639190600060c082019050825182526020830151602083015260408301516040830152606083015160608301526080830151608083015260a083015160a083015292915050565b60405180910390f35b61017f61017a366004610d31565b61035f565b6040519015158152602001610163565b600054600160a01b900460ff1661017f565b61010d6101af366004610df0565b6106f9565b61010d61075e565b600a546001600160a01b03165b6040516001600160a01b039091168152602001610163565b6101e9610772565b6040516101639190610e1c565b6000546001600160a01b03166101c9565b600b54604051908152602001610163565b61010d610226366004610e6b565b610804565b61010d610239366004610f1c565b600a80546001600160a01b0319166001600160a01b0392909216919091179055565b61010d610269366004610f1c565b610814565b61017f610852565b610284868686868686610896565b6102cc5760405162461bcd60e51b8152602060048201526014602482015273646174612f686f726120696e76616c696461732160601b60448201526064015b60405180910390fd5b600395909555600493909355600591909155600655600755600855565b6103226040518060c001604052806000815260200160008152602001600081526020016000815260200160008152602001600081525090565b506040805160c08101825260035481526004546020820152600554918101919091526006546060820152600754608082015260085460a082015290565b600a5481516000916001600160a01b039182169116146103b25760405162461bcd60e51b815260206004820152600e60248201526d746f6b656e20696e76616c69646f60901b60448201526064016102c3565b60008260200151116104145760405162461bcd60e51b815260206004820152602560248201527f7175616e746964616465206465706f73697461646120696e666572696f722061604482015264207a65726f60d81b60648201526084016102c3565b81516040516370a0823160e01b81523060048201526000916001600160a01b0316906370a0823190602401602060405180830381865afa15801561045c573d6000803e3d6000fd5b505050506040513d601f19601f820116820180604052508101906104809190610f39565b835160208501516040516323b872dd60e01b81526001600160a01b038881166004830152306024830152604482019290925292935016906323b872dd906064016020604051808303816000875af11580156104df573d6000803e3d6000fd5b505050506040513d601f19601f820116820180604052508101906105039190610f52565b6105465760405162461bcd60e51b81526020600482015260146024820152735472616e73666572656e6369612066616c686f7560601b60448201526064016102c3565b82516040516370a0823160e01b81523060048201526000916001600160a01b0316906370a0823190602401602060405180830381865afa15801561058e573d6000803e3d6000fd5b505050506040513d601f19601f820116820180604052508101906105b29190610f39565b90508360200151826105c49190610f8a565b81146106225760405162461bcd60e51b815260206004820152602760248201527f53616c646f2066696e616c206e616f20636f72726573706f6e646520616f20656044820152667370657261646f60c81b60648201526084016102c3565b6001600160a01b038581166000908152600e6020908152604091829020875181546001600160a01b03191694811694909417815587820151600182018190558884015180516002840155928301516003830155928201516004820155606082015160058201556080820151600682015560a0909101516007909101556106a891906108d7565b6106ec5760405162461bcd60e51b81526020600482015260156024820152746465706f7369746f206d616c20737563656469646f60581b60448201526064016102c3565b6001925050505b92915050565b610704838383610948565b6107415760405162461bcd60e51b815260206004820152600e60248201526d6461746120696e76616c6964612160901b60448201526064016102c3565b600392909255600455600555600060068190556007819055600855565b61076661099f565b61077060006109cc565b565b60606009805461078190610f9d565b80601f01602080910402602001604051908101604052809291908181526020018280546107ad90610f9d565b80156107fa5780601f106107cf576101008083540402835291602001916107fa565b820191906000526020600020905b8154815290600101906020018083116107dd57829003601f168201915b5050505050905090565b60096108108282611028565b5050565b61081c61099f565b6001600160a01b03811661084657604051631e4fbdf760e01b8152600060048201526024016102c3565b61084f816109cc565b50565b6003546004546005546006546007546008546000954295879561087c959294919390929190610a1c565b905080821061088c57600161088f565b60005b9250505090565b60006108a3878787610948565b156108cd576018841080156108b85750603c83105b80156108c45750603c82105b156108cd575060015b9695505050505050565b600a546000906001600160a01b038481169116146109285760405162461bcd60e51b815260206004820152600e60248201526d746f6b656e20696e76616c69646f60901b60448201526064016102c3565b81600b600082825461093a9190610f8a565b909155506001949350505050565b60006107b2841015801561095c5750600083115b80156109695750600c8311155b1561099857600061097a8585610a78565b905060008311801561098c5750808311155b1561099657600191505b505b9392505050565b6000546001600160a01b031633146107705760405163118cdaa760e01b81523360048201526024016102c3565b600080546001600160a01b038381166001600160a01b0319831681178455604051919092169283917f8be0079c531659141344cd1fd0a4f28419497f9722a3daafe3b4186f6b6457e09190a35050565b600081610a2a603c856110e8565b610a36610e10876110e8565b62015180610a458b8b8b610afe565b610a4f91906110e8565b610a599190610f8a565b610a639190610f8a565b610a6d9190610f8a565b979650505050505050565b60008160011480610a895750816003145b80610a945750816005145b80610a9f5750816007145b80610aaa5750816008145b80610ab5575081600a145b80610ac0575081600c145b15610acd5750601f6106f3565b81600214610add5750601e6106f3565b610ae683610c3b565b610af157601c610af4565b601d5b60ff169392505050565b60006107b2841015610b0f57600080fd5b838383600062253d8c60046064600c610b29600e886110ff565b610b33919061113c565b610b3f8861132461116a565b610b49919061116a565b610b53919061113c565b610b5e906003611192565b610b68919061113c565b600c80610b76600e886110ff565b610b80919061113c565b610b8b90600c611192565b610b966002886110ff565b610ba091906110ff565b610bac9061016f611192565b610bb6919061113c565b6004600c610bc5600e896110ff565b610bcf919061113c565b610bdb896112c061116a565b610be5919061116a565b610bf1906105b5611192565b610bfb919061113c565b610c07617d4b876110ff565b610c11919061116a565b610c1b919061116a565b610c2591906110ff565b610c2f91906110ff565b98975050505050505050565b6000610c486004836111c2565b158015610c5e5750610c5b6064836111c2565b15155b806106f35750610c70610190836111c2565b1592915050565b60008060008060008060c08789031215610c9057600080fd5b505084359660208601359650604086013595606081013595506080810135945060a0013592509050565b6001600160a01b038116811461084f57600080fd5b634e487b7160e01b600052604160045260246000fd5b6040516060810167ffffffffffffffff81118282101715610d0857610d08610ccf565b60405290565b60405160c0810167ffffffffffffffff81118282101715610d0857610d08610ccf565b600080828403610120811215610d4657600080fd5b8335610d5181610cba565b9250610100601f198201811315610d6757600080fd5b610d6f610ce5565b6020860135610d7d81610cba565b81526040860135602082015260c0605f1984011215610d9b57600080fd5b610da3610d0e565b9250606086013583526080860135602084015260a0860135604084015260c0860135606084015260e086013560808401528186013560a08401528260408201528093505050509250929050565b600080600060608486031215610e0557600080fd5b505081359360208301359350604090920135919050565b60006020808352835180602085015260005b81811015610e4a57858101830151858201604001528201610e2e565b506000604082860101526040601f19601f8301168501019250505092915050565b600060208284031215610e7d57600080fd5b813567ffffffffffffffff80821115610e9557600080fd5b818401915084601f830112610ea957600080fd5b813581811115610ebb57610ebb610ccf565b604051601f8201601f19908116603f01168101908382118183101715610ee357610ee3610ccf565b81604052828152876020848701011115610efc57600080fd5b826020860160208301376000928101602001929092525095945050505050565b600060208284031215610f2e57600080fd5b813561099881610cba565b600060208284031215610f4b57600080fd5b5051919050565b600060208284031215610f6457600080fd5b8151801515811461099857600080fd5b634e487b7160e01b600052601160045260246000fd5b808201808211156106f3576106f3610f74565b600181811c90821680610fb157607f821691505b602082108103610fd157634e487b7160e01b600052602260045260246000fd5b50919050565b601f821115611023576000816000526020600020601f850160051c810160208610156110005750805b601f850160051c820191505b8181101561101f5782815560010161100c565b5050505b505050565b815167ffffffffffffffff81111561104257611042610ccf565b611056816110508454610f9d565b84610fd7565b602080601f83116001811461108b57600084156110735750858301515b600019600386901b1c1916600185901b17855561101f565b600085815260208120601f198616915b828110156110ba5788860151825594840194600190910190840161109b565b50858210156110d85787850151600019600388901b60f8161c191681555b5050505050600190811b01905550565b80820281158282048414176106f3576106f3610f74565b818103600083128015838313168383128216171561111f5761111f610f74565b5092915050565b634e487b7160e01b600052601260045260246000fd5b60008261114b5761114b611126565b600160ff1b82146000198414161561116557611165610f74565b500590565b808201828112600083128015821682158216171561118a5761118a610f74565b505092915050565b80820260008212600160ff1b841416156111ae576111ae610f74565b81810583148215176106f3576106f3610f74565b6000826111d1576111d1611126565b50069056fea26469706673582212209d6ced50423eaee3946a1233645656dfc0692a5f7fcc677bd481b565a7bb50ea64736f6c63430008180033",
  "linkReferences": {},
  "deployedLinkReferences": {}
}