{
  "_format": "hh-sol-artifact-1",
  "contractName": "Vault",
  "sourceName": "contracts/Vault.sol",
  "abi": [
    {
      "inputs": [],
      "stateMutability": "nonpayable",
      "type": "constructor"
    },
    {
      "inputs": [
        {
          "internalType": "address",
          "name": "target",
          "type": "address"
        }
      ],
      "name": "AddressEmptyCode",
      "type": "error"
    },
    {
      "inputs": [
        {
          "internalType": "address",
          "name": "account",
          "type": "address"
        }
      ],
      "name": "AddressInsufficientBalance",
      "type": "error"
    },
    {
      "inputs": [],
      "name": "EnforcedPause",
      "type": "error"
    },
    {
      "inputs": [],
      "name": "ExpectedPause",
      "type": "error"
    },
    {
      "inputs": [],
      "name": "FailedInnerCall",
      "type": "error"
    },
    {
      "inputs": [
        {
          "internalType": "address",
          "name": "owner",
          "type": "address"
        }
      ],
      "name": "OwnableInvalidOwner",
      "type": "error"
    },
    {
      "inputs": [
        {
          "internalType": "address",
          "name": "account",
          "type": "address"
        }
      ],
      "name": "OwnableUnauthorizedAccount",
      "type": "error"
    },
    {
      "inputs": [],
      "name": "ReentrancyGuardReentrantCall",
      "type": "error"
    },
    {
      "inputs": [
        {
          "internalType": "address",
          "name": "token",
          "type": "address"
        }
      ],
      "name": "SafeERC20FailedOperation",
      "type": "error"
    },
    {
      "anonymous": false,
      "inputs": [
        {
          "indexed": true,
          "internalType": "address",
          "name": "previousOwner",
          "type": "address"
        },
        {
          "indexed": true,
          "internalType": "address",
          "name": "newOwner",
          "type": "address"
        }
      ],
      "name": "OwnershipTransferred",
      "type": "event"
    },
    {
      "anonymous": false,
      "inputs": [
        {
          "indexed": false,
          "internalType": "address",
          "name": "account",
          "type": "address"
        }
      ],
      "name": "Paused",
      "type": "event"
    },
    {
      "anonymous": false,
      "inputs": [
        {
          "indexed": false,
          "internalType": "address",
          "name": "account",
          "type": "address"
        }
      ],
      "name": "Unpaused",
      "type": "event"
    },
    {
      "inputs": [
        {
          "internalType": "contract IERC20",
          "name": "_token",
          "type": "address"
        },
        {
          "internalType": "uint256",
          "name": "_valor",
          "type": "uint256"
        }
      ],
      "name": "depositaNoCofre",
      "outputs": [
        {
          "internalType": "bool",
          "name": "status",
          "type": "bool"
        }
      ],
      "stateMutability": "nonpayable",
      "type": "function"
    },
    {
      "inputs": [],
      "name": "getDescricao",
      "outputs": [
        {
          "internalType": "string",
          "name": "d",
          "type": "string"
        }
      ],
      "stateMutability": "view",
      "type": "function"
    },
    {
      "inputs": [],
      "name": "getLoanERC20Denomination",
      "outputs": [
        {
          "internalType": "contract IERC20",
          "name": "",
          "type": "address"
        }
      ],
      "stateMutability": "view",
      "type": "function"
    },
    {
      "inputs": [],
      "name": "getPrazoVencimnento",
      "outputs": [
        {
          "components": [
            {
              "internalType": "uint256",
              "name": "ano",
              "type": "uint256"
            },
            {
              "internalType": "uint256",
              "name": "mes",
              "type": "uint256"
            },
            {
              "internalType": "uint256",
              "name": "dia",
              "type": "uint256"
            },
            {
              "internalType": "uint256",
              "name": "hora",
              "type": "uint256"
            },
            {
              "internalType": "uint256",
              "name": "minuto",
              "type": "uint256"
            },
            {
              "internalType": "uint256",
              "name": "segundo",
              "type": "uint256"
            }
          ],
          "internalType": "struct Vault.DateTime",
          "name": "p",
          "type": "tuple"
        }
      ],
      "stateMutability": "view",
      "type": "function"
    },
    {
      "inputs": [],
      "name": "getTokenAceito",
      "outputs": [
        {
          "internalType": "contract IERC20",
          "name": "t",
          "type": "address"
        }
      ],
      "stateMutability": "view",
      "type": "function"
    },
    {
      "inputs": [],
      "name": "getValorTotalDepositado",
      "outputs": [
        {
          "internalType": "uint256",
          "name": "v",
          "type": "uint256"
        }
      ],
      "stateMutability": "view",
      "type": "function"
    },
    {
      "inputs": [],
      "name": "isVencido",
      "outputs": [
        {
          "internalType": "bool",
          "name": "b",
          "type": "bool"
        }
      ],
      "stateMutability": "view",
      "type": "function"
    },
    {
      "inputs": [],
      "name": "owner",
      "outputs": [
        {
          "internalType": "address",
          "name": "",
          "type": "address"
        }
      ],
      "stateMutability": "view",
      "type": "function"
    },
    {
      "inputs": [],
      "name": "paused",
      "outputs": [
        {
          "internalType": "bool",
          "name": "",
          "type": "bool"
        }
      ],
      "stateMutability": "view",
      "type": "function"
    },
    {
      "inputs": [],
      "name": "renounceOwnership",
      "outputs": [],
      "stateMutability": "nonpayable",
      "type": "function"
    },
    {
      "inputs": [
        {
          "internalType": "uint256",
          "name": "_ano",
          "type": "uint256"
        },
        {
          "internalType": "uint256",
          "name": "_mes",
          "type": "uint256"
        },
        {
          "internalType": "uint256",
          "name": "_dia",
          "type": "uint256"
        },
        {
          "internalType": "uint256",
          "name": "_hora",
          "type": "uint256"
        },
        {
          "internalType": "uint256",
          "name": "_minuto",
          "type": "uint256"
        },
        {
          "internalType": "uint256",
          "name": "_segundo",
          "type": "uint256"
        }
      ],
      "name": "setDataHoraVencimento",
      "outputs": [],
      "stateMutability": "nonpayable",
      "type": "function"
    },
    {
      "inputs": [
        {
          "internalType": "uint256",
          "name": "_ano",
          "type": "uint256"
        },
        {
          "internalType": "uint256",
          "name": "_mes",
          "type": "uint256"
        },
        {
          "internalType": "uint256",
          "name": "_dia",
          "type": "uint256"
        }
      ],
      "name": "setDataVencimento",
      "outputs": [],
      "stateMutability": "nonpayable",
      "type": "function"
    },
    {
      "inputs": [
        {
          "internalType": "string",
          "name": "_d",
          "type": "string"
        }
      ],
      "name": "setDescricao",
      "outputs": [],
      "stateMutability": "nonpayable",
      "type": "function"
    },
    {
      "inputs": [
        {
          "internalType": "contract IERC20",
          "name": "_a",
          "type": "address"
        }
      ],
      "name": "setTokenAceito",
      "outputs": [],
      "stateMutability": "nonpayable",
      "type": "function"
    },
    {
      "inputs": [
        {
          "internalType": "address",
          "name": "newOwner",
          "type": "address"
        }
      ],
      "name": "transferOwnership",
      "outputs": [],
      "stateMutability": "nonpayable",
      "type": "function"
    }
  ],
  "bytecode": "0x60806040526000600b556000600c5534801561001a57600080fd5b50338061004157604051631e4fbdf760e01b81526000600482015260240160405180910390fd5b61004a81610065565b506000805460ff60a01b1916905560018055426002556100b5565b600080546001600160a01b038381166001600160a01b0319831681178455604051919092169283917f8be0079c531659141344cd1fd0a4f28419497f9722a3daafe3b4186f6b6457e09190a35050565b611761806100c46000396000f3fe608060405234801561001057600080fd5b50600436106100f55760003560e01c80638da5cb5b11610097578063ed32109511610066578063ed32109514610214578063ef51a49314610227578063f2fde38b1461023a578063f37ec3a11461024d57600080fd5b80638da5cb5b146101df578063a5e130c0146101a5578063b01ddf85146101f0578063d9dd55331461020157600080fd5b80636767d67a116100d35780636767d67a1461018a578063715018a61461019d57806381f97e5f146101a55780638279ac7c146101ca57600080fd5b8063191113d7146100fa5780631df84ff71461010f5780635c975abb1461016c575b600080fd5b61010d610108366004611274565b610255565b005b6101176102c8565b6040516101639190600060c082019050825182526020830151602083015260408301516040830152606083015160608301526080830151608083015260a083015160a083015292915050565b60405180910390f35b600054600160a01b900460ff165b6040519015158152602001610163565b61010d6101983660046112b7565b61033e565b61010d6103a3565b600a546001600160a01b03165b6040516001600160a01b039091168152602001610163565b6101d26103b7565b6040516101639190611307565b6000546001600160a01b03166101b2565b600b54604051908152602001610163565b61010d61020f366004611350565b610449565b61017a610222366004611416565b610459565b61010d610235366004611442565b610814565b61010d610248366004611442565b61083e565b61017a61087c565b6102638686868686866108c0565b6102ab5760405162461bcd60e51b8152602060048201526014602482015273646174612f686f726120696e76616c696461732160601b60448201526064015b60405180910390fd5b600395909555600493909355600591909155600655600755600855565b6103016040518060c001604052806000815260200160008152602001600081526020016000815260200160008152602001600081525090565b506040805160c08101825260035481526004546020820152600554918101919091526006546060820152600754608082015260085460a082015290565b610349838383610901565b6103865760405162461bcd60e51b815260206004820152600e60248201526d6461746120696e76616c6964612160901b60448201526064016102a2565b600392909255600455600555600060068190556007819055600855565b6103ab610958565b6103b56000610985565b565b6060600980546103c69061145f565b80601f01602080910402602001604051908101604052809291908181526020018280546103f29061145f565b801561043f5780601f106104145761010080835404028352916020019161043f565b820191906000526020600020905b81548152906001019060200180831161042257829003601f168201915b5050505050905090565b600961045582826114e9565b5050565b600033610464611214565b6001600160a01b0380861680835260208301869052600a54909116146104bd5760405162461bcd60e51b815260206004820152600e60248201526d746f6b656e20696e76616c69646f60901b60448201526064016102a2565b600081602001511161051f5760405162461bcd60e51b815260206004820152602560248201527f7175616e746964616465206465706f73697461646120696e666572696f722061604482015264207a65726f60d81b60648201526084016102a2565b61053281600001513083602001516109d5565b80516040516370a0823160e01b81523060048201526000916001600160a01b0316906370a0823190602401602060405180830381865afa15801561057a573d6000803e3d6000fd5b505050506040513d601f19601f8201168201806040525081019061059e91906115a9565b90506105b4826000015184308560200151610a65565b81516040516370a0823160e01b81523060048201526000916001600160a01b0316906370a0823190602401602060405180830381865afa1580156105fc573d6000803e3d6000fd5b505050506040513d601f19601f8201168201806040525081019061062091906115a9565b905082602001518261063291906115d8565b81146106905760405162461bcd60e51b815260206004820152602760248201527f53616c646f2066696e616c206e616f20636f72726573706f6e646520616f20656044820152667370657261646f60c81b60648201526084016102a2565b6000806000806000806106a242610acc565b9550955095509550955095508589604001516000018181525050848960400151602001818152505083896040015160400181815250508289604001516060018181525050818960400151608001818152505080896040015160a001818152505088600e60008c6001600160a01b03166001600160a01b0316815260200190815260200160002060008201518160000160006101000a8154816001600160a01b0302191690836001600160a01b0316021790555060208201518160010155604082015181600201600082015181600001556020820151816001015560408201518160020155606082015181600301556080820151816004015560a0820151816005015550509050506107bb89600001518a60200151610b40565b6107ff5760405162461bcd60e51b81526020600482015260156024820152746465706f7369746f206d616c20737563656469646f60581b60448201526064016102a2565b60019a50505050505050505050505b92915050565b61081c610958565b600a80546001600160a01b0319166001600160a01b0392909216919091179055565b610846610958565b6001600160a01b03811661087057604051631e4fbdf760e01b8152600060048201526024016102a2565b61087981610985565b50565b600354600454600554600654600754600854600095429587956108a6959294919390929190610bb1565b90508082106108b65760016108b9565b60005b9250505090565b60006108cd878787610901565b156108f7576018841080156108e25750603c83105b80156108ee5750603c82105b156108f7575060015b9695505050505050565b60006107b284101580156109155750600083115b80156109225750600c8311155b156109515760006109338585610c0d565b90506000831180156109455750808311155b1561094f57600191505b505b9392505050565b6000546001600160a01b031633146103b55760405163118cdaa760e01b81523360048201526024016102a2565b600080546001600160a01b038381166001600160a01b0319831681178455604051919092169283917f8be0079c531659141344cd1fd0a4f28419497f9722a3daafe3b4186f6b6457e09190a35050565b604051636eb1769f60e11b81523060048201526001600160a01b0383811660248301526000919085169063dd62ed3e90604401602060405180830381865afa158015610a25573d6000803e3d6000fd5b505050506040513d601f19601f82011682018060405250810190610a4991906115a9565b9050610a5f8484610a5a85856115d8565b610c93565b50505050565b6040516001600160a01b038481166024830152838116604483015260648201839052610a5f9186918216906323b872dd906084015b604051602081830303815290604052915060e01b6020820180516001600160e01b038381831617835250505050610d1f565b60008080808080610ae8610ae36201518089611601565b610d87565b919750955093506000610afe6201518089611615565b9050610b0c610e1082611601565b9350610b1a610e1082611615565b9050610b27603c82611601565b9250610b34603c82611615565b91505091939550919395565b600a546000906001600160a01b03848116911614610b915760405162461bcd60e51b815260206004820152600e60248201526d746f6b656e20696e76616c69646f60901b60448201526064016102a2565b81600b6000828254610ba391906115d8565b909155506001949350505050565b600081610bbf603c85611629565b610bcb610e1087611629565b62015180610bda8b8b8b610efb565b610be49190611629565b610bee91906115d8565b610bf891906115d8565b610c0291906115d8565b979650505050505050565b60008160011480610c1e5750816003145b80610c295750816005145b80610c345750816007145b80610c3f5750816008145b80610c4a575081600a145b80610c55575081600c145b15610c625750601f61080e565b81600214610c725750601e61080e565b610c7b83611038565b610c8657601c610c89565b601d5b60ff169392505050565b604080516001600160a01b038416602482015260448082018490528251808303909101815260649091019091526020810180516001600160e01b031663095ea7b360e01b179052610ce48482611074565b610a5f576040516001600160a01b03848116602483015260006044830152610d1991869182169063095ea7b390606401610a9a565b610a5f84825b6000610d346001600160a01b0384168361111c565b90508051600014158015610d59575080806020019051810190610d579190611640565b155b15610d8257604051635274afe760e01b81526001600160a01b03841660048201526024016102a2565b505050565b60008080838162253d8c610d9e8362010bd9611662565b610da89190611662565b9050600062023ab1610dbb83600461168a565b610dc591906116ba565b90506004610dd68262023ab161168a565b610de1906003611662565b610deb91906116ba565b610df590836116e8565b9150600062164b09610e08846001611662565b610e1490610fa061168a565b610e1e91906116ba565b90506004610e2e826105b561168a565b610e3891906116ba565b610e4290846116e8565b610e4d90601f611662565b9250600061098f610e5f85605061168a565b610e6991906116ba565b905060006050610e7b8361098f61168a565b610e8591906116ba565b610e8f90866116e8565b9050610e9c600b836116ba565b9450610ea985600c61168a565b610eb4836002611662565b610ebe91906116e8565b91508483610ecd6031876116e8565b610ed890606461168a565b610ee29190611662565b610eec9190611662565b9a919950975095505050505050565b60006107b2841015610f0c57600080fd5b838383600062253d8c60046064600c610f26600e886116e8565b610f3091906116ba565b610f3c88611324611662565b610f469190611662565b610f5091906116ba565b610f5b90600361168a565b610f6591906116ba565b600c80610f73600e886116e8565b610f7d91906116ba565b610f8890600c61168a565b610f936002886116e8565b610f9d91906116e8565b610fa99061016f61168a565b610fb391906116ba565b6004600c610fc2600e896116e8565b610fcc91906116ba565b610fd8896112c0611662565b610fe29190611662565b610fee906105b561168a565b610ff891906116ba565b611004617d4b876116e8565b61100e9190611662565b6110189190611662565b61102291906116e8565b61102c91906116e8565b98975050505050505050565b6000611045600483611615565b15801561105b5750611058606483611615565b15155b8061080e575061106d61019083611615565b1592915050565b6000806000846001600160a01b031684604051611091919061170f565b6000604051808303816000865af19150503d80600081146110ce576040519150601f19603f3d011682016040523d82523d6000602084013e6110d3565b606091505b50915091508180156110fd5750805115806110fd5750808060200190518101906110fd9190611640565b801561111357506000856001600160a01b03163b115b95945050505050565b60606109518383600084600080856001600160a01b03168486604051611142919061170f565b60006040518083038185875af1925050503d806000811461117f576040519150601f19603f3d011682016040523d82523d6000602084013e611184565b606091505b50915091506108f78683836060826111a45761119f826111eb565b610951565b81511580156111bb57506001600160a01b0384163b155b156111e457604051639996b31560e01b81526001600160a01b03851660048201526024016102a2565b5080610951565b8051156111fb5780518082602001fd5b604051630a12f52160e11b815260040160405180910390fd5b604051806060016040528060006001600160a01b031681526020016000815260200161126f6040518060c001604052806000815260200160008152602001600081526020016000815260200160008152602001600081525090565b905290565b60008060008060008060c0878903121561128d57600080fd5b505084359660208601359650604086013595606081013595506080810135945060a0013592509050565b6000806000606084860312156112cc57600080fd5b505081359360208301359350604090920135919050565b60005b838110156112fe5781810151838201526020016112e6565b50506000910152565b60208152600082518060208401526113268160408501602087016112e3565b601f01601f19169190910160400192915050565b634e487b7160e01b600052604160045260246000fd5b60006020828403121561136257600080fd5b813567ffffffffffffffff8082111561137a57600080fd5b818401915084601f83011261138e57600080fd5b8135818111156113a0576113a061133a565b604051601f8201601f19908116603f011681019083821181831017156113c8576113c861133a565b816040528281528760208487010111156113e157600080fd5b826020860160208301376000928101602001929092525095945050505050565b6001600160a01b038116811461087957600080fd5b6000806040838503121561142957600080fd5b823561143481611401565b946020939093013593505050565b60006020828403121561145457600080fd5b813561095181611401565b600181811c9082168061147357607f821691505b60208210810361149357634e487b7160e01b600052602260045260246000fd5b50919050565b601f821115610d82576000816000526020600020601f850160051c810160208610156114c25750805b601f850160051c820191505b818110156114e1578281556001016114ce565b505050505050565b815167ffffffffffffffff8111156115035761150361133a565b61151781611511845461145f565b84611499565b602080601f83116001811461154c57600084156115345750858301515b600019600386901b1c1916600185901b1785556114e1565b600085815260208120601f198616915b8281101561157b5788860151825594840194600190910190840161155c565b50858210156115995787850151600019600388901b60f8161c191681555b5050505050600190811b01905550565b6000602082840312156115bb57600080fd5b5051919050565b634e487b7160e01b600052601160045260246000fd5b8082018082111561080e5761080e6115c2565b634e487b7160e01b600052601260045260246000fd5b600082611610576116106115eb565b500490565b600082611624576116246115eb565b500690565b808202811582820484141761080e5761080e6115c2565b60006020828403121561165257600080fd5b8151801515811461095157600080fd5b8082018281126000831280158216821582161715611682576116826115c2565b505092915050565b80820260008212600160ff1b841416156116a6576116a66115c2565b818105831482151761080e5761080e6115c2565b6000826116c9576116c96115eb565b600160ff1b8214600019841416156116e3576116e36115c2565b500590565b8181036000831280158383131683831282161715611708576117086115c2565b5092915050565b600082516117218184602087016112e3565b919091019291505056fea2646970667358221220b2c9f8af35984c1198d966cd4c09d37c8d0291dabde1f5d9cec48af5cff6ef0b64736f6c63430008180033",
  "linkReferences": {},
  "deployedLinkReferences": {}
}