{
  "_format": "hh-sol-artifact-1",
  "contractName": "Vault",
  "sourceName": "contracts/Vault.sol",
  "abi": [
    {
      "inputs": [],
      "stateMutability": "nonpayable",
      "type": "constructor"
    },
    {
      "inputs": [
        {
          "internalType": "address",
          "name": "target",
          "type": "address"
        }
      ],
      "name": "AddressEmptyCode",
      "type": "error"
    },
    {
      "inputs": [
        {
          "internalType": "address",
          "name": "account",
          "type": "address"
        }
      ],
      "name": "AddressInsufficientBalance",
      "type": "error"
    },
    {
      "inputs": [],
      "name": "EnforcedPause",
      "type": "error"
    },
    {
      "inputs": [],
      "name": "ExpectedPause",
      "type": "error"
    },
    {
      "inputs": [],
      "name": "FailedInnerCall",
      "type": "error"
    },
    {
      "inputs": [
        {
          "internalType": "address",
          "name": "owner",
          "type": "address"
        }
      ],
      "name": "OwnableInvalidOwner",
      "type": "error"
    },
    {
      "inputs": [
        {
          "internalType": "address",
          "name": "account",
          "type": "address"
        }
      ],
      "name": "OwnableUnauthorizedAccount",
      "type": "error"
    },
    {
      "inputs": [],
      "name": "ReentrancyGuardReentrantCall",
      "type": "error"
    },
    {
      "inputs": [
        {
          "internalType": "address",
          "name": "token",
          "type": "address"
        }
      ],
      "name": "SafeERC20FailedOperation",
      "type": "error"
    },
    {
      "anonymous": false,
      "inputs": [
        {
          "indexed": true,
          "internalType": "address",
          "name": "previousOwner",
          "type": "address"
        },
        {
          "indexed": true,
          "internalType": "address",
          "name": "newOwner",
          "type": "address"
        }
      ],
      "name": "OwnershipTransferred",
      "type": "event"
    },
    {
      "anonymous": false,
      "inputs": [
        {
          "indexed": false,
          "internalType": "address",
          "name": "account",
          "type": "address"
        }
      ],
      "name": "Paused",
      "type": "event"
    },
    {
      "anonymous": false,
      "inputs": [
        {
          "indexed": false,
          "internalType": "address",
          "name": "account",
          "type": "address"
        }
      ],
      "name": "Unpaused",
      "type": "event"
    },
    {
      "inputs": [
        {
          "internalType": "uint256",
          "name": "_tokenid",
          "type": "uint256"
        }
      ],
      "name": "depositaColateral",
      "outputs": [
        {
          "internalType": "bool",
          "name": "b",
          "type": "bool"
        }
      ],
      "stateMutability": "nonpayable",
      "type": "function"
    },
    {
      "inputs": [
        {
          "internalType": "contract IERC20",
          "name": "_token",
          "type": "address"
        },
        {
          "internalType": "uint256",
          "name": "_valor",
          "type": "uint256"
        }
      ],
      "name": "depositaNoCofre",
      "outputs": [
        {
          "internalType": "bool",
          "name": "status",
          "type": "bool"
        }
      ],
      "stateMutability": "nonpayable",
      "type": "function"
    },
    {
      "inputs": [],
      "name": "getDescricao",
      "outputs": [
        {
          "internalType": "string",
          "name": "d",
          "type": "string"
        }
      ],
      "stateMutability": "view",
      "type": "function"
    },
    {
      "inputs": [],
      "name": "getLoanERC20Denomination",
      "outputs": [
        {
          "internalType": "contract IERC20",
          "name": "",
          "type": "address"
        }
      ],
      "stateMutability": "view",
      "type": "function"
    },
    {
      "inputs": [],
      "name": "getPrazoVencimnento",
      "outputs": [
        {
          "components": [
            {
              "internalType": "uint256",
              "name": "ano",
              "type": "uint256"
            },
            {
              "internalType": "uint256",
              "name": "mes",
              "type": "uint256"
            },
            {
              "internalType": "uint256",
              "name": "dia",
              "type": "uint256"
            },
            {
              "internalType": "uint256",
              "name": "hora",
              "type": "uint256"
            },
            {
              "internalType": "uint256",
              "name": "minuto",
              "type": "uint256"
            },
            {
              "internalType": "uint256",
              "name": "segundo",
              "type": "uint256"
            }
          ],
          "internalType": "struct Vault.DateTime",
          "name": "p",
          "type": "tuple"
        }
      ],
      "stateMutability": "view",
      "type": "function"
    },
    {
      "inputs": [],
      "name": "getTokenAceito",
      "outputs": [
        {
          "internalType": "contract IERC20",
          "name": "t",
          "type": "address"
        }
      ],
      "stateMutability": "view",
      "type": "function"
    },
    {
      "inputs": [],
      "name": "getValorTotalDepositado",
      "outputs": [
        {
          "internalType": "uint256",
          "name": "v",
          "type": "uint256"
        }
      ],
      "stateMutability": "view",
      "type": "function"
    },
    {
      "inputs": [],
      "name": "isVencido",
      "outputs": [
        {
          "internalType": "bool",
          "name": "b",
          "type": "bool"
        }
      ],
      "stateMutability": "view",
      "type": "function"
    },
    {
      "inputs": [],
      "name": "owner",
      "outputs": [
        {
          "internalType": "address",
          "name": "",
          "type": "address"
        }
      ],
      "stateMutability": "view",
      "type": "function"
    },
    {
      "inputs": [],
      "name": "paused",
      "outputs": [
        {
          "internalType": "bool",
          "name": "",
          "type": "bool"
        }
      ],
      "stateMutability": "view",
      "type": "function"
    },
    {
      "inputs": [],
      "name": "renounceOwnership",
      "outputs": [],
      "stateMutability": "nonpayable",
      "type": "function"
    },
    {
      "inputs": [
        {
          "internalType": "uint256",
          "name": "_ano",
          "type": "uint256"
        },
        {
          "internalType": "uint256",
          "name": "_mes",
          "type": "uint256"
        },
        {
          "internalType": "uint256",
          "name": "_dia",
          "type": "uint256"
        },
        {
          "internalType": "uint256",
          "name": "_hora",
          "type": "uint256"
        },
        {
          "internalType": "uint256",
          "name": "_minuto",
          "type": "uint256"
        },
        {
          "internalType": "uint256",
          "name": "_segundo",
          "type": "uint256"
        }
      ],
      "name": "setDataHoraVencimento",
      "outputs": [],
      "stateMutability": "nonpayable",
      "type": "function"
    },
    {
      "inputs": [
        {
          "internalType": "uint256",
          "name": "_ano",
          "type": "uint256"
        },
        {
          "internalType": "uint256",
          "name": "_mes",
          "type": "uint256"
        },
        {
          "internalType": "uint256",
          "name": "_dia",
          "type": "uint256"
        }
      ],
      "name": "setDataVencimento",
      "outputs": [],
      "stateMutability": "nonpayable",
      "type": "function"
    },
    {
      "inputs": [
        {
          "internalType": "string",
          "name": "_d",
          "type": "string"
        }
      ],
      "name": "setDescricao",
      "outputs": [],
      "stateMutability": "nonpayable",
      "type": "function"
    },
    {
      "inputs": [
        {
          "internalType": "contract IERC20",
          "name": "_a",
          "type": "address"
        }
      ],
      "name": "setTokenAceito",
      "outputs": [],
      "stateMutability": "nonpayable",
      "type": "function"
    },
    {
      "inputs": [
        {
          "internalType": "address",
          "name": "newOwner",
          "type": "address"
        }
      ],
      "name": "transferOwnership",
      "outputs": [],
      "stateMutability": "nonpayable",
      "type": "function"
    }
  ],
  "bytecode": "0x6080604052600a80546001600160a01b0319167394a9d9ac8a22534e3faca9f4e7f2e2cf85d5e4c81790556000600b819055600c553480156200004157600080fd5b5033806200006a57604051631e4fbdf760e01b8152600060048201526024015b60405180910390fd5b6200007581620000ac565b506000805460ff60a01b1916905560018055620000a67394a9d9ac8a22534e3faca9f4e7f2e2cf85d5e4c8620000fc565b62000159565b600080546001600160a01b038381166001600160a01b0319831681178455604051919092169283917f8be0079c531659141344cd1fd0a4f28419497f9722a3daafe3b4186f6b6457e09190a35050565b6200010662000128565b600a80546001600160a01b0319166001600160a01b0392909216919091179055565b6000546001600160a01b03163314620001575760405163118cdaa760e01b815233600482015260240162000061565b565b6115fa80620001696000396000f3fe608060405234801561001057600080fd5b50600436106101005760003560e01c80638da5cb5b11610097578063ed32109511610066578063ed3210951461025a578063ef51a4931461026d578063f2fde38b14610280578063f37ec3a11461029357600080fd5b80638da5cb5b14610225578063a5e130c0146101eb578063b01ddf8514610236578063d9dd55331461024757600080fd5b80636767d67a116100d35780636767d67a146101d0578063715018a6146101e357806381f97e5f146101eb5780638279ac7c1461021057600080fd5b8063191113d7146101055780631df84ff71461011a578063486d01d8146101775780635c975abb146101be575b600080fd5b6101186101133660046110f4565b61029b565b005b610122610316565b60405161016e9190600060c082019050825182526020830151602083015260408301516040830152606083015160608301526080830151608083015260a083015160a083015292915050565b60405180910390f35b6101ae610185366004611137565b336000908152600f60209081526040822080546001818101835591845291909220019190915590565b604051901515815260200161016e565b600054600160a01b900460ff166101ae565b6101186101de366004611150565b61038c565b6101186103f9565b600a546001600160a01b03165b6040516001600160a01b03909116815260200161016e565b61021861040d565b60405161016e91906111a0565b6000546001600160a01b03166101f8565b600b5460405190815260200161016e565b6101186102553660046111e9565b61049f565b6101ae6102683660046112af565b6104b7565b61011861027b3660046112db565b61085f565b61011861028e3660046112db565b610889565b6101ae6108c7565b6102a361090b565b6102b1868686868686610938565b6102f95760405162461bcd60e51b8152602060048201526014602482015273646174612f686f726120696e76616c696461732160601b60448201526064015b60405180910390fd5b600395909555600493909355600591909155600655600755600855565b61034f6040518060c001604052806000815260200160008152602001600081526020016000815260200160008152602001600081525090565b506040805160c08101825260035481526004546020820152600554918101919091526006546060820152600754608082015260085460a082015290565b61039461090b565b61039f838383610979565b6103dc5760405162461bcd60e51b815260206004820152600e60248201526d6461746120696e76616c6964612160901b60448201526064016102f0565b600392909255600455600555600060068190556007819055600855565b61040161090b565b61040b60006109d0565b565b60606009805461041c906112f8565b80601f0160208091040260200160405190810160405280929190818152602001828054610448906112f8565b80156104955780601f1061046a57610100808354040283529160200191610495565b820191906000526020600020905b81548152906001019060200180831161047857829003601f168201915b5050505050905090565b6104a761090b565b60096104b38282611382565b5050565b6000336104c2611094565b6001600160a01b0380861680835260208301869052600a549091161461051b5760405162461bcd60e51b815260206004820152600e60248201526d746f6b656e20696e76616c69646f60901b60448201526064016102f0565b600081602001511161057d5760405162461bcd60e51b815260206004820152602560248201527f7175616e746964616465206465706f73697461646120696e666572696f722061604482015264207a65726f60d81b60648201526084016102f0565b80516040516370a0823160e01b81523060048201526000916001600160a01b0316906370a0823190602401602060405180830381865afa1580156105c5573d6000803e3d6000fd5b505050506040513d601f19601f820116820180604052508101906105e99190611442565b90506105ff826000015184308560200151610a20565b81516040516370a0823160e01b81523060048201526000916001600160a01b0316906370a0823190602401602060405180830381865afa158015610647573d6000803e3d6000fd5b505050506040513d601f19601f8201168201806040525081019061066b9190611442565b905082602001518261067d9190611471565b81146106db5760405162461bcd60e51b815260206004820152602760248201527f53616c646f2066696e616c206e616f20636f72726573706f6e646520616f20656044820152667370657261646f60c81b60648201526084016102f0565b6000806000806000806106ed42610a80565b9550955095509550955095508589604001516000018181525050848960400151602001818152505083896040015160400181815250508289604001516060018181525050818960400151608001818152505080896040015160a001818152505088600e60008c6001600160a01b03166001600160a01b0316815260200190815260200160002060008201518160000160006101000a8154816001600160a01b0302191690836001600160a01b0316021790555060208201518160010155604082015181600201600082015181600001556020820151816001015560408201518160020155606082015181600301556080820151816004015560a08201518160050155505090505061080689600001518a60200151610af4565b61084a5760405162461bcd60e51b81526020600482015260156024820152746465706f7369746f206d616c20737563656469646f60581b60448201526064016102f0565b60019a50505050505050505050505b92915050565b61086761090b565b600a80546001600160a01b0319166001600160a01b0392909216919091179055565b61089161090b565b6001600160a01b0381166108bb57604051631e4fbdf760e01b8152600060048201526024016102f0565b6108c4816109d0565b50565b600354600454600554600654600754600854600095429587956108f1959294919390929190610b65565b9050808210610901576001610904565b60005b9250505090565b6000546001600160a01b0316331461040b5760405163118cdaa760e01b81523360048201526024016102f0565b6000610945878787610979565b1561096f5760188410801561095a5750603c83105b80156109665750603c82105b1561096f575060015b9695505050505050565b60006107b2841015801561098d5750600083115b801561099a5750600c8311155b156109c95760006109ab8585610bc1565b90506000831180156109bd5750808311155b156109c757600191505b505b9392505050565b600080546001600160a01b038381166001600160a01b0319831681178455604051919092169283917f8be0079c531659141344cd1fd0a4f28419497f9722a3daafe3b4186f6b6457e09190a35050565b604080516001600160a01b0385811660248301528416604482015260648082018490528251808303909101815260849091019091526020810180516001600160e01b03166323b872dd60e01b179052610a7a908590610c47565b50505050565b60008080808080610a9c610a97620151808961149a565b610caf565b919750955093506000610ab262015180896114ae565b9050610ac0610e108261149a565b9350610ace610e10826114ae565b9050610adb603c8261149a565b9250610ae8603c826114ae565b91505091939550919395565b600a546000906001600160a01b03848116911614610b455760405162461bcd60e51b815260206004820152600e60248201526d746f6b656e20696e76616c69646f60901b60448201526064016102f0565b81600b6000828254610b579190611471565b909155506001949350505050565b600081610b73603c856114c2565b610b7f610e10876114c2565b62015180610b8e8b8b8b610e23565b610b9891906114c2565b610ba29190611471565b610bac9190611471565b610bb69190611471565b979650505050505050565b60008160011480610bd25750816003145b80610bdd5750816005145b80610be85750816007145b80610bf35750816008145b80610bfe575081600a145b80610c09575081600c145b15610c165750601f610859565b81600214610c265750601e610859565b610c2f83610f60565b610c3a57601c610c3d565b601d5b60ff169392505050565b6000610c5c6001600160a01b03841683610f9c565b90508051600014158015610c81575080806020019051810190610c7f91906114d9565b155b15610caa57604051635274afe760e01b81526001600160a01b03841660048201526024016102f0565b505050565b60008080838162253d8c610cc68362010bd96114fb565b610cd091906114fb565b9050600062023ab1610ce3836004611523565b610ced9190611553565b90506004610cfe8262023ab1611523565b610d099060036114fb565b610d139190611553565b610d1d9083611581565b9150600062164b09610d308460016114fb565b610d3c90610fa0611523565b610d469190611553565b90506004610d56826105b5611523565b610d609190611553565b610d6a9084611581565b610d7590601f6114fb565b9250600061098f610d87856050611523565b610d919190611553565b905060006050610da38361098f611523565b610dad9190611553565b610db79086611581565b9050610dc4600b83611553565b9450610dd185600c611523565b610ddc8360026114fb565b610de69190611581565b91508483610df5603187611581565b610e00906064611523565b610e0a91906114fb565b610e1491906114fb565b9a919950975095505050505050565b60006107b2841015610e3457600080fd5b838383600062253d8c60046064600c610e4e600e88611581565b610e589190611553565b610e64886113246114fb565b610e6e91906114fb565b610e789190611553565b610e83906003611523565b610e8d9190611553565b600c80610e9b600e88611581565b610ea59190611553565b610eb090600c611523565b610ebb600288611581565b610ec59190611581565b610ed19061016f611523565b610edb9190611553565b6004600c610eea600e89611581565b610ef49190611553565b610f00896112c06114fb565b610f0a91906114fb565b610f16906105b5611523565b610f209190611553565b610f2c617d4b87611581565b610f3691906114fb565b610f4091906114fb565b610f4a9190611581565b610f549190611581565b98975050505050505050565b6000610f6d6004836114ae565b158015610f835750610f806064836114ae565b15155b806108595750610f95610190836114ae565b1592915050565b60606109c98383600084600080856001600160a01b03168486604051610fc291906115a8565b60006040518083038185875af1925050503d8060008114610fff576040519150601f19603f3d011682016040523d82523d6000602084013e611004565b606091505b509150915061096f8683836060826110245761101f8261106b565b6109c9565b815115801561103b57506001600160a01b0384163b155b1561106457604051639996b31560e01b81526001600160a01b03851660048201526024016102f0565b50806109c9565b80511561107b5780518082602001fd5b604051630a12f52160e11b815260040160405180910390fd5b604051806060016040528060006001600160a01b03168152602001600081526020016110ef6040518060c001604052806000815260200160008152602001600081526020016000815260200160008152602001600081525090565b905290565b60008060008060008060c0878903121561110d57600080fd5b505084359660208601359650604086013595606081013595506080810135945060a0013592509050565b60006020828403121561114957600080fd5b5035919050565b60008060006060848603121561116557600080fd5b505081359360208301359350604090920135919050565b60005b8381101561119757818101518382015260200161117f565b50506000910152565b60208152600082518060208401526111bf81604085016020870161117c565b601f01601f19169190910160400192915050565b634e487b7160e01b600052604160045260246000fd5b6000602082840312156111fb57600080fd5b813567ffffffffffffffff8082111561121357600080fd5b818401915084601f83011261122757600080fd5b813581811115611239576112396111d3565b604051601f8201601f19908116603f01168101908382118183101715611261576112616111d3565b8160405282815287602084870101111561127a57600080fd5b826020860160208301376000928101602001929092525095945050505050565b6001600160a01b03811681146108c457600080fd5b600080604083850312156112c257600080fd5b82356112cd8161129a565b946020939093013593505050565b6000602082840312156112ed57600080fd5b81356109c98161129a565b600181811c9082168061130c57607f821691505b60208210810361132c57634e487b7160e01b600052602260045260246000fd5b50919050565b601f821115610caa576000816000526020600020601f850160051c8101602086101561135b5750805b601f850160051c820191505b8181101561137a57828155600101611367565b505050505050565b815167ffffffffffffffff81111561139c5761139c6111d3565b6113b0816113aa84546112f8565b84611332565b602080601f8311600181146113e557600084156113cd5750858301515b600019600386901b1c1916600185901b17855561137a565b600085815260208120601f198616915b82811015611414578886015182559484019460019091019084016113f5565b50858210156114325787850151600019600388901b60f8161c191681555b5050505050600190811b01905550565b60006020828403121561145457600080fd5b5051919050565b634e487b7160e01b600052601160045260246000fd5b808201808211156108595761085961145b565b634e487b7160e01b600052601260045260246000fd5b6000826114a9576114a9611484565b500490565b6000826114bd576114bd611484565b500690565b80820281158282048414176108595761085961145b565b6000602082840312156114eb57600080fd5b815180151581146109c957600080fd5b808201828112600083128015821682158216171561151b5761151b61145b565b505092915050565b80820260008212600160ff1b8414161561153f5761153f61145b565b81810583148215176108595761085961145b565b60008261156257611562611484565b600160ff1b82146000198414161561157c5761157c61145b565b500590565b81810360008312801583831316838312821617156115a1576115a161145b565b5092915050565b600082516115ba81846020870161117c565b919091019291505056fea2646970667358221220f02429783f9ca93337b238ee29ed65c439d02a825945b770664177f7d976c83964736f6c63430008180033",
  "linkReferences": {},
  "deployedLinkReferences": {}
}